{
  "contractName": "Donor",
  "abi": [
    {
      "inputs": [],
      "stateMutability": "nonpayable",
      "type": "constructor"
    },
    {
      "anonymous": false,
      "inputs": [
        {
          "indexed": true,
          "internalType": "address",
          "name": "donorAddress",
          "type": "address"
        },
        {
          "indexed": true,
          "internalType": "uint256",
          "name": "requestId",
          "type": "uint256"
        },
        {
          "indexed": false,
          "internalType": "string",
          "name": "evidenceCID",
          "type": "string"
        },
        {
          "indexed": false,
          "internalType": "uint256",
          "name": "timestamp",
          "type": "uint256"
        }
      ],
      "name": "DeathConfirmed",
      "type": "event"
    },
    {
      "anonymous": false,
      "inputs": [
        {
          "indexed": true,
          "internalType": "address",
          "name": "donorAddress",
          "type": "address"
        },
        {
          "indexed": true,
          "internalType": "uint256",
          "name": "requestId",
          "type": "uint256"
        },
        {
          "indexed": false,
          "internalType": "uint256",
          "name": "timestamp",
          "type": "uint256"
        }
      ],
      "name": "DeathVerificationRequested",
      "type": "event"
    },
    {
      "anonymous": false,
      "inputs": [
        {
          "indexed": true,
          "internalType": "address",
          "name": "donorAddress",
          "type": "address"
        },
        {
          "indexed": false,
          "internalType": "uint256",
          "name": "timestamp",
          "type": "uint256"
        }
      ],
      "name": "DonorDeactivated",
      "type": "event"
    },
    {
      "anonymous": false,
      "inputs": [
        {
          "indexed": true,
          "internalType": "address",
          "name": "donorAddress",
          "type": "address"
        },
        {
          "indexed": false,
          "internalType": "string",
          "name": "name",
          "type": "string"
        },
        {
          "indexed": false,
          "internalType": "uint256",
          "name": "age",
          "type": "uint256"
        },
        {
          "indexed": false,
          "internalType": "string",
          "name": "bloodType",
          "type": "string"
        },
        {
          "indexed": false,
          "internalType": "uint256",
          "name": "timestamp",
          "type": "uint256"
        }
      ],
      "name": "DonorRegistered",
      "type": "event"
    },
    {
      "anonymous": false,
      "inputs": [
        {
          "indexed": true,
          "internalType": "address",
          "name": "donorAddress",
          "type": "address"
        },
        {
          "indexed": false,
          "internalType": "enum Donor.DonorStatus",
          "name": "newStatus",
          "type": "uint8"
        },
        {
          "indexed": false,
          "internalType": "uint256",
          "name": "timestamp",
          "type": "uint256"
        }
      ],
      "name": "DonorStatusUpdated",
      "type": "event"
    },
    {
      "inputs": [
        {
          "internalType": "address",
          "name": "",
          "type": "address"
        }
      ],
      "name": "authorizedContracts",
      "outputs": [
        {
          "internalType": "bool",
          "name": "",
          "type": "bool"
        }
      ],
      "stateMutability": "view",
      "type": "function",
      "constant": true
    },
    {
      "inputs": [
        {
          "internalType": "uint256",
          "name": "",
          "type": "uint256"
        }
      ],
      "name": "donorList",
      "outputs": [
        {
          "internalType": "address",
          "name": "",
          "type": "address"
        }
      ],
      "stateMutability": "view",
      "type": "function",
      "constant": true
    },
    {
      "inputs": [
        {
          "internalType": "address",
          "name": "",
          "type": "address"
        }
      ],
      "name": "donors",
      "outputs": [
        {
          "internalType": "string",
          "name": "name",
          "type": "string"
        },
        {
          "internalType": "uint256",
          "name": "age",
          "type": "uint256"
        },
        {
          "internalType": "string",
          "name": "bloodType",
          "type": "string"
        },
        {
          "internalType": "enum Donor.DonorStatus",
          "name": "status",
          "type": "uint8"
        },
        {
          "internalType": "string",
          "name": "medicalHistoryHash",
          "type": "string"
        },
        {
          "components": [
            {
              "internalType": "bool",
              "name": "heart",
              "type": "bool"
            },
            {
              "internalType": "bool",
              "name": "liver",
              "type": "bool"
            },
            {
              "internalType": "bool",
              "name": "kidneys",
              "type": "bool"
            }
          ],
          "internalType": "struct Donor.DonationPreferences",
          "name": "preferences",
          "type": "tuple"
        },
        {
          "internalType": "uint256",
          "name": "registrationDate",
          "type": "uint256"
        },
        {
          "internalType": "uint256",
          "name": "deathVerificationRequestId",
          "type": "uint256"
        },
        {
          "internalType": "uint256",
          "name": "deathTimestamp",
          "type": "uint256"
        },
        {
          "internalType": "string",
          "name": "deathEvidenceCID",
          "type": "string"
        }
      ],
      "stateMutability": "view",
      "type": "function",
      "constant": true
    },
    {
      "inputs": [
        {
          "internalType": "address",
          "name": "",
          "type": "address"
        }
      ],
      "name": "isDonorRegistered",
      "outputs": [
        {
          "internalType": "bool",
          "name": "",
          "type": "bool"
        }
      ],
      "stateMutability": "view",
      "type": "function",
      "constant": true
    },
    {
      "inputs": [],
      "name": "oracleContract",
      "outputs": [
        {
          "internalType": "address",
          "name": "",
          "type": "address"
        }
      ],
      "stateMutability": "view",
      "type": "function",
      "constant": true
    },
    {
      "inputs": [],
      "name": "owner",
      "outputs": [
        {
          "internalType": "address",
          "name": "",
          "type": "address"
        }
      ],
      "stateMutability": "view",
      "type": "function",
      "constant": true
    },
    {
      "inputs": [
        {
          "internalType": "address",
          "name": "_oracleContract",
          "type": "address"
        }
      ],
      "name": "setOracleContract",
      "outputs": [],
      "stateMutability": "nonpayable",
      "type": "function"
    },
    {
      "inputs": [
        {
          "internalType": "address",
          "name": "contractAddress",
          "type": "address"
        },
        {
          "internalType": "bool",
          "name": "authorized",
          "type": "bool"
        }
      ],
      "name": "setAuthorizedContract",
      "outputs": [],
      "stateMutability": "nonpayable",
      "type": "function"
    },
    {
      "inputs": [
        {
          "internalType": "address",
          "name": "donorAddress",
          "type": "address"
        },
        {
          "internalType": "string",
          "name": "name",
          "type": "string"
        },
        {
          "internalType": "uint256",
          "name": "age",
          "type": "uint256"
        },
        {
          "internalType": "string",
          "name": "bloodType",
          "type": "string"
        },
        {
          "internalType": "string",
          "name": "medicalHistoryHash",
          "type": "string"
        },
        {
          "components": [
            {
              "internalType": "bool",
              "name": "heart",
              "type": "bool"
            },
            {
              "internalType": "bool",
              "name": "liver",
              "type": "bool"
            },
            {
              "internalType": "bool",
              "name": "kidneys",
              "type": "bool"
            }
          ],
          "internalType": "struct Donor.DonationPreferences",
          "name": "preferences",
          "type": "tuple"
        }
      ],
      "name": "registerDonor",
      "outputs": [],
      "stateMutability": "nonpayable",
      "type": "function"
    },
    {
      "inputs": [
        {
          "internalType": "address",
          "name": "donorAddress",
          "type": "address"
        },
        {
          "internalType": "enum Donor.DonorStatus",
          "name": "newStatus",
          "type": "uint8"
        }
      ],
      "name": "updateDonorStatus",
      "outputs": [],
      "stateMutability": "nonpayable",
      "type": "function"
    },
    {
      "inputs": [
        {
          "internalType": "address",
          "name": "donorAddress",
          "type": "address"
        }
      ],
      "name": "deactivateDonor",
      "outputs": [],
      "stateMutability": "nonpayable",
      "type": "function"
    },
    {
      "inputs": [
        {
          "internalType": "address",
          "name": "donorAddress",
          "type": "address"
        }
      ],
      "name": "requestDeathVerification",
      "outputs": [
        {
          "internalType": "uint256",
          "name": "",
          "type": "uint256"
        }
      ],
      "stateMutability": "nonpayable",
      "type": "function"
    },
    {
      "inputs": [
        {
          "internalType": "address",
          "name": "donorAddress",
          "type": "address"
        },
        {
          "internalType": "uint256",
          "name": "requestId",
          "type": "uint256"
        },
        {
          "internalType": "string",
          "name": "evidenceCID",
          "type": "string"
        }
      ],
      "name": "confirmDeath",
      "outputs": [],
      "stateMutability": "nonpayable",
      "type": "function"
    },
    {
      "inputs": [
        {
          "internalType": "address",
          "name": "donorAddress",
          "type": "address"
        }
      ],
      "name": "getDonorInfo",
      "outputs": [
        {
          "internalType": "string",
          "name": "name",
          "type": "string"
        },
        {
          "internalType": "uint256",
          "name": "age",
          "type": "uint256"
        },
        {
          "internalType": "string",
          "name": "bloodType",
          "type": "string"
        },
        {
          "internalType": "enum Donor.DonorStatus",
          "name": "status",
          "type": "uint8"
        },
        {
          "internalType": "string",
          "name": "medicalHistoryHash",
          "type": "string"
        },
        {
          "components": [
            {
              "internalType": "bool",
              "name": "heart",
              "type": "bool"
            },
            {
              "internalType": "bool",
              "name": "liver",
              "type": "bool"
            },
            {
              "internalType": "bool",
              "name": "kidneys",
              "type": "bool"
            }
          ],
          "internalType": "struct Donor.DonationPreferences",
          "name": "preferences",
          "type": "tuple"
        }
      ],
      "stateMutability": "view",
      "type": "function",
      "constant": true
    },
    {
      "inputs": [
        {
          "internalType": "address",
          "name": "donorAddress",
          "type": "address"
        }
      ],
      "name": "getDonorDeathInfo",
      "outputs": [
        {
          "internalType": "uint256",
          "name": "deathVerificationRequestId",
          "type": "uint256"
        },
        {
          "internalType": "uint256",
          "name": "deathTimestamp",
          "type": "uint256"
        },
        {
          "internalType": "string",
          "name": "deathEvidenceCID",
          "type": "string"
        }
      ],
      "stateMutability": "view",
      "type": "function",
      "constant": true
    },
    {
      "inputs": [
        {
          "internalType": "address",
          "name": "donorAddress",
          "type": "address"
        }
      ],
      "name": "isDonorActive",
      "outputs": [
        {
          "internalType": "bool",
          "name": "",
          "type": "bool"
        }
      ],
      "stateMutability": "view",
      "type": "function",
      "constant": true
    },
    {
      "inputs": [],
      "name": "getTotalDonors",
      "outputs": [
        {
          "internalType": "uint256",
          "name": "",
          "type": "uint256"
        }
      ],
      "stateMutability": "view",
      "type": "function",
      "constant": true
    },
    {
      "inputs": [],
      "name": "getAllDonors",
      "outputs": [
        {
          "internalType": "address[]",
          "name": "",
          "type": "address[]"
        }
      ],
      "stateMutability": "view",
      "type": "function",
      "constant": true
    },
    {
      "inputs": [],
      "name": "getDeceasedDonors",
      "outputs": [
        {
          "internalType": "address[]",
          "name": "",
          "type": "address[]"
        }
      ],
      "stateMutability": "view",
      "type": "function",
      "constant": true
    }
  ],
  "bytecode": "0x608060405234801561001057600080fd5b50600080546001600160a01b0319163317905561222c806100326000396000f3fe608060405234801561001057600080fd5b50600436106101215760003560e01c8063bece7532116100ad578063da1fda3811610071578063da1fda38146102b8578063dc28e702146102cb578063e615a712146102ec578063f2fa7392146102f4578063f7ee944b1461030757600080fd5b8063bece753214610221578063c46a60a514610234578063ca0cdea814610259578063d338f25b14610282578063d5b9221b1461029557600080fd5b80635eed3dcb116100f45780635eed3dcb146101a85780638da5cb5b146101d357806398e36b04146101e65780639964a7a5146101fb578063b76863a81461020e57600080fd5b80631b6eb66c14610126578063213e899f1461013b578063496ccd9b1461017357806359e78b1d14610186575b600080fd5b610139610134366004611a2d565b61030f565b005b61015e610149366004611a68565b60036020526000908152604090205460ff1681565b60405190151581526020015b60405180910390f35b610139610181366004611a68565b61041c565b610199610194366004611a68565b6104d0565b60405161016a93929190611ada565b6101bb6101b6366004611b02565b610836565b6040516001600160a01b03909116815260200161016a565b6000546101bb906001600160a01b031681565b6101ee610860565b60405161016a9190611b1b565b610139610209366004611c34565b6108c2565b61013961021c366004611a68565b610a66565b6001546101bb906001600160a01b031681565b610247610242366004611a68565b610b25565b60405161016a96959493929190611cc3565b61026c610267366004611a68565b610ebe565b60405161016a9a99989796959493929190611d47565b61015e610290366004611a68565b61116a565b61015e6102a3366004611a68565b60056020526000908152604090205460ff1681565b6101396102c6366004611e02565b6111c6565b6102de6102d9366004611a68565b611558565b60405190815260200161016a565b6004546102de565b610139610302366004611ef7565b611801565b6101ee611856565b6000546001600160a01b031633148061033757503360009081526005602052604090205460ff165b61035c5760405162461bcd60e51b815260040161035390611f2a565b60405180910390fd5b6001600160a01b03821660009081526003602052604090205460ff166103945760405162461bcd60e51b815260040161035390611f52565b6001600160a01b038216600090815260026020526040902060039081018054839260ff199091169060019084908111156103d0576103d0611c8b565b0217905550816001600160a01b03167f5c255d55a4385fc6c836c8413ed72025f93029612bdb5741bc0334e45532ed648242604051610410929190611f80565b60405180910390a25050565b6000546001600160a01b031633146104465760405162461bcd60e51b815260040161035390611f9b565b6001600160a01b0381166104955760405162461bcd60e51b8152602060048201526016602482015275496e76616c6964206f7261636c65206164647265737360501b6044820152606401610353565b600180546001600160a01b039092166001600160a01b031990921682178155600091825260056020526040909120805460ff19169091179055565b6001600160a01b038116600090815260036020526040812054819060609060ff1661050d5760405162461bcd60e51b815260040161035390611f52565b6001600160a01b0384166000908152600260205260408082208151610140810190925280548290829061053f90611fdc565b80601f016020809104026020016040519081016040528092919081815260200182805461056b90611fdc565b80156105b85780601f1061058d576101008083540402835291602001916105b8565b820191906000526020600020905b81548152906001019060200180831161059b57829003601f168201915b50505050508152602001600182015481526020016002820180546105db90611fdc565b80601f016020809104026020016040519081016040528092919081815260200182805461060790611fdc565b80156106545780601f1061062957610100808354040283529160200191610654565b820191906000526020600020905b81548152906001019060200180831161063757829003601f168201915b505050918352505060038281015460209092019160ff169081111561067b5761067b611c8b565b600381111561068c5761068c611c8b565b81526020016004820180546106a090611fdc565b80601f01602080910402602001604051908101604052809291908181526020018280546106cc90611fdc565b80156107195780601f106106ee57610100808354040283529160200191610719565b820191906000526020600020905b8154815290600101906020018083116106fc57829003601f168201915b50505091835250506040805160608082018352600585015460ff8082161515845261010082048116151560208581019190915262010000909204161515838501528401919091526006840154918301919091526007830154908201526008820154608082015260098201805460a09092019161079490611fdc565b80601f01602080910402602001604051908101604052809291908181526020018280546107c090611fdc565b801561080d5780601f106107e25761010080835404028352916020019161080d565b820191906000526020600020905b8154815290600101906020018083116107f057829003601f168201915b5050509190925250505060e0810151610100820151610120909201519097919650945092505050565b6004818154811061084657600080fd5b6000918252602090912001546001600160a01b0316905081565b606060048054806020026020016040519081016040528092919081815260200182805480156108b857602002820191906000526020600020905b81546001600160a01b0316815260019091019060200180831161089a575b5050505050905090565b6000546001600160a01b03163314806108ea57503360009081526005602052604090205460ff165b6109065760405162461bcd60e51b815260040161035390611f2a565b6001600160a01b03831660009081526003602052604090205460ff1661093e5760405162461bcd60e51b815260040161035390611f52565b6001600160a01b038316600090815260026020526040902060070154821461099d5760405162461bcd60e51b8152602060048201526012602482015271125b9d985b1a59081c995c5d595cdd08125160721b6044820152606401610353565b6001600160a01b03831660009081526002602052604090206003808201805460ff191690911790554260088201556009016109d88282612065565b5081836001600160a01b03167f275ee5e44bf162ef0a6153f34819745081ab73acf82f79348fc4d28b99ebac4c8342604051610a15929190612125565b60405180910390a3826001600160a01b03167f5c255d55a4385fc6c836c8413ed72025f93029612bdb5741bc0334e45532ed64600342604051610a59929190611f80565b60405180910390a2505050565b6000546001600160a01b03163314610a905760405162461bcd60e51b815260040161035390611f9b565b6001600160a01b03811660009081526003602052604090205460ff16610ac85760405162461bcd60e51b815260040161035390611f52565b6001600160a01b038116600081815260026020908152604091829020600301805460ff1916600117905590514281527f3120ca9125d2bd6fadd96f46fe7335de5eca65d35963b8cf64b442b86c84aa49910160405180910390a250565b604080516060818101835260008083526020830181905292820183905291908290829082906001600160a01b03871660009081526003602052604090205460ff16610b825760405162461bcd60e51b815260040161035390611f52565b6001600160a01b03871660009081526002602052604080822081516101408101909252805482908290610bb490611fdc565b80601f0160208091040260200160405190810160405280929190818152602001828054610be090611fdc565b8015610c2d5780601f10610c0257610100808354040283529160200191610c2d565b820191906000526020600020905b815481529060010190602001808311610c1057829003601f168201915b5050505050815260200160018201548152602001600282018054610c5090611fdc565b80601f0160208091040260200160405190810160405280929190818152602001828054610c7c90611fdc565b8015610cc95780601f10610c9e57610100808354040283529160200191610cc9565b820191906000526020600020905b815481529060010190602001808311610cac57829003601f168201915b505050918352505060038281015460209092019160ff1690811115610cf057610cf0611c8b565b6003811115610d0157610d01611c8b565b8152602001600482018054610d1590611fdc565b80601f0160208091040260200160405190810160405280929190818152602001828054610d4190611fdc565b8015610d8e5780601f10610d6357610100808354040283529160200191610d8e565b820191906000526020600020905b815481529060010190602001808311610d7157829003601f168201915b50505091835250506040805160608082018352600585015460ff8082161515845261010082048116151560208581019190915262010000909204161515838501528401919091526006840154918301919091526007830154908201526008820154608082015260098201805460a090920191610e0990611fdc565b80601f0160208091040260200160405190810160405280929190818152602001828054610e3590611fdc565b8015610e825780601f10610e5757610100808354040283529160200191610e82565b820191906000526020600020905b815481529060010190602001808311610e6557829003601f168201915b5050509190925250508151602083015160408401516060850151608086015160a090960151939e929d50909b5099509297509550909350505050565b600260205260009081526040902080548190610ed990611fdc565b80601f0160208091040260200160405190810160405280929190818152602001828054610f0590611fdc565b8015610f525780601f10610f2757610100808354040283529160200191610f52565b820191906000526020600020905b815481529060010190602001808311610f3557829003601f168201915b505050505090806001015490806002018054610f6d90611fdc565b80601f0160208091040260200160405190810160405280929190818152602001828054610f9990611fdc565b8015610fe65780601f10610fbb57610100808354040283529160200191610fe6565b820191906000526020600020905b815481529060010190602001808311610fc957829003601f168201915b5050506003840154600485018054949560ff90921694919350915061100a90611fdc565b80601f016020809104026020016040519081016040528092919081815260200182805461103690611fdc565b80156110835780601f1061105857610100808354040283529160200191611083565b820191906000526020600020905b81548152906001019060200180831161106657829003601f168201915b505060408051606081018252600587015460ff8082161515835261010082048116151560208401526201000090910416151591810191909152600686015460078701546008880154600989018054989994989397509195509350906110e790611fdc565b80601f016020809104026020016040519081016040528092919081815260200182805461111390611fdc565b80156111605780601f1061113557610100808354040283529160200191611160565b820191906000526020600020905b81548152906001019060200180831161114357829003601f168201915b505050505090508a565b6001600160a01b03811660009081526003602052604081205460ff1680156111c057506001600160a01b038216600090815260026020526040812060039081015460ff16908111156111be576111be611c8b565b145b92915050565b6000546001600160a01b031633146111f05760405162461bcd60e51b815260040161035390611f9b565b6001600160a01b03861660009081526003602052604090205460ff16156112595760405162461bcd60e51b815260206004820152601860248201527f446f6e6f7220616c7265616479207265676973746572656400000000000000006044820152606401610353565b60128410156112b65760405162461bcd60e51b815260206004820152602360248201527f446f6e6f72206d757374206265206174206c65617374203138207965617273206044820152621bdb1960ea1b6064820152608401610353565b60008551116112fe5760405162461bcd60e51b81526020600482015260146024820152734e616d652063616e6e6f7420626520656d70747960601b6044820152606401610353565b600083511161134f5760405162461bcd60e51b815260206004820152601a60248201527f426c6f6f6420747970652063616e6e6f7420626520656d7074790000000000006044820152606401610353565b604080516101408101825286815260208082018790528183018690526000606083018190526080830186905260a083018590524260c084015260e083018190526101008301819052835180830185528181526101208401526001600160a01b038a168152600290915291909120815181906113ca9082612065565b5060208201516001820155604082015160028201906113e99082612065565b5060608201518160030160006101000a81548160ff0219169083600381111561141457611414611c8b565b02179055506080820151600482019061142d9082612065565b5060a08201518051600583018054602084015160409094015161ffff1990911692151561ff0019169290921761010093151584021762ff00001916620100009215159290920291909117905560c0830151600683015560e08301516007830155820151600882015561012082015160098201906114aa9082612065565b5050506001600160a01b038616600081815260036020526040808220805460ff191660019081179091556004805491820181559092527f8a35acfbc15ff81a39ae7d344fd709f28e8600b4aa8c65c6b64bfe7fe36bd19b90910180546001600160a01b03191683179055517fc983c06936f93274d572fd245736eac4a96dadff50af650c3bb2b2a48732d89890611548908890889088904290612147565b60405180910390a2505050505050565b600080546001600160a01b031633148061158157503360009081526005602052604090205460ff165b61159d5760405162461bcd60e51b815260040161035390611f2a565b6001600160a01b03821660009081526003602052604090205460ff166115d55760405162461bcd60e51b815260040161035390611f52565b6001546001600160a01b031661162d5760405162461bcd60e51b815260206004820152601760248201527f4f7261636c6520636f6e7472616374206e6f74207365740000000000000000006044820152606401610353565b6001600160a01b038216600090815260026020526040812060039081015460ff169081111561165e5761165e611c8b565b146116a25760405162461bcd60e51b8152602060048201526014602482015273446f6e6f72206d7573742062652061637469766560601b6044820152606401610353565b6001546040516001600160a01b038481166024830152600092839291169060440160408051601f198184030181529181526020820180516001600160e01b0316636e14738160e11b179052516116f89190612184565b6000604051808303816000865af19150503d8060008114611735576040519150601f19603f3d011682016040523d82523d6000602084013e61173a565b606091505b5091509150816117845760405162461bcd60e51b815260206004820152601560248201527413dc9858db19481c995c5d595cdd0819985a5b1959605a1b6044820152606401610353565b60008180602001905181019061179a91906121a0565b6001600160a01b038616600081815260026020526040908190206007018390555191925082917f3c2be13923588bd9bedfb1d2ebc0130aae61b91166e151b9dfe68d3ebc92ac82906117ef9042815260200190565b60405180910390a3925050505b919050565b6000546001600160a01b0316331461182b5760405162461bcd60e51b815260040161035390611f9b565b6001600160a01b03919091166000908152600560205260409020805460ff1916911515919091179055565b60606000805b6004548110156118e1576003600260006004848154811061187f5761187f6121b9565b60009182526020808320909101546001600160a01b03168352820192909252604001902060039081015460ff16908111156118bc576118bc611c8b565b036118cf57816118cb816121cf565b9250505b806118d9816121cf565b91505061185c565b5060008167ffffffffffffffff8111156118fd576118fd611b68565b604051908082528060200260200182016040528015611926578160200160208202803683370190505b5090506000805b600454811015611a0d5760036002600060048481548110611950576119506121b9565b60009182526020808320909101546001600160a01b03168352820192909252604001902060039081015460ff169081111561198d5761198d611c8b565b036119fb57600481815481106119a5576119a56121b9565b9060005260206000200160009054906101000a90046001600160a01b03168383815181106119d5576119d56121b9565b6001600160a01b0390921660209283029190910190910152816119f7816121cf565b9250505b80611a05816121cf565b91505061192d565b50909392505050565b80356001600160a01b03811681146117fc57600080fd5b60008060408385031215611a4057600080fd5b611a4983611a16565b9150602083013560048110611a5d57600080fd5b809150509250929050565b600060208284031215611a7a57600080fd5b611a8382611a16565b9392505050565b60005b83811015611aa5578181015183820152602001611a8d565b50506000910152565b60008151808452611ac6816020860160208601611a8a565b601f01601f19169290920160200192915050565b838152826020820152606060408201526000611af96060830184611aae565b95945050505050565b600060208284031215611b1457600080fd5b5035919050565b6020808252825182820181905260009190848201906040850190845b81811015611b5c5783516001600160a01b031683529284019291840191600101611b37565b50909695505050505050565b634e487b7160e01b600052604160045260246000fd5b6040516060810167ffffffffffffffff81118282101715611ba157611ba1611b68565b60405290565b600082601f830112611bb857600080fd5b813567ffffffffffffffff80821115611bd357611bd3611b68565b604051601f8301601f19908116603f01168101908282118183101715611bfb57611bfb611b68565b81604052838152866020858801011115611c1457600080fd5b836020870160208301376000602085830101528094505050505092915050565b600080600060608486031215611c4957600080fd5b611c5284611a16565b925060208401359150604084013567ffffffffffffffff811115611c7557600080fd5b611c8186828701611ba7565b9150509250925092565b634e487b7160e01b600052602160045260246000fd5b60048110611cbf57634e487b7160e01b600052602160045260246000fd5b9052565b6000610100808352611cd78184018a611aae565b90508760208401528281036040840152611cf18188611aae565b9050611d006060840187611ca1565b8281036080840152611d128186611aae565b8451151560a08501526020850151151560c08501526040850151151560e08501529150611d3c9050565b979650505050505050565b6000610180808352611d5b8184018e611aae565b90508b60208401528281036040840152611d75818c611aae565b9050611d84606084018b611ca1565b8281036080840152611d96818a611aae565b8851151560a08501526020890151151560c08501526040890151151560e08501529050866101008401528561012084015284610140840152828103610160840152611de18185611aae565b9d9c50505050505050505050505050565b803580151581146117fc57600080fd5b600080600080600080868803610100811215611e1d57600080fd5b611e2688611a16565b9650602088013567ffffffffffffffff80821115611e4357600080fd5b611e4f8b838c01611ba7565b975060408a0135965060608a0135915080821115611e6c57600080fd5b611e788b838c01611ba7565b955060808a0135915080821115611e8e57600080fd5b50611e9b8a828b01611ba7565b9350506060609f1982011215611eb057600080fd5b50611eb9611b7e565b611ec560a08901611df2565b8152611ed360c08901611df2565b6020820152611ee460e08901611df2565b6040820152809150509295509295509295565b60008060408385031215611f0a57600080fd5b611f1383611a16565b9150611f2160208401611df2565b90509250929050565b6020808252600e908201526d139bdd08185d5d1a1bdc9a5e995960921b604082015260600190565b602080825260149082015273111bdb9bdc881b9bdd081c9959da5cdd195c995960621b604082015260600190565b60408101611f8e8285611ca1565b8260208301529392505050565b60208082526021908201527f4f6e6c79206f776e65722063616e2063616c6c20746869732066756e6374696f6040820152603760f91b606082015260800190565b600181811c90821680611ff057607f821691505b60208210810361201057634e487b7160e01b600052602260045260246000fd5b50919050565b601f82111561206057600081815260208120601f850160051c8101602086101561203d5750805b601f850160051c820191505b8181101561205c57828155600101612049565b5050505b505050565b815167ffffffffffffffff81111561207f5761207f611b68565b6120938161208d8454611fdc565b84612016565b602080601f8311600181146120c857600084156120b05750858301515b600019600386901b1c1916600185901b17855561205c565b600085815260208120601f198616915b828110156120f7578886015182559484019460019091019084016120d8565b50858210156121155787850151600019600388901b60f8161c191681555b5050505050600190811b01905550565b6040815260006121386040830185611aae565b90508260208301529392505050565b60808152600061215a6080830187611aae565b85602084015282810360408401526121728186611aae565b91505082606083015295945050505050565b60008251612196818460208701611a8a565b9190910192915050565b6000602082840312156121b257600080fd5b5051919050565b634e487b7160e01b600052603260045260246000fd5b6000600182016121ef57634e487b7160e01b600052601160045260246000fd5b506001019056fea264697066735822122047a32d3e5e28e4a68679799b6b16f7179aada3ecaed02e528b7442158323211264736f6c63430008140033",
  "immutableReferences": {},
  "source": "// SPDX-License-Identifier: MIT\r\npragma solidity ^0.8.0;\r\n\r\n/**\r\n * @title Donor\r\n * @dev Smart contract for managing organ donors with Oracle integration\r\n */\r\ncontract Donor {\r\n    \r\n    address public owner;\r\n    address public oracleContract;\r\n    \r\n    enum DonorStatus { Active, Deactivated, Matched, Deceased }\r\n    \r\n    struct DonationPreferences {\r\n        bool heart;\r\n        bool liver;\r\n        bool kidneys;\r\n    }\r\n    \r\n    struct DonorInfo {\r\n        string name;\r\n        uint256 age;\r\n        string bloodType;\r\n        DonorStatus status;\r\n        string medicalHistoryHash;\r\n        DonationPreferences preferences;\r\n        uint256 registrationDate;\r\n        uint256 deathVerificationRequestId; // NEW: Oracle request ID\r\n        uint256 deathTimestamp; // NEW: Timestamp of death confirmation\r\n        string deathEvidenceCID; // NEW: IPFS CID of death certificate\r\n    }\r\n    \r\n    mapping(address => DonorInfo) public donors;\r\n    mapping(address => bool) public isDonorRegistered;\r\n    address[] public donorList;\r\n    \r\n    // NEW: Mapping to track which contracts can update donor status\r\n    mapping(address => bool) public authorizedContracts;\r\n    \r\n    // Events\r\n    event DonorRegistered(\r\n        address indexed donorAddress,\r\n        string name,\r\n        uint256 age,\r\n        string bloodType,\r\n        uint256 timestamp\r\n    );\r\n    \r\n    event DonorStatusUpdated(\r\n        address indexed donorAddress,\r\n        DonorStatus newStatus,\r\n        uint256 timestamp\r\n    );\r\n    \r\n    event DonorDeactivated(\r\n        address indexed donorAddress,\r\n        uint256 timestamp\r\n    );\r\n    \r\n    // NEW: Oracle-related events\r\n    event DeathVerificationRequested(\r\n        address indexed donorAddress,\r\n        uint256 indexed requestId,\r\n        uint256 timestamp\r\n    );\r\n    \r\n    event DeathConfirmed(\r\n        address indexed donorAddress,\r\n        uint256 indexed requestId,\r\n        string evidenceCID,\r\n        uint256 timestamp\r\n    );\r\n    \r\n    modifier onlyOwner() {\r\n        require(msg.sender == owner, \"Only owner can call this function\");\r\n        _;\r\n    }\r\n    \r\n    modifier onlyAuthorized() {\r\n        require(\r\n            msg.sender == owner || authorizedContracts[msg.sender],\r\n            \"Not authorized\"\r\n        );\r\n        _;\r\n    }\r\n    \r\n    constructor() {\r\n        owner = msg.sender;\r\n    }\r\n    \r\n    /**\r\n     * @dev Set the oracle contract address\r\n     * @param _oracleContract Address of the OrganOracle contract\r\n     */\r\n    function setOracleContract(address _oracleContract) external onlyOwner {\r\n        require(_oracleContract != address(0), \"Invalid oracle address\");\r\n        oracleContract = _oracleContract;\r\n        authorizedContracts[_oracleContract] = true;\r\n    }\r\n    \r\n    /**\r\n     * @dev Authorize a contract to update donor status\r\n     * @param contractAddress Address of the contract\r\n     * @param authorized True to authorize, false to revoke\r\n     */\r\n    function setAuthorizedContract(address contractAddress, bool authorized) \r\n        external \r\n        onlyOwner \r\n    {\r\n        authorizedContracts[contractAddress] = authorized;\r\n    }\r\n    \r\n    /**\r\n     * @dev Register a new donor\r\n     */\r\n    function registerDonor(\r\n        address donorAddress,\r\n        string memory name,\r\n        uint256 age,\r\n        string memory bloodType,\r\n        string memory medicalHistoryHash,\r\n        DonationPreferences memory preferences\r\n    ) external onlyOwner {\r\n        require(!isDonorRegistered[donorAddress], \"Donor already registered\");\r\n        require(age >= 18, \"Donor must be at least 18 years old\");\r\n        require(bytes(name).length > 0, \"Name cannot be empty\");\r\n        require(bytes(bloodType).length > 0, \"Blood type cannot be empty\");\r\n        \r\n        donors[donorAddress] = DonorInfo({\r\n            name: name,\r\n            age: age,\r\n            bloodType: bloodType,\r\n            status: DonorStatus.Active,\r\n            medicalHistoryHash: medicalHistoryHash,\r\n            preferences: preferences,\r\n            registrationDate: block.timestamp,\r\n            deathVerificationRequestId: 0,\r\n            deathTimestamp: 0,\r\n            deathEvidenceCID: \"\"\r\n        });\r\n        \r\n        isDonorRegistered[donorAddress] = true;\r\n        donorList.push(donorAddress);\r\n        \r\n        emit DonorRegistered(donorAddress, name, age, bloodType, block.timestamp);\r\n    }\r\n    \r\n    /**\r\n     * @dev Update donor status\r\n     */\r\n    function updateDonorStatus(address donorAddress, DonorStatus newStatus) \r\n        external \r\n        onlyAuthorized \r\n    {\r\n        require(isDonorRegistered[donorAddress], \"Donor not registered\");\r\n        \r\n        donors[donorAddress].status = newStatus;\r\n        \r\n        emit DonorStatusUpdated(donorAddress, newStatus, block.timestamp);\r\n    }\r\n    \r\n    /**\r\n     * @dev Deactivate a donor\r\n     */\r\n    function deactivateDonor(address donorAddress) external onlyOwner {\r\n        require(isDonorRegistered[donorAddress], \"Donor not registered\");\r\n        \r\n        donors[donorAddress].status = DonorStatus.Deactivated;\r\n        \r\n        emit DonorDeactivated(donorAddress, block.timestamp);\r\n    }\r\n    \r\n    /**\r\n     * @dev NEW: Request death verification from Oracle\r\n     * @param donorAddress Address of the donor\r\n     */\r\n    function requestDeathVerification(address donorAddress) \r\n        external \r\n        onlyAuthorized \r\n        returns (uint256) \r\n    {\r\n        require(isDonorRegistered[donorAddress], \"Donor not registered\");\r\n        require(oracleContract != address(0), \"Oracle contract not set\");\r\n        require(\r\n            donors[donorAddress].status == DonorStatus.Active,\r\n            \"Donor must be active\"\r\n        );\r\n        \r\n        // Call oracle contract to request verification\r\n        (bool success, bytes memory data) = oracleContract.call(\r\n            abi.encodeWithSignature(\"requestDeathVerification(address)\", donorAddress)\r\n        );\r\n        \r\n        require(success, \"Oracle request failed\");\r\n        uint256 requestId = abi.decode(data, (uint256));\r\n        \r\n        donors[donorAddress].deathVerificationRequestId = requestId;\r\n        \r\n        emit DeathVerificationRequested(donorAddress, requestId, block.timestamp);\r\n        \r\n        return requestId;\r\n    }\r\n    \r\n    /**\r\n     * @dev NEW: Confirm donor death (called by Oracle or authorized contract)\r\n     * @param donorAddress Address of the donor\r\n     * @param requestId Oracle request ID\r\n     * @param evidenceCID IPFS CID of death certificate\r\n     */\r\n    function confirmDeath(\r\n        address donorAddress,\r\n        uint256 requestId,\r\n        string memory evidenceCID\r\n    ) \r\n        external \r\n        onlyAuthorized \r\n    {\r\n        require(isDonorRegistered[donorAddress], \"Donor not registered\");\r\n        require(\r\n            donors[donorAddress].deathVerificationRequestId == requestId,\r\n            \"Invalid request ID\"\r\n        );\r\n        \r\n        donors[donorAddress].status = DonorStatus.Deceased;\r\n        donors[donorAddress].deathTimestamp = block.timestamp;\r\n        donors[donorAddress].deathEvidenceCID = evidenceCID;\r\n        \r\n        emit DeathConfirmed(donorAddress, requestId, evidenceCID, block.timestamp);\r\n        emit DonorStatusUpdated(donorAddress, DonorStatus.Deceased, block.timestamp);\r\n    }\r\n    \r\n    /**\r\n     * @dev Get donor information\r\n     */\r\n    function getDonorInfo(address donorAddress) \r\n        external \r\n        view \r\n        returns (\r\n            string memory name,\r\n            uint256 age,\r\n            string memory bloodType,\r\n            DonorStatus status,\r\n            string memory medicalHistoryHash,\r\n            DonationPreferences memory preferences\r\n        ) \r\n    {\r\n        require(isDonorRegistered[donorAddress], \"Donor not registered\");\r\n        \r\n        DonorInfo memory donor = donors[donorAddress];\r\n        return (\r\n            donor.name,\r\n            donor.age,\r\n            donor.bloodType,\r\n            donor.status,\r\n            donor.medicalHistoryHash,\r\n            donor.preferences\r\n        );\r\n    }\r\n    \r\n    /**\r\n     * @dev NEW: Get donor death information\r\n     */\r\n    function getDonorDeathInfo(address donorAddress)\r\n        external\r\n        view\r\n        returns (\r\n            uint256 deathVerificationRequestId,\r\n            uint256 deathTimestamp,\r\n            string memory deathEvidenceCID\r\n        )\r\n    {\r\n        require(isDonorRegistered[donorAddress], \"Donor not registered\");\r\n        \r\n        DonorInfo memory donor = donors[donorAddress];\r\n        return (\r\n            donor.deathVerificationRequestId,\r\n            donor.deathTimestamp,\r\n            donor.deathEvidenceCID\r\n        );\r\n    }\r\n    \r\n    /**\r\n     * @dev Check if donor is active\r\n     */\r\n    function isDonorActive(address donorAddress) external view returns (bool) {\r\n        return isDonorRegistered[donorAddress] && \r\n               donors[donorAddress].status == DonorStatus.Active;\r\n    }\r\n    \r\n    /**\r\n     * @dev Get total number of donors\r\n     */\r\n    function getTotalDonors() external view returns (uint256) {\r\n        return donorList.length;\r\n    }\r\n    \r\n    /**\r\n     * @dev Get all donors\r\n     */\r\n    function getAllDonors() external view returns (address[] memory) {\r\n        return donorList;\r\n    }\r\n    \r\n    /**\r\n     * @dev NEW: Get all deceased donors\r\n     */\r\n    function getDeceasedDonors() external view returns (address[] memory) {\r\n        uint256 deceasedCount = 0;\r\n        \r\n        // Count deceased donors\r\n        for (uint256 i = 0; i < donorList.length; i++) {\r\n            if (donors[donorList[i]].status == DonorStatus.Deceased) {\r\n                deceasedCount++;\r\n            }\r\n        }\r\n        \r\n        // Create array of deceased donors\r\n        address[] memory deceasedDonors = new address[](deceasedCount);\r\n        uint256 index = 0;\r\n        \r\n        for (uint256 i = 0; i < donorList.length; i++) {\r\n            if (donors[donorList[i]].status == DonorStatus.Deceased) {\r\n                deceasedDonors[index] = donorList[i];\r\n                index++;\r\n            }\r\n        }\r\n        \r\n        return deceasedDonors;\r\n    }\r\n}",
  "sourcePath": "D:\\Summers\\Final year Project\\OrganDonationSystem\\contracts\\Donor.sol",
  "compiler": {
    "name": "solc",
    "version": "0.8.20+commit.a1b79de6.Linux.g++"
  },
  "schemaVersion": "3.4.16",
  "updatedAt": "2025-11-03T20:11:49.223Z",
  "networkType": "ethereum",
  "devdoc": {
    "details": "Smart contract for managing organ donors with Oracle integration",
    "kind": "dev",
    "methods": {
      "confirmDeath(address,uint256,string)": {
        "details": "NEW: Confirm donor death (called by Oracle or authorized contract)",
        "params": {
          "donorAddress": "Address of the donor",
          "evidenceCID": "IPFS CID of death certificate",
          "requestId": "Oracle request ID"
        }
      },
      "deactivateDonor(address)": {
        "details": "Deactivate a donor"
      },
      "getAllDonors()": {
        "details": "Get all donors"
      },
      "getDeceasedDonors()": {
        "details": "NEW: Get all deceased donors"
      },
      "getDonorDeathInfo(address)": {
        "details": "NEW: Get donor death information"
      },
      "getDonorInfo(address)": {
        "details": "Get donor information"
      },
      "getTotalDonors()": {
        "details": "Get total number of donors"
      },
      "isDonorActive(address)": {
        "details": "Check if donor is active"
      },
      "registerDonor(address,string,uint256,string,string,(bool,bool,bool))": {
        "details": "Register a new donor"
      },
      "requestDeathVerification(address)": {
        "details": "NEW: Request death verification from Oracle",
        "params": {
          "donorAddress": "Address of the donor"
        }
      },
      "setAuthorizedContract(address,bool)": {
        "details": "Authorize a contract to update donor status",
        "params": {
          "authorized": "True to authorize, false to revoke",
          "contractAddress": "Address of the contract"
        }
      },
      "setOracleContract(address)": {
        "details": "Set the oracle contract address",
        "params": {
          "_oracleContract": "Address of the OrganOracle contract"
        }
      },
      "updateDonorStatus(address,uint8)": {
        "details": "Update donor status"
      }
    },
    "title": "Donor",
    "version": 1
  },
  "userdoc": {
    "kind": "user",
    "methods": {},
    "version": 1
  }
}