{
  "contractName": "OrganOracle",
  "abi": [
    {
      "inputs": [],
      "stateMutability": "nonpayable",
      "type": "constructor"
    },
    {
      "anonymous": false,
      "inputs": [
        {
          "indexed": true,
          "internalType": "address",
          "name": "donorAddress",
          "type": "address"
        },
        {
          "indexed": true,
          "internalType": "uint256",
          "name": "requestId",
          "type": "uint256"
        },
        {
          "indexed": false,
          "internalType": "uint256",
          "name": "timestamp",
          "type": "uint256"
        }
      ],
      "name": "EmergencyDeathVerification",
      "type": "event"
    },
    {
      "anonymous": false,
      "inputs": [
        {
          "indexed": true,
          "internalType": "address",
          "name": "oracle",
          "type": "address"
        },
        {
          "indexed": false,
          "internalType": "bool",
          "name": "authorized",
          "type": "bool"
        }
      ],
      "name": "OracleAuthorized",
      "type": "event"
    },
    {
      "anonymous": false,
      "inputs": [
        {
          "indexed": true,
          "internalType": "uint256",
          "name": "requestId",
          "type": "uint256"
        },
        {
          "indexed": true,
          "internalType": "address",
          "name": "donorAddress",
          "type": "address"
        },
        {
          "indexed": true,
          "internalType": "address",
          "name": "requester",
          "type": "address"
        },
        {
          "indexed": false,
          "internalType": "uint256",
          "name": "timestamp",
          "type": "uint256"
        }
      ],
      "name": "OracleRequest",
      "type": "event"
    },
    {
      "anonymous": false,
      "inputs": [
        {
          "indexed": true,
          "internalType": "uint256",
          "name": "requestId",
          "type": "uint256"
        },
        {
          "indexed": true,
          "internalType": "address",
          "name": "donorAddress",
          "type": "address"
        },
        {
          "indexed": false,
          "internalType": "bool",
          "name": "isDeceased",
          "type": "bool"
        },
        {
          "indexed": false,
          "internalType": "string",
          "name": "evidenceCID",
          "type": "string"
        },
        {
          "indexed": false,
          "internalType": "address",
          "name": "fulfilledBy",
          "type": "address"
        },
        {
          "indexed": false,
          "internalType": "uint256",
          "name": "timestamp",
          "type": "uint256"
        }
      ],
      "name": "OracleResponse",
      "type": "event"
    },
    {
      "inputs": [
        {
          "internalType": "address",
          "name": "",
          "type": "address"
        }
      ],
      "name": "authorizedOracles",
      "outputs": [
        {
          "internalType": "bool",
          "name": "",
          "type": "bool"
        }
      ],
      "stateMutability": "view",
      "type": "function",
      "constant": true
    },
    {
      "inputs": [
        {
          "internalType": "address",
          "name": "",
          "type": "address"
        }
      ],
      "name": "donorLatestRequest",
      "outputs": [
        {
          "internalType": "uint256",
          "name": "",
          "type": "uint256"
        }
      ],
      "stateMutability": "view",
      "type": "function",
      "constant": true
    },
    {
      "inputs": [],
      "name": "owner",
      "outputs": [
        {
          "internalType": "address",
          "name": "",
          "type": "address"
        }
      ],
      "stateMutability": "view",
      "type": "function",
      "constant": true
    },
    {
      "inputs": [
        {
          "internalType": "uint256",
          "name": "",
          "type": "uint256"
        }
      ],
      "name": "requests",
      "outputs": [
        {
          "internalType": "uint256",
          "name": "requestId",
          "type": "uint256"
        },
        {
          "internalType": "address",
          "name": "donorAddress",
          "type": "address"
        },
        {
          "internalType": "address",
          "name": "requester",
          "type": "address"
        },
        {
          "internalType": "uint256",
          "name": "timestamp",
          "type": "uint256"
        },
        {
          "internalType": "bool",
          "name": "fulfilled",
          "type": "bool"
        },
        {
          "internalType": "bool",
          "name": "isDeceased",
          "type": "bool"
        },
        {
          "internalType": "string",
          "name": "evidenceCID",
          "type": "string"
        },
        {
          "internalType": "uint256",
          "name": "fulfilledTimestamp",
          "type": "uint256"
        },
        {
          "internalType": "address",
          "name": "fulfilledBy",
          "type": "address"
        }
      ],
      "stateMutability": "view",
      "type": "function",
      "constant": true
    },
    {
      "inputs": [
        {
          "internalType": "bytes32",
          "name": "",
          "type": "bytes32"
        }
      ],
      "name": "usedSignatures",
      "outputs": [
        {
          "internalType": "bool",
          "name": "",
          "type": "bool"
        }
      ],
      "stateMutability": "view",
      "type": "function",
      "constant": true
    },
    {
      "inputs": [
        {
          "internalType": "address",
          "name": "oracleAddress",
          "type": "address"
        },
        {
          "internalType": "bool",
          "name": "authorized",
          "type": "bool"
        }
      ],
      "name": "setOracleAuthorization",
      "outputs": [],
      "stateMutability": "nonpayable",
      "type": "function"
    },
    {
      "inputs": [
        {
          "internalType": "address",
          "name": "donorAddress",
          "type": "address"
        }
      ],
      "name": "requestDeathVerification",
      "outputs": [
        {
          "internalType": "uint256",
          "name": "",
          "type": "uint256"
        }
      ],
      "stateMutability": "nonpayable",
      "type": "function"
    },
    {
      "inputs": [
        {
          "internalType": "uint256",
          "name": "requestId",
          "type": "uint256"
        },
        {
          "internalType": "bool",
          "name": "isDeceased",
          "type": "bool"
        },
        {
          "internalType": "string",
          "name": "evidenceCID",
          "type": "string"
        }
      ],
      "name": "fulfillDeathVerification",
      "outputs": [],
      "stateMutability": "nonpayable",
      "type": "function"
    },
    {
      "inputs": [
        {
          "internalType": "uint256",
          "name": "requestId",
          "type": "uint256"
        },
        {
          "internalType": "bool",
          "name": "isDeceased",
          "type": "bool"
        },
        {
          "internalType": "string",
          "name": "evidenceCID",
          "type": "string"
        },
        {
          "internalType": "bytes",
          "name": "signature",
          "type": "bytes"
        }
      ],
      "name": "fulfillWithSignature",
      "outputs": [],
      "stateMutability": "nonpayable",
      "type": "function"
    },
    {
      "inputs": [
        {
          "internalType": "address",
          "name": "donorAddress",
          "type": "address"
        }
      ],
      "name": "getDeathVerification",
      "outputs": [
        {
          "internalType": "bool",
          "name": "isVerified",
          "type": "bool"
        },
        {
          "internalType": "bool",
          "name": "isDeceased",
          "type": "bool"
        },
        {
          "internalType": "string",
          "name": "evidenceCID",
          "type": "string"
        }
      ],
      "stateMutability": "view",
      "type": "function",
      "constant": true
    },
    {
      "inputs": [
        {
          "internalType": "uint256",
          "name": "requestId",
          "type": "uint256"
        }
      ],
      "name": "getRequest",
      "outputs": [
        {
          "components": [
            {
              "internalType": "uint256",
              "name": "requestId",
              "type": "uint256"
            },
            {
              "internalType": "address",
              "name": "donorAddress",
              "type": "address"
            },
            {
              "internalType": "address",
              "name": "requester",
              "type": "address"
            },
            {
              "internalType": "uint256",
              "name": "timestamp",
              "type": "uint256"
            },
            {
              "internalType": "bool",
              "name": "fulfilled",
              "type": "bool"
            },
            {
              "internalType": "bool",
              "name": "isDeceased",
              "type": "bool"
            },
            {
              "internalType": "string",
              "name": "evidenceCID",
              "type": "string"
            },
            {
              "internalType": "uint256",
              "name": "fulfilledTimestamp",
              "type": "uint256"
            },
            {
              "internalType": "address",
              "name": "fulfilledBy",
              "type": "address"
            }
          ],
          "internalType": "struct OrganOracle.DeathVerificationRequest",
          "name": "",
          "type": "tuple"
        }
      ],
      "stateMutability": "view",
      "type": "function",
      "constant": true
    },
    {
      "inputs": [],
      "name": "getPendingRequests",
      "outputs": [
        {
          "internalType": "uint256[]",
          "name": "",
          "type": "uint256[]"
        }
      ],
      "stateMutability": "view",
      "type": "function",
      "constant": true
    },
    {
      "inputs": [
        {
          "internalType": "address",
          "name": "newOwner",
          "type": "address"
        }
      ],
      "name": "transferOwnership",
      "outputs": [],
      "stateMutability": "nonpayable",
      "type": "function"
    }
  ],
  "bytecode": "0x608060405234801561001057600080fd5b50600080546001600160a01b0319163390811782556001600281905590825260208190526040909120805460ff1916909117905561179b806100536000396000f3fe608060405234801561001057600080fd5b50600436106100cf5760003560e01c8063c58343ef1161008c578063e81df7ed11610066578063e81df7ed14610203578063f2fde38b14610223578063f978fd6114610236578063feda49271461025957600080fd5b8063c58343ef146101af578063d5c1a1e1146101cf578063dc28e702146101e257600080fd5b80634b81eb55146100d4578063518b539e146100ff57806361c992a31461011457806380a1f7121461014757806381d12c581461015c5780638da5cb5b14610184575b600080fd5b6100e76100e2366004611127565b61026c565b6040516100f693929190611199565b60405180910390f35b61011261010d366004611281565b6103f3565b005b610137610122366004611127565b60016020526000908152604090205460ff1681565b60405190151581526020016100f6565b61014f6105fe565b6040516100f691906112d8565b61016f61016a36600461131c565b6106ff565b6040516100f699989796959493929190611335565b600054610197906001600160a01b031681565b6040516001600160a01b0390911681526020016100f6565b6101c26101bd36600461131c565b6107f1565b6040516100f691906113a1565b6101126101dd36600461144f565b610964565b6101f56101f0366004611127565b610a3c565b6040519081526020016100f6565b6101f5610211366004611127565b60046020526000908152604090205481565b610112610231366004611127565b610c0d565b61013761024436600461131c565b60056020526000908152604090205460ff1681565b610112610267366004611482565b610cbc565b6001600160a01b03811660009081526004602052604081205481906060908083036102ad5750506040805160208101909152600080825292508291506103ec565b60008181526003602081815260408084208151610120810183528154815260018201546001600160a01b0390811694820194909452600282015490931691830191909152918201546060820152600482015460ff8082161515608084015261010090910416151560a082015260058201805491929160c08401919061033190611514565b80601f016020809104026020016040519081016040528092919081815260200182805461035d90611514565b80156103aa5780601f1061037f576101008083540402835291602001916103aa565b820191906000526020600020905b81548152906001019060200180831161038d57829003601f168201915b5050509183525050600682015460208201526007909101546001600160a01b0316604090910152608081015160a082015160c090920151909650909450925050505b9193909250565b3360009081526001602052604090205460ff166104525760405162461bcd60e51b81526020600482015260186024820152774e6f7420616e20617574686f72697a6564206f7261636c6560401b60448201526064015b60405180910390fd5b60008381526003602052604081205490036104a85760405162461bcd60e51b815260206004820152601660248201527514995c5d595cdd08191bd95cc81b9bdd08195e1a5cdd60521b6044820152606401610449565b60008381526003602052604090206004015460ff16156105065760405162461bcd60e51b815260206004820152601960248201527814995c5d595cdd08185b1c9958591e48199d5b199a5b1b1959603a1b6044820152606401610449565b60008381526003602052604090206004810180548415156101000261ffff199091161760011790556005810161053c838261159d565b5042600682018190556007820180546001600160a01b0319163390811790915560018301546040516001600160a01b03919091169287927fba42431975f7f426ab6062618d862a77e54abe78628f9e2c7078da625d0c3caa926105a5928992899290919061165d565b60405180910390a382156105f857600181015460405142815285916001600160a01b0316907fd6eac986bb09e91b3c2046144165d02d38f6436e26f12b6599b57934db1b4f749060200160405180910390a35b50505050565b6060600060015b6002548110156106485760008181526003602052604090206004015460ff16610636578161063281611694565b9250505b8061064081611694565b915050610605565b5060008167ffffffffffffffff811115610664576106646111d5565b60405190808252806020026020018201604052801561068d578160200160208202803683370190505b509050600060015b6002548110156106f65760008181526003602052604090206004015460ff166106e457808383815181106106cb576106cb6116bb565b6020908102919091010152816106e081611694565b9250505b806106ee81611694565b915050610695565b50909392505050565b600360208190526000918252604090912080546001820154600283015493830154600484015460058501805494966001600160a01b0394851696941694929360ff80841694610100909404169290919061075890611514565b80601f016020809104026020016040519081016040528092919081815260200182805461078490611514565b80156107d15780601f106107a6576101008083540402835291602001916107d1565b820191906000526020600020905b8154815290600101906020018083116107b457829003601f168201915b5050505060068301546007909301549192916001600160a01b0316905089565b604080516101208101825260008082526020820181905291810182905260608082018390526080820183905260a0820183905260c082015260e081018290526101008101919091526000828152600360208181526040928390208351610120810185528154815260018201546001600160a01b0390811693820193909352600282015490921693820193909352908201546060820152600482015460ff8082161515608084015261010090910416151560a082015260058201805491929160c0840191906108be90611514565b80601f01602080910402602001604051908101604052809291908181526020018280546108ea90611514565b80156109375780601f1061090c57610100808354040283529160200191610937565b820191906000526020600020905b81548152906001019060200180831161091a57829003601f168201915b5050509183525050600682015460208201526007909101546001600160a01b031660409091015292915050565b6000546001600160a01b0316331461098e5760405162461bcd60e51b8152600401610449906116d1565b6001600160a01b0382166109dd5760405162461bcd60e51b8152602060048201526016602482015275496e76616c6964206f7261636c65206164647265737360501b6044820152606401610449565b6001600160a01b038216600081815260016020908152604091829020805460ff191685151590811790915591519182527f82a8fb1e779ea45ad427cc612e47087f5386a567e49dce488185e40646fa48d5910160405180910390a25050565b60006001600160a01b038216610a8c5760405162461bcd60e51b8152602060048201526015602482015274496e76616c696420646f6e6f72206164647265737360581b6044820152606401610449565b6002805460009182610a9d83611694565b9091555060408051610120810182528281526001600160a01b03868116602080840191825233848601908152426060860190815260006080870181815260a0880182815289518087018b5283815260c08a0190815260e08a01849052610100808b018590528c85526003978890529a9093208951815596516001880180546001600160a01b0319908116928b16929092179055945160028801805490961698169790971790935590519284019290925551600483018054945161ffff1990951691151561ff001916919091179315159095029290921790935551929350916005820190610b8a908261159d565b5060e0820151600682015561010090910151600790910180546001600160a01b0319166001600160a01b039283161790558316600081815260046020908152604091829020849055905142815233929184917faa09698533c1c786b21a79eeb7371804083912b598b670a58ce827e34abba22a910160405180910390a492915050565b6000546001600160a01b03163314610c375760405162461bcd60e51b8152600401610449906116d1565b6001600160a01b038116610c815760405162461bcd60e51b815260206004820152601160248201527024b73b30b634b2103732bb9037bbb732b960791b6044820152606401610449565b600080546001600160a01b039092166001600160a01b031990921682178155908152600160208190526040909120805460ff19169091179055565b3360009081526001602052604090205460ff16610d165760405162461bcd60e51b81526020600482015260186024820152774e6f7420616e20617574686f72697a6564206f7261636c6560401b6044820152606401610449565b6000848152600360205260408120549003610d6c5760405162461bcd60e51b815260206004820152601660248201527514995c5d595cdd08191bd95cc81b9bdd08195e1a5cdd60521b6044820152606401610449565b60008481526003602052604090206004015460ff1615610dca5760405162461bcd60e51b815260206004820152601960248201527814995c5d595cdd08185b1c9958591e48199d5b199a5b1b1959603a1b6044820152606401610449565b60008484844630604051602001610de5959493929190611712565b60408051601f1981840301815291815281516020928301206000818152600590935291205490915060ff1615610e565760405162461bcd60e51b815260206004820152601660248201527514da59db985d1d5c9948185b1c9958591e481d5cd95960521b6044820152606401610449565b6000818152600560205260408120805460ff19166001179055610ec6826040517f19457468657265756d205369676e6564204d6573736167653a0a3332000000006020820152603c8101829052600090605c01604051602081830303815290604052805190602001209050919050565b905033610ed38285611018565b6001600160a01b031614610f1d5760405162461bcd60e51b8152602060048201526011602482015270496e76616c6964207369676e617475726560781b6044820152606401610449565b60008681526003602052604090206004810180548715156101000261ffff1990911617600117905560058101610f53868261159d565b5042600682018190556007820180546001600160a01b0319163390811790915560018301546040516001600160a01b0391909116928a927fba42431975f7f426ab6062618d862a77e54abe78628f9e2c7078da625d0c3caa92610fbc928c928c9290919061165d565b60405180910390a3851561100f57600181015460405142815288916001600160a01b0316907fd6eac986bb09e91b3c2046144165d02d38f6436e26f12b6599b57934db1b4f749060200160405180910390a35b50505050505050565b60008060008061102785611097565b6040805160008152602081018083528b905260ff8316918101919091526060810184905260808101839052929550909350915060019060a0016020604051602081039080840390855afa158015611082573d6000803e3d6000fd5b5050604051601f190151979650505050505050565b600080600083516041146110ed5760405162461bcd60e51b815260206004820152601860248201527f496e76616c6964207369676e6174757265206c656e67746800000000000000006044820152606401610449565b50505060208101516040820151606090920151909260009190911a90565b80356001600160a01b038116811461112257600080fd5b919050565b60006020828403121561113957600080fd5b6111428261110b565b9392505050565b60005b8381101561116457818101518382015260200161114c565b50506000910152565b60008151808452611185816020860160208601611149565b601f01601f19169290920160200192915050565b831515815282151560208201526060604082015260006111bc606083018461116d565b95945050505050565b8035801515811461112257600080fd5b634e487b7160e01b600052604160045260246000fd5b600067ffffffffffffffff80841115611206576112066111d5565b604051601f8501601f19908116603f0116810190828211818310171561122e5761122e6111d5565b8160405280935085815286868601111561124757600080fd5b858560208301376000602087830101525050509392505050565b600082601f83011261127257600080fd5b611142838335602085016111eb565b60008060006060848603121561129657600080fd5b833592506112a6602085016111c5565b9150604084013567ffffffffffffffff8111156112c257600080fd5b6112ce86828701611261565b9150509250925092565b6020808252825182820181905260009190848201906040850190845b81811015611310578351835292840192918401916001016112f4565b50909695505050505050565b60006020828403121561132e57600080fd5b5035919050565b8981526001600160a01b038981166020830152888116604083015260608201889052861515608083015285151560a083015261012060c083018190526000916113808483018861116d565b92508560e085015280851661010085015250509a9950505050505050505050565b6020815281516020820152600060208301516113c860408401826001600160a01b03169052565b5060408301516001600160a01b0381166060840152506060830151608083015260808301516113fb60a084018215159052565b5060a083015180151560c08401525060c08301516101208060e085015261142661014085018361116d565b60e086015161010086810191909152909501516001600160a01b03169301929092525090919050565b6000806040838503121561146257600080fd5b61146b8361110b565b9150611479602084016111c5565b90509250929050565b6000806000806080858703121561149857600080fd5b843593506114a8602086016111c5565b9250604085013567ffffffffffffffff808211156114c557600080fd5b6114d188838901611261565b935060608701359150808211156114e757600080fd5b508501601f810187136114f957600080fd5b611508878235602084016111eb565b91505092959194509250565b600181811c9082168061152857607f821691505b60208210810361154857634e487b7160e01b600052602260045260246000fd5b50919050565b601f82111561159857600081815260208120601f850160051c810160208610156115755750805b601f850160051c820191505b8181101561159457828155600101611581565b5050505b505050565b815167ffffffffffffffff8111156115b7576115b76111d5565b6115cb816115c58454611514565b8461154e565b602080601f83116001811461160057600084156115e85750858301515b600019600386901b1c1916600185901b178555611594565b600085815260208120601f198616915b8281101561162f57888601518255948401946001909101908401611610565b508582101561164d5787850151600019600388901b60f8161c191681555b5050505050600190811b01905550565b8415158152608060208201526000611678608083018661116d565b6001600160a01b03949094166040830152506060015292915050565b6000600182016116b457634e487b7160e01b600052601160045260246000fd5b5060010190565b634e487b7160e01b600052603260045260246000fd5b60208082526021908201527f4f6e6c79206f776e65722063616e2063616c6c20746869732066756e6374696f6040820152603760f91b606082015260800190565b85815284151560f81b602082015260008451611735816021850160208901611149565b602192019182019390935260609190911b6bffffffffffffffffffffffff1916604182015260550194935050505056fea26469706673582212200288a1f0f8f717fa02b30dd27469df971d729ec88a7bc26a8a5c1a361301fd6164736f6c63430008140033",
  "immutableReferences": {},
  "source": "// SPDX-License-Identifier: MIT\r\npragma solidity ^0.8.0;\r\n\r\n/**\r\n * @title OrganOracle\r\n * @dev Oracle contract for verifying donor death status from off-chain sources\r\n */\r\ncontract OrganOracle {\r\n    \r\n    // Owner of the contract\r\n    address public owner;\r\n    \r\n    // Authorized oracle operators who can fulfill requests\r\n    mapping(address => bool) public authorizedOracles;\r\n    \r\n    // Request ID counter\r\n    uint256 private requestIdCounter;\r\n    \r\n    // Death verification requests\r\n    struct DeathVerificationRequest {\r\n        uint256 requestId;\r\n        address donorAddress;\r\n        address requester;\r\n        uint256 timestamp;\r\n        bool fulfilled;\r\n        bool isDeceased;\r\n        string evidenceCID; // IPFS CID for death certificate or evidence\r\n        uint256 fulfilledTimestamp;\r\n        address fulfilledBy;\r\n    }\r\n    \r\n    // Mapping from request ID to request details\r\n    mapping(uint256 => DeathVerificationRequest) public requests;\r\n    \r\n    // Mapping from donor address to their latest request ID\r\n    mapping(address => uint256) public donorLatestRequest;\r\n    \r\n    // Mapping to prevent replay attacks\r\n    mapping(bytes32 => bool) public usedSignatures;\r\n    \r\n    // Events\r\n    event OracleRequest(\r\n        uint256 indexed requestId,\r\n        address indexed donorAddress,\r\n        address indexed requester,\r\n        uint256 timestamp\r\n    );\r\n    \r\n    event OracleResponse(\r\n        uint256 indexed requestId,\r\n        address indexed donorAddress,\r\n        bool isDeceased,\r\n        string evidenceCID,\r\n        address fulfilledBy,\r\n        uint256 timestamp\r\n    );\r\n    \r\n    event OracleAuthorized(address indexed oracle, bool authorized);\r\n    \r\n    event EmergencyDeathVerification(\r\n        address indexed donorAddress,\r\n        uint256 indexed requestId,\r\n        uint256 timestamp\r\n    );\r\n    \r\n    // Modifiers\r\n    modifier onlyOwner() {\r\n        require(msg.sender == owner, \"Only owner can call this function\");\r\n        _;\r\n    }\r\n    \r\n    modifier onlyAuthorizedOracle() {\r\n        require(authorizedOracles[msg.sender], \"Not an authorized oracle\");\r\n        _;\r\n    }\r\n    \r\n    constructor() {\r\n        owner = msg.sender;\r\n        requestIdCounter = 1;\r\n        // Owner is automatically an authorized oracle\r\n        authorizedOracles[owner] = true;\r\n    }\r\n    \r\n    /**\r\n     * @dev Authorize or deauthorize an oracle operator\r\n     * @param oracleAddress Address of the oracle operator\r\n     * @param authorized True to authorize, false to deauthorize\r\n     */\r\n    function setOracleAuthorization(address oracleAddress, bool authorized) \r\n        external \r\n        onlyOwner \r\n    {\r\n        require(oracleAddress != address(0), \"Invalid oracle address\");\r\n        authorizedOracles[oracleAddress] = authorized;\r\n        emit OracleAuthorized(oracleAddress, authorized);\r\n    }\r\n    \r\n    /**\r\n     * @dev Request death verification for a donor\r\n     * @param donorAddress Address of the donor to verify\r\n     * @return requestId The ID of the created request\r\n     */\r\n    function requestDeathVerification(address donorAddress) \r\n        external \r\n        returns (uint256) \r\n    {\r\n        require(donorAddress != address(0), \"Invalid donor address\");\r\n        \r\n        uint256 requestId = requestIdCounter++;\r\n        \r\n        requests[requestId] = DeathVerificationRequest({\r\n            requestId: requestId,\r\n            donorAddress: donorAddress,\r\n            requester: msg.sender,\r\n            timestamp: block.timestamp,\r\n            fulfilled: false,\r\n            isDeceased: false,\r\n            evidenceCID: \"\",\r\n            fulfilledTimestamp: 0,\r\n            fulfilledBy: address(0)\r\n        });\r\n        \r\n        donorLatestRequest[donorAddress] = requestId;\r\n        \r\n        emit OracleRequest(requestId, donorAddress, msg.sender, block.timestamp);\r\n        \r\n        return requestId;\r\n    }\r\n    \r\n    /**\r\n     * @dev Fulfill a death verification request (called by oracle)\r\n     * @param requestId ID of the request to fulfill\r\n     * @param isDeceased Whether the donor is deceased\r\n     * @param evidenceCID IPFS CID of the death certificate or evidence\r\n     */\r\n    function fulfillDeathVerification(\r\n        uint256 requestId,\r\n        bool isDeceased,\r\n        string memory evidenceCID\r\n    ) \r\n        external \r\n        onlyAuthorizedOracle \r\n    {\r\n        require(requests[requestId].requestId != 0, \"Request does not exist\");\r\n        require(!requests[requestId].fulfilled, \"Request already fulfilled\");\r\n        \r\n        DeathVerificationRequest storage request = requests[requestId];\r\n        request.fulfilled = true;\r\n        request.isDeceased = isDeceased;\r\n        request.evidenceCID = evidenceCID;\r\n        request.fulfilledTimestamp = block.timestamp;\r\n        request.fulfilledBy = msg.sender;\r\n        \r\n        emit OracleResponse(\r\n            requestId,\r\n            request.donorAddress,\r\n            isDeceased,\r\n            evidenceCID,\r\n            msg.sender,\r\n            block.timestamp\r\n        );\r\n        \r\n        // If deceased, emit emergency event for quick processing\r\n        if (isDeceased) {\r\n            emit EmergencyDeathVerification(\r\n                request.donorAddress,\r\n                requestId,\r\n                block.timestamp\r\n            );\r\n        }\r\n    }\r\n    \r\n    /**\r\n     * @dev Fulfill with signature verification (more secure)\r\n     * @param requestId ID of the request\r\n     * @param isDeceased Death status\r\n     * @param evidenceCID Evidence IPFS CID\r\n     * @param signature Signature from authorized oracle\r\n     */\r\n    function fulfillWithSignature(\r\n        uint256 requestId,\r\n        bool isDeceased,\r\n        string memory evidenceCID,\r\n        bytes memory signature\r\n    ) \r\n        external \r\n        onlyAuthorizedOracle \r\n    {\r\n        require(requests[requestId].requestId != 0, \"Request does not exist\");\r\n        require(!requests[requestId].fulfilled, \"Request already fulfilled\");\r\n        \r\n        // Create hash of the data\r\n        bytes32 messageHash = keccak256(abi.encodePacked(\r\n            requestId,\r\n            isDeceased,\r\n            evidenceCID,\r\n            block.chainid,\r\n            address(this)\r\n        ));\r\n        \r\n        // Check for replay attack\r\n        require(!usedSignatures[messageHash], \"Signature already used\");\r\n        usedSignatures[messageHash] = true;\r\n        \r\n        // Verify signature\r\n        bytes32 ethSignedHash = getEthSignedMessageHash(messageHash);\r\n        require(recoverSigner(ethSignedHash, signature) == msg.sender, \"Invalid signature\");\r\n        \r\n        // Fulfill the request\r\n        DeathVerificationRequest storage request = requests[requestId];\r\n        request.fulfilled = true;\r\n        request.isDeceased = isDeceased;\r\n        request.evidenceCID = evidenceCID;\r\n        request.fulfilledTimestamp = block.timestamp;\r\n        request.fulfilledBy = msg.sender;\r\n        \r\n        emit OracleResponse(\r\n            requestId,\r\n            request.donorAddress,\r\n            isDeceased,\r\n            evidenceCID,\r\n            msg.sender,\r\n            block.timestamp\r\n        );\r\n        \r\n        if (isDeceased) {\r\n            emit EmergencyDeathVerification(\r\n                request.donorAddress,\r\n                requestId,\r\n                block.timestamp\r\n            );\r\n        }\r\n    }\r\n    \r\n    /**\r\n     * @dev Get death verification status for a donor\r\n     * @param donorAddress Address of the donor\r\n     * @return isVerified Whether verification is complete\r\n     * @return isDeceased Whether the donor is deceased\r\n     * @return evidenceCID Evidence IPFS CID\r\n     */\r\n    function getDeathVerification(address donorAddress) \r\n        external \r\n        view \r\n        returns (bool isVerified, bool isDeceased, string memory evidenceCID) \r\n    {\r\n        uint256 latestRequestId = donorLatestRequest[donorAddress];\r\n        \r\n        if (latestRequestId == 0) {\r\n            return (false, false, \"\");\r\n        }\r\n        \r\n        DeathVerificationRequest memory request = requests[latestRequestId];\r\n        return (request.fulfilled, request.isDeceased, request.evidenceCID);\r\n    }\r\n    \r\n    /**\r\n     * @dev Get request details\r\n     * @param requestId ID of the request\r\n     * @return request The request details\r\n     */\r\n    function getRequest(uint256 requestId) \r\n        external \r\n        view \r\n        returns (DeathVerificationRequest memory) \r\n    {\r\n        return requests[requestId];\r\n    }\r\n    \r\n    /**\r\n     * @dev Get all pending requests\r\n     * @return pendingRequests Array of pending request IDs\r\n     */\r\n    function getPendingRequests() \r\n        external \r\n        view \r\n        returns (uint256[] memory) \r\n    {\r\n        // Count pending requests\r\n        uint256 pendingCount = 0;\r\n        for (uint256 i = 1; i < requestIdCounter; i++) {\r\n            if (!requests[i].fulfilled) {\r\n                pendingCount++;\r\n            }\r\n        }\r\n        \r\n        // Create array of pending request IDs\r\n        uint256[] memory pendingRequests = new uint256[](pendingCount);\r\n        uint256 index = 0;\r\n        for (uint256 i = 1; i < requestIdCounter; i++) {\r\n            if (!requests[i].fulfilled) {\r\n                pendingRequests[index] = i;\r\n                index++;\r\n            }\r\n        }\r\n        \r\n        return pendingRequests;\r\n    }\r\n    \r\n    // Signature helper functions\r\n    function getEthSignedMessageHash(bytes32 messageHash) \r\n        internal \r\n        pure \r\n        returns (bytes32) \r\n    {\r\n        return keccak256(abi.encodePacked(\"\\x19Ethereum Signed Message:\\n32\", messageHash));\r\n    }\r\n    \r\n    function recoverSigner(bytes32 ethSignedHash, bytes memory signature) \r\n        internal \r\n        pure \r\n        returns (address) \r\n    {\r\n        (bytes32 r, bytes32 s, uint8 v) = splitSignature(signature);\r\n        return ecrecover(ethSignedHash, v, r, s);\r\n    }\r\n    \r\n    function splitSignature(bytes memory sig) \r\n        internal \r\n        pure \r\n        returns (bytes32 r, bytes32 s, uint8 v) \r\n    {\r\n        require(sig.length == 65, \"Invalid signature length\");\r\n        \r\n        assembly {\r\n            r := mload(add(sig, 32))\r\n            s := mload(add(sig, 64))\r\n            v := byte(0, mload(add(sig, 96)))\r\n        }\r\n    }\r\n    \r\n    /**\r\n     * @dev Transfer ownership\r\n     * @param newOwner Address of the new owner\r\n     */\r\n    function transferOwnership(address newOwner) external onlyOwner {\r\n        require(newOwner != address(0), \"Invalid new owner\");\r\n        owner = newOwner;\r\n        authorizedOracles[newOwner] = true;\r\n    }\r\n}",
  "sourcePath": "D:\\Summers\\Final year Project\\OrganDonationSystem\\contracts\\Oracle.sol",
  "compiler": {
    "name": "solc",
    "version": "0.8.20+commit.a1b79de6.Linux.g++"
  },
  "schemaVersion": "3.4.16",
  "updatedAt": "2025-11-03T20:11:49.165Z",
  "networkType": "ethereum",
  "devdoc": {
    "details": "Oracle contract for verifying donor death status from off-chain sources",
    "kind": "dev",
    "methods": {
      "fulfillDeathVerification(uint256,bool,string)": {
        "details": "Fulfill a death verification request (called by oracle)",
        "params": {
          "evidenceCID": "IPFS CID of the death certificate or evidence",
          "isDeceased": "Whether the donor is deceased",
          "requestId": "ID of the request to fulfill"
        }
      },
      "fulfillWithSignature(uint256,bool,string,bytes)": {
        "details": "Fulfill with signature verification (more secure)",
        "params": {
          "evidenceCID": "Evidence IPFS CID",
          "isDeceased": "Death status",
          "requestId": "ID of the request",
          "signature": "Signature from authorized oracle"
        }
      },
      "getDeathVerification(address)": {
        "details": "Get death verification status for a donor",
        "params": {
          "donorAddress": "Address of the donor"
        },
        "returns": {
          "evidenceCID": "Evidence IPFS CID",
          "isDeceased": "Whether the donor is deceased",
          "isVerified": "Whether verification is complete"
        }
      },
      "getPendingRequests()": {
        "details": "Get all pending requests",
        "returns": {
          "_0": "pendingRequests Array of pending request IDs"
        }
      },
      "getRequest(uint256)": {
        "details": "Get request details",
        "params": {
          "requestId": "ID of the request"
        },
        "returns": {
          "_0": "request The request details"
        }
      },
      "requestDeathVerification(address)": {
        "details": "Request death verification for a donor",
        "params": {
          "donorAddress": "Address of the donor to verify"
        },
        "returns": {
          "_0": "requestId The ID of the created request"
        }
      },
      "setOracleAuthorization(address,bool)": {
        "details": "Authorize or deauthorize an oracle operator",
        "params": {
          "authorized": "True to authorize, false to deauthorize",
          "oracleAddress": "Address of the oracle operator"
        }
      },
      "transferOwnership(address)": {
        "details": "Transfer ownership",
        "params": {
          "newOwner": "Address of the new owner"
        }
      }
    },
    "title": "OrganOracle",
    "version": 1
  },
  "userdoc": {
    "kind": "user",
    "methods": {},
    "version": 1
  }
}