{
  "contractName": "OrganNFT",
  "abi": [
    {
      "inputs": [],
      "stateMutability": "nonpayable",
      "type": "constructor"
    },
    {
      "anonymous": false,
      "inputs": [
        {
          "indexed": true,
          "internalType": "address",
          "name": "owner",
          "type": "address"
        },
        {
          "indexed": true,
          "internalType": "address",
          "name": "approved",
          "type": "address"
        },
        {
          "indexed": true,
          "internalType": "uint256",
          "name": "tokenId",
          "type": "uint256"
        }
      ],
      "name": "Approval",
      "type": "event"
    },
    {
      "anonymous": false,
      "inputs": [
        {
          "indexed": true,
          "internalType": "address",
          "name": "owner",
          "type": "address"
        },
        {
          "indexed": true,
          "internalType": "address",
          "name": "operator",
          "type": "address"
        },
        {
          "indexed": false,
          "internalType": "bool",
          "name": "approved",
          "type": "bool"
        }
      ],
      "name": "ApprovalForAll",
      "type": "event"
    },
    {
      "anonymous": false,
      "inputs": [
        {
          "indexed": false,
          "internalType": "uint256",
          "name": "_fromTokenId",
          "type": "uint256"
        },
        {
          "indexed": false,
          "internalType": "uint256",
          "name": "_toTokenId",
          "type": "uint256"
        }
      ],
      "name": "BatchMetadataUpdate",
      "type": "event"
    },
    {
      "anonymous": false,
      "inputs": [
        {
          "indexed": true,
          "internalType": "uint256",
          "name": "tokenId",
          "type": "uint256"
        },
        {
          "indexed": false,
          "internalType": "bool",
          "name": "isEmergency",
          "type": "bool"
        }
      ],
      "name": "EmergencyStatusUpdated",
      "type": "event"
    },
    {
      "anonymous": false,
      "inputs": [
        {
          "indexed": false,
          "internalType": "uint256",
          "name": "_tokenId",
          "type": "uint256"
        }
      ],
      "name": "MetadataUpdate",
      "type": "event"
    },
    {
      "anonymous": false,
      "inputs": [
        {
          "indexed": true,
          "internalType": "uint256",
          "name": "tokenId",
          "type": "uint256"
        }
      ],
      "name": "OrganExpired",
      "type": "event"
    },
    {
      "anonymous": false,
      "inputs": [
        {
          "indexed": true,
          "internalType": "uint256",
          "name": "tokenId",
          "type": "uint256"
        },
        {
          "indexed": true,
          "internalType": "address",
          "name": "recipient",
          "type": "address"
        },
        {
          "indexed": true,
          "internalType": "address",
          "name": "hospital",
          "type": "address"
        }
      ],
      "name": "OrganMatched",
      "type": "event"
    },
    {
      "anonymous": false,
      "inputs": [
        {
          "indexed": true,
          "internalType": "uint256",
          "name": "tokenId",
          "type": "uint256"
        },
        {
          "indexed": true,
          "internalType": "address",
          "name": "donor",
          "type": "address"
        },
        {
          "indexed": false,
          "internalType": "enum OrganNFT.OrganType",
          "name": "organType",
          "type": "uint8"
        }
      ],
      "name": "OrganMinted",
      "type": "event"
    },
    {
      "anonymous": false,
      "inputs": [
        {
          "indexed": true,
          "internalType": "uint256",
          "name": "tokenId",
          "type": "uint256"
        },
        {
          "indexed": false,
          "internalType": "enum OrganNFT.OrganStatus",
          "name": "status",
          "type": "uint8"
        }
      ],
      "name": "OrganStatusUpdated",
      "type": "event"
    },
    {
      "anonymous": false,
      "inputs": [
        {
          "indexed": true,
          "internalType": "uint256",
          "name": "tokenId",
          "type": "uint256"
        },
        {
          "indexed": true,
          "internalType": "address",
          "name": "recipient",
          "type": "address"
        }
      ],
      "name": "OrganTransplanted",
      "type": "event"
    },
    {
      "anonymous": false,
      "inputs": [
        {
          "indexed": true,
          "internalType": "address",
          "name": "previousOwner",
          "type": "address"
        },
        {
          "indexed": true,
          "internalType": "address",
          "name": "newOwner",
          "type": "address"
        }
      ],
      "name": "OwnershipTransferred",
      "type": "event"
    },
    {
      "anonymous": false,
      "inputs": [
        {
          "indexed": true,
          "internalType": "address",
          "name": "from",
          "type": "address"
        },
        {
          "indexed": true,
          "internalType": "address",
          "name": "to",
          "type": "address"
        },
        {
          "indexed": true,
          "internalType": "uint256",
          "name": "tokenId",
          "type": "uint256"
        }
      ],
      "name": "Transfer",
      "type": "event"
    },
    {
      "inputs": [
        {
          "internalType": "address",
          "name": "to",
          "type": "address"
        },
        {
          "internalType": "uint256",
          "name": "tokenId",
          "type": "uint256"
        }
      ],
      "name": "approve",
      "outputs": [],
      "stateMutability": "nonpayable",
      "type": "function"
    },
    {
      "inputs": [
        {
          "internalType": "address",
          "name": "owner",
          "type": "address"
        }
      ],
      "name": "balanceOf",
      "outputs": [
        {
          "internalType": "uint256",
          "name": "",
          "type": "uint256"
        }
      ],
      "stateMutability": "view",
      "type": "function",
      "constant": true
    },
    {
      "inputs": [],
      "name": "donorContract",
      "outputs": [
        {
          "internalType": "address",
          "name": "",
          "type": "address"
        }
      ],
      "stateMutability": "view",
      "type": "function",
      "constant": true
    },
    {
      "inputs": [
        {
          "internalType": "address",
          "name": "",
          "type": "address"
        },
        {
          "internalType": "uint256",
          "name": "",
          "type": "uint256"
        }
      ],
      "name": "donorOrgans",
      "outputs": [
        {
          "internalType": "uint256",
          "name": "",
          "type": "uint256"
        }
      ],
      "stateMutability": "view",
      "type": "function",
      "constant": true
    },
    {
      "inputs": [
        {
          "internalType": "uint256",
          "name": "tokenId",
          "type": "uint256"
        }
      ],
      "name": "getApproved",
      "outputs": [
        {
          "internalType": "address",
          "name": "",
          "type": "address"
        }
      ],
      "stateMutability": "view",
      "type": "function",
      "constant": true
    },
    {
      "inputs": [],
      "name": "hospitalContract",
      "outputs": [
        {
          "internalType": "address",
          "name": "",
          "type": "address"
        }
      ],
      "stateMutability": "view",
      "type": "function",
      "constant": true
    },
    {
      "inputs": [
        {
          "internalType": "address",
          "name": "owner",
          "type": "address"
        },
        {
          "internalType": "address",
          "name": "operator",
          "type": "address"
        }
      ],
      "name": "isApprovedForAll",
      "outputs": [
        {
          "internalType": "bool",
          "name": "",
          "type": "bool"
        }
      ],
      "stateMutability": "view",
      "type": "function",
      "constant": true
    },
    {
      "inputs": [],
      "name": "name",
      "outputs": [
        {
          "internalType": "string",
          "name": "",
          "type": "string"
        }
      ],
      "stateMutability": "view",
      "type": "function",
      "constant": true
    },
    {
      "inputs": [
        {
          "internalType": "bytes32",
          "name": "",
          "type": "bytes32"
        }
      ],
      "name": "organHash",
      "outputs": [
        {
          "internalType": "uint256",
          "name": "",
          "type": "uint256"
        }
      ],
      "stateMutability": "view",
      "type": "function",
      "constant": true
    },
    {
      "inputs": [
        {
          "internalType": "uint256",
          "name": "",
          "type": "uint256"
        }
      ],
      "name": "organMetadata",
      "outputs": [
        {
          "internalType": "address",
          "name": "donorAddress",
          "type": "address"
        },
        {
          "internalType": "enum OrganNFT.OrganType",
          "name": "organType",
          "type": "uint8"
        },
        {
          "internalType": "string",
          "name": "bloodType",
          "type": "string"
        },
        {
          "internalType": "enum OrganNFT.OrganStatus",
          "name": "status",
          "type": "uint8"
        },
        {
          "internalType": "uint256",
          "name": "donationTimestamp",
          "type": "uint256"
        },
        {
          "internalType": "uint256",
          "name": "expiryTimestamp",
          "type": "uint256"
        },
        {
          "internalType": "address",
          "name": "assignedRecipient",
          "type": "address"
        },
        {
          "internalType": "address",
          "name": "assignedHospital",
          "type": "address"
        },
        {
          "internalType": "string",
          "name": "medicalDataHash",
          "type": "string"
        },
        {
          "internalType": "bool",
          "name": "isEmergency",
          "type": "bool"
        },
        {
          "internalType": "uint256",
          "name": "urgencyLevel",
          "type": "uint256"
        }
      ],
      "stateMutability": "view",
      "type": "function",
      "constant": true
    },
    {
      "inputs": [],
      "name": "owner",
      "outputs": [
        {
          "internalType": "address",
          "name": "",
          "type": "address"
        }
      ],
      "stateMutability": "view",
      "type": "function",
      "constant": true
    },
    {
      "inputs": [
        {
          "internalType": "uint256",
          "name": "tokenId",
          "type": "uint256"
        }
      ],
      "name": "ownerOf",
      "outputs": [
        {
          "internalType": "address",
          "name": "",
          "type": "address"
        }
      ],
      "stateMutability": "view",
      "type": "function",
      "constant": true
    },
    {
      "inputs": [
        {
          "internalType": "address",
          "name": "",
          "type": "address"
        },
        {
          "internalType": "uint256",
          "name": "",
          "type": "uint256"
        }
      ],
      "name": "recipientAssignedOrgans",
      "outputs": [
        {
          "internalType": "uint256",
          "name": "",
          "type": "uint256"
        }
      ],
      "stateMutability": "view",
      "type": "function",
      "constant": true
    },
    {
      "inputs": [],
      "name": "recipientContract",
      "outputs": [
        {
          "internalType": "address",
          "name": "",
          "type": "address"
        }
      ],
      "stateMutability": "view",
      "type": "function",
      "constant": true
    },
    {
      "inputs": [],
      "name": "renounceOwnership",
      "outputs": [],
      "stateMutability": "nonpayable",
      "type": "function"
    },
    {
      "inputs": [
        {
          "internalType": "address",
          "name": "from",
          "type": "address"
        },
        {
          "internalType": "address",
          "name": "to",
          "type": "address"
        },
        {
          "internalType": "uint256",
          "name": "tokenId",
          "type": "uint256"
        }
      ],
      "name": "safeTransferFrom",
      "outputs": [],
      "stateMutability": "nonpayable",
      "type": "function"
    },
    {
      "inputs": [
        {
          "internalType": "address",
          "name": "from",
          "type": "address"
        },
        {
          "internalType": "address",
          "name": "to",
          "type": "address"
        },
        {
          "internalType": "uint256",
          "name": "tokenId",
          "type": "uint256"
        },
        {
          "internalType": "bytes",
          "name": "data",
          "type": "bytes"
        }
      ],
      "name": "safeTransferFrom",
      "outputs": [],
      "stateMutability": "nonpayable",
      "type": "function"
    },
    {
      "inputs": [
        {
          "internalType": "address",
          "name": "operator",
          "type": "address"
        },
        {
          "internalType": "bool",
          "name": "approved",
          "type": "bool"
        }
      ],
      "name": "setApprovalForAll",
      "outputs": [],
      "stateMutability": "nonpayable",
      "type": "function"
    },
    {
      "inputs": [],
      "name": "symbol",
      "outputs": [
        {
          "internalType": "string",
          "name": "",
          "type": "string"
        }
      ],
      "stateMutability": "view",
      "type": "function",
      "constant": true
    },
    {
      "inputs": [
        {
          "internalType": "address",
          "name": "from",
          "type": "address"
        },
        {
          "internalType": "address",
          "name": "to",
          "type": "address"
        },
        {
          "internalType": "uint256",
          "name": "tokenId",
          "type": "uint256"
        }
      ],
      "name": "transferFrom",
      "outputs": [],
      "stateMutability": "nonpayable",
      "type": "function"
    },
    {
      "inputs": [
        {
          "internalType": "address",
          "name": "newOwner",
          "type": "address"
        }
      ],
      "name": "transferOwnership",
      "outputs": [],
      "stateMutability": "nonpayable",
      "type": "function"
    },
    {
      "inputs": [
        {
          "internalType": "address",
          "name": "_donorContract",
          "type": "address"
        },
        {
          "internalType": "address",
          "name": "_recipientContract",
          "type": "address"
        },
        {
          "internalType": "address",
          "name": "_hospitalContract",
          "type": "address"
        }
      ],
      "name": "setContractAddresses",
      "outputs": [],
      "stateMutability": "nonpayable",
      "type": "function"
    },
    {
      "inputs": [
        {
          "internalType": "address",
          "name": "donorAddress",
          "type": "address"
        },
        {
          "internalType": "enum OrganNFT.OrganType",
          "name": "organType",
          "type": "uint8"
        },
        {
          "internalType": "string",
          "name": "bloodType",
          "type": "string"
        },
        {
          "internalType": "string",
          "name": "medicalDataHash",
          "type": "string"
        },
        {
          "internalType": "string",
          "name": "uri",
          "type": "string"
        }
      ],
      "name": "mintOrganNFT",
      "outputs": [
        {
          "internalType": "uint256",
          "name": "",
          "type": "uint256"
        }
      ],
      "stateMutability": "nonpayable",
      "type": "function"
    },
    {
      "inputs": [
        {
          "internalType": "uint256",
          "name": "tokenId",
          "type": "uint256"
        },
        {
          "internalType": "address",
          "name": "recipient",
          "type": "address"
        },
        {
          "internalType": "address",
          "name": "hospital",
          "type": "address"
        }
      ],
      "name": "matchOrgan",
      "outputs": [],
      "stateMutability": "nonpayable",
      "type": "function"
    },
    {
      "inputs": [
        {
          "internalType": "uint256",
          "name": "tokenId",
          "type": "uint256"
        }
      ],
      "name": "markTransplanted",
      "outputs": [],
      "stateMutability": "nonpayable",
      "type": "function"
    },
    {
      "inputs": [
        {
          "internalType": "uint256",
          "name": "tokenId",
          "type": "uint256"
        }
      ],
      "name": "markExpired",
      "outputs": [],
      "stateMutability": "nonpayable",
      "type": "function"
    },
    {
      "inputs": [
        {
          "internalType": "uint256",
          "name": "tokenId",
          "type": "uint256"
        },
        {
          "internalType": "uint256",
          "name": "expiryTime",
          "type": "uint256"
        }
      ],
      "name": "setExpiryTimestamp",
      "outputs": [],
      "stateMutability": "nonpayable",
      "type": "function"
    },
    {
      "inputs": [
        {
          "internalType": "uint256",
          "name": "tokenId",
          "type": "uint256"
        },
        {
          "internalType": "bool",
          "name": "isEmergency",
          "type": "bool"
        },
        {
          "internalType": "uint256",
          "name": "urgencyLevel",
          "type": "uint256"
        }
      ],
      "name": "setEmergencyStatus",
      "outputs": [],
      "stateMutability": "nonpayable",
      "type": "function"
    },
    {
      "inputs": [
        {
          "internalType": "uint256",
          "name": "tokenId",
          "type": "uint256"
        },
        {
          "internalType": "enum OrganNFT.OrganStatus",
          "name": "newStatus",
          "type": "uint8"
        }
      ],
      "name": "updateOrganStatus",
      "outputs": [],
      "stateMutability": "nonpayable",
      "type": "function"
    },
    {
      "inputs": [
        {
          "internalType": "uint256",
          "name": "tokenId",
          "type": "uint256"
        }
      ],
      "name": "getOrganMetadata",
      "outputs": [
        {
          "components": [
            {
              "internalType": "address",
              "name": "donorAddress",
              "type": "address"
            },
            {
              "internalType": "enum OrganNFT.OrganType",
              "name": "organType",
              "type": "uint8"
            },
            {
              "internalType": "string",
              "name": "bloodType",
              "type": "string"
            },
            {
              "internalType": "enum OrganNFT.OrganStatus",
              "name": "status",
              "type": "uint8"
            },
            {
              "internalType": "uint256",
              "name": "donationTimestamp",
              "type": "uint256"
            },
            {
              "internalType": "uint256",
              "name": "expiryTimestamp",
              "type": "uint256"
            },
            {
              "internalType": "address",
              "name": "assignedRecipient",
              "type": "address"
            },
            {
              "internalType": "address",
              "name": "assignedHospital",
              "type": "address"
            },
            {
              "internalType": "string",
              "name": "medicalDataHash",
              "type": "string"
            },
            {
              "internalType": "bool",
              "name": "isEmergency",
              "type": "bool"
            },
            {
              "internalType": "uint256",
              "name": "urgencyLevel",
              "type": "uint256"
            }
          ],
          "internalType": "struct OrganNFT.OrganMetadata",
          "name": "",
          "type": "tuple"
        }
      ],
      "stateMutability": "view",
      "type": "function",
      "constant": true
    },
    {
      "inputs": [
        {
          "internalType": "address",
          "name": "donor",
          "type": "address"
        }
      ],
      "name": "getDonorOrgans",
      "outputs": [
        {
          "internalType": "uint256[]",
          "name": "",
          "type": "uint256[]"
        }
      ],
      "stateMutability": "view",
      "type": "function",
      "constant": true
    },
    {
      "inputs": [
        {
          "internalType": "address",
          "name": "recipient",
          "type": "address"
        }
      ],
      "name": "getRecipientOrgans",
      "outputs": [
        {
          "internalType": "uint256[]",
          "name": "",
          "type": "uint256[]"
        }
      ],
      "stateMutability": "view",
      "type": "function",
      "constant": true
    },
    {
      "inputs": [
        {
          "internalType": "address",
          "name": "donor",
          "type": "address"
        },
        {
          "internalType": "enum OrganNFT.OrganType",
          "name": "organType",
          "type": "uint8"
        }
      ],
      "name": "getOrganByDonorAndType",
      "outputs": [
        {
          "internalType": "uint256",
          "name": "",
          "type": "uint256"
        }
      ],
      "stateMutability": "view",
      "type": "function",
      "constant": true
    },
    {
      "inputs": [
        {
          "internalType": "enum OrganNFT.OrganType",
          "name": "organType",
          "type": "uint8"
        },
        {
          "internalType": "string",
          "name": "bloodType",
          "type": "string"
        }
      ],
      "name": "getAvailableOrgans",
      "outputs": [
        {
          "internalType": "uint256[]",
          "name": "",
          "type": "uint256[]"
        }
      ],
      "stateMutability": "view",
      "type": "function",
      "constant": true
    },
    {
      "inputs": [],
      "name": "getTotalOrgans",
      "outputs": [
        {
          "internalType": "uint256",
          "name": "",
          "type": "uint256"
        }
      ],
      "stateMutability": "view",
      "type": "function",
      "constant": true
    },
    {
      "inputs": [
        {
          "internalType": "uint256",
          "name": "tokenId",
          "type": "uint256"
        }
      ],
      "name": "tokenURI",
      "outputs": [
        {
          "internalType": "string",
          "name": "",
          "type": "string"
        }
      ],
      "stateMutability": "view",
      "type": "function",
      "constant": true
    },
    {
      "inputs": [
        {
          "internalType": "bytes4",
          "name": "interfaceId",
          "type": "bytes4"
        }
      ],
      "name": "supportsInterface",
      "outputs": [
        {
          "internalType": "bool",
          "name": "",
          "type": "bool"
        }
      ],
      "stateMutability": "view",
      "type": "function",
      "constant": true
    },
    {
      "inputs": [
        {
          "internalType": "uint256",
          "name": "tokenId",
          "type": "uint256"
        },
        {
          "internalType": "address",
          "name": "to",
          "type": "address"
        }
      ],
      "name": "emergencyTransfer",
      "outputs": [],
      "stateMutability": "nonpayable",
      "type": "function"
    },
    {
      "inputs": [
        {
          "internalType": "uint256[]",
          "name": "tokenIds",
          "type": "uint256[]"
        },
        {
          "internalType": "enum OrganNFT.OrganStatus",
          "name": "newStatus",
          "type": "uint8"
        }
      ],
      "name": "batchUpdateStatus",
      "outputs": [],
      "stateMutability": "nonpayable",
      "type": "function"
    },
    {
      "inputs": [
        {
          "internalType": "uint256",
          "name": "tokenId",
          "type": "uint256"
        }
      ],
      "name": "exists",
      "outputs": [
        {
          "internalType": "bool",
          "name": "",
          "type": "bool"
        }
      ],
      "stateMutability": "view",
      "type": "function",
      "constant": true
    }
  ],
  "bytecode": "0x60806040523480156200001157600080fd5b506040518060400160405280601081526020016f13dc99d85b911bdb985d1a5bdb93919560821b8152506040518060400160405280600581526020016427a923a0a760d91b81525081600090816200006a919062000197565b50600162000079828262000197565b50505062000096620000906200009c60201b60201c565b620000a0565b62000263565b3390565b600780546001600160a01b038381166001600160a01b0319831681179093556040519116919082907f8be0079c531659141344cd1fd0a4f28419497f9722a3daafe3b4186f6b6457e090600090a35050565b634e487b7160e01b600052604160045260246000fd5b600181811c908216806200011d57607f821691505b6020821081036200013e57634e487b7160e01b600052602260045260246000fd5b50919050565b601f8211156200019257600081815260208120601f850160051c810160208610156200016d5750805b601f850160051c820191505b818110156200018e5782815560010162000179565b5050505b505050565b81516001600160401b03811115620001b357620001b3620000f2565b620001cb81620001c4845462000108565b8462000144565b602080601f831160018114620002035760008415620001ea5750858301515b600019600386901b1c1916600185901b1785556200018e565b600085815260208120601f198616915b82811015620002345788860151825594840194600190910190840162000213565b5085821015620002535787850151600019600388901b60f8161c191681555b5050505050600190811b01905550565b6136f580620002736000396000f3fe608060405234801561001057600080fd5b50600436106102485760003560e01c8063715018a61161013b578063a22cb465116100b8578063e26430aa1161007c578063e26430aa14610529578063e985e9c51461053c578063eccc9a8b14610578578063f2fde38b146105a2578063fa89d5db146105b557600080fd5b8063a22cb465146104ca578063b88d4fde146104dd578063c87b56dd146104f0578063d29fd6b214610503578063e1336d971461051657600080fd5b80638ab63380116100ff5780638ab63380146104785780638da5cb5b1461048b578063901b93661461049c57806395d89b41146104af578063987e893e146104b757600080fd5b8063715018a61461040a57806377fd00c5146104125780637d4dcbe21461042557806384386de814610445578063870a8a661461046557600080fd5b806342842e0e116101c9578063556199111161018d578063556199111461039e57806361748be1146103b15780636269dbbf146103c45780636352211e146103e457806370a08231146103f757600080fd5b806342842e0e1461033f57806342b2f3ec1461035257806347dbb71a146103655780634ddfc0e3146103785780634f558e791461038b57600080fd5b80630dd34fc4116102105780630dd34fc4146102dd57806311e1c24a146102f3578063126d59fc1461030657806323b872dd146103195780632de8d6021461032c57600080fd5b806301ffc9a71461024d57806306fdde0314610275578063081812fc1461028a578063095ea7b3146102b55780630a666e5a146102ca575b600080fd5b61026061025b366004612b5a565b6105c8565b60405190151581526020015b60405180910390f35b61027d6105d9565b60405161026c9190612bc7565b61029d610298366004612bda565b61066b565b6040516001600160a01b03909116815260200161026c565b6102c86102c3366004612c0f565b610692565b005b600e5461029d906001600160a01b031681565b6102e56107ac565b60405190815260200161026c565b600d5461029d906001600160a01b031681565b6102e5610314366004612c0f565b6107bc565b6102c8610327366004612c39565b6107ed565b6102c861033a366004612c84565b61081e565b6102c861034d366004612c39565b61091d565b6102e5610360366004612cbf565b610938565b600f5461029d906001600160a01b031681565b6102c8610386366004612d30565b61097b565b610260610399366004612bda565b610a70565b6102c86103ac366004612de8565b610a7b565b6102c86103bf366004612e1b565b610ac7565b6103d76103d2366004612e40565b610c0e565b60405161026c9190612e5b565b61029d6103f2366004612bda565b610c7a565b6102e5610405366004612e40565b610cda565b6102c8610d60565b6102c8610420366004612bda565b610d74565b610438610433366004612bda565b610eda565b60405161026c9190612ed9565b6102e5610453366004612bda565b600c6020526000908152604090205481565b6102c8610473366004612bda565b61116d565b6102c8610486366004612fcd565b6112c3565b6007546001600160a01b031661029d565b6103d76104aa366004613088565b61130a565b61027d6116d0565b6103d76104c5366004612e40565b6116df565b6102c86104d83660046130d6565b611749565b6102c86104eb366004613100565b611758565b61027d6104fe366004612bda565b61178a565b6102c861051136600461317c565b611795565b6102c86105243660046131a1565b611929565b6102e5610537366004612c0f565b6119ce565b61026061054a3660046131c3565b6001600160a01b03918216600090815260056020908152604080832093909416825291909152205460ff1690565b61058b610586366004612bda565b6119ea565b60405161026c9b9a999897969594939291906131ed565b6102c86105b0366004612e40565b611b79565b6102e56105c336600461327c565b611bf2565b60006105d382611f3c565b92915050565b6060600080546105e890613326565b80601f016020809104026020016040519081016040528092919081815260200182805461061490613326565b80156106615780601f1061063657610100808354040283529160200191610661565b820191906000526020600020905b81548152906001019060200180831161064457829003601f168201915b5050505050905090565b600061067682611f61565b506000908152600460205260409020546001600160a01b031690565b600061069d82610c7a565b9050806001600160a01b0316836001600160a01b03160361070f5760405162461bcd60e51b815260206004820152602160248201527f4552433732313a20617070726f76616c20746f2063757272656e74206f776e656044820152603960f91b60648201526084015b60405180910390fd5b336001600160a01b038216148061072b575061072b813361054a565b61079d5760405162461bcd60e51b815260206004820152603d60248201527f4552433732313a20617070726f76652063616c6c6572206973206e6f7420746f60448201527f6b656e206f776e6572206f7220617070726f76656420666f7220616c6c0000006064820152608401610706565b6107a78383611fb1565b505050565b60006107b760085490565b905090565b600a60205281600052604060002081815481106107d857600080fd5b90600052602060002001600091509150505481565b6107f7338261201f565b6108135760405162461bcd60e51b81526004016107069061335a565b6107a783838361209e565b6007546001600160a01b03163314806108415750600d546001600160a01b031633145b806108565750600e546001600160a01b031633145b8061086b5750600f546001600160a01b031633145b6108875760405162461bcd60e51b8152600401610706906133a7565b8161089181612202565b6108ad5760405162461bcd60e51b8152600401610706906133cf565b6000838152600960205260409020600201805483919060ff191660018360048111156108db576108db612e9f565b0217905550827f8a3aa03dbc8297bb0a8b32b2f66744380df39fc35ac344d6f72f6da7e727e60e8360405161091091906133fd565b60405180910390a2505050565b6107a783838360405180602001604052806000815250611758565b600080838360405160200161094e92919061340b565b60408051808303601f1901815291815281516020928301206000908152600c909252902054949350505050565b61098361221f565b60005b82518110156107a7576109b18382815181106109a4576109a4613446565b6020026020010151612202565b15610a5e5781600960008584815181106109cd576109cd613446565b6020026020010151815260200190815260200160002060020160006101000a81548160ff02191690836004811115610a0757610a07612e9f565b0217905550828181518110610a1e57610a1e613446565b60200260200101517f8a3aa03dbc8297bb0a8b32b2f66744380df39fc35ac344d6f72f6da7e727e60e83604051610a5591906133fd565b60405180910390a25b80610a688161345c565b915050610986565b60006105d382612202565b610a8361221f565b81610a8d81612202565b610aa95760405162461bcd60e51b8152600401610706906133cf565b6000610ab484610c7a565b9050610ac181848661209e565b50505050565b6007546001600160a01b0316331480610aea5750600d546001600160a01b031633145b80610aff5750600e546001600160a01b031633145b80610b145750600f546001600160a01b031633145b610b305760405162461bcd60e51b8152600401610706906133a7565b82610b3a81612202565b610b565760405162461bcd60e51b8152600401610706906133cf565b60018210158015610b685750600a8211155b610bac5760405162461bcd60e51b8152602060048201526015602482015274125b9d985b1a59081d5c99d95b98de481b195d995b605a1b6044820152606401610706565b60008481526009602081815260409283902060088101805460ff19168815159081179091559201859055915190815285917f37b24990b353962b6ac4245bf9550f505a037fc0d88ae4e3f8cf55fa7d1eb66b910160405180910390a250505050565b6001600160a01b0381166000908152600a6020908152604091829020805483518184028101840190945280845260609392830182828015610c6e57602002820191906000526020600020905b815481526020019060010190808311610c5a575b50505050509050919050565b6000818152600260205260408120546001600160a01b0316806105d35760405162461bcd60e51b8152602060048201526018602482015277115490cdcc8c4e881a5b9d985b1a59081d1bdad95b88125160421b6044820152606401610706565b60006001600160a01b038216610d445760405162461bcd60e51b815260206004820152602960248201527f4552433732313a2061646472657373207a65726f206973206e6f7420612076616044820152683634b21037bbb732b960b91b6064820152608401610706565b506001600160a01b031660009081526003602052604090205490565b610d6861221f565b610d726000612279565b565b6007546001600160a01b0316331480610d975750600d546001600160a01b031633145b80610dac5750600e546001600160a01b031633145b80610dc15750600f546001600160a01b031633145b610ddd5760405162461bcd60e51b8152600401610706906133a7565b80610de781612202565b610e035760405162461bcd60e51b8152600401610706906133cf565b600082815260096020526040812090600282015460ff166004811115610e2b57610e2b612e9f565b1480610e4f57506001600282015460ff166004811115610e4d57610e4d612e9f565b145b610e9b5760405162461bcd60e51b815260206004820181905260248201527f43616e6e6f7420657870697265207472616e73706c616e746564206f7267616e6044820152606401610706565b60028101805460ff1916600317905560405183907f3331329f13cf6f1200abf448d33f3028caeeedac50d603119ecc9cda9a9889c190600090a2505050565b610f3760408051610160810190915260008082526020820190815260606020820152604001600081526000602082018190526040820181905260608083018290526080830182905260a083015260c0820181905260e09091015290565b81610f4181612202565b610f5d5760405162461bcd60e51b8152600401610706906133cf565b6000838152600960209081526040918290208251610160810190935280546001600160a01b03811684529091830190600160a01b900460ff166002811115610fa757610fa7612e9f565b6002811115610fb857610fb8612e9f565b8152602001600182018054610fcc90613326565b80601f0160208091040260200160405190810160405280929190818152602001828054610ff890613326565b80156110455780601f1061101a57610100808354040283529160200191611045565b820191906000526020600020905b81548152906001019060200180831161102857829003601f168201915b5050509183525050600282015460209091019060ff16600481111561106c5761106c612e9f565b600481111561107d5761107d612e9f565b8152600382015460208201526004820154604082015260058201546001600160a01b039081166060830152600683015416608082015260078201805460a0909201916110c890613326565b80601f01602080910402602001604051908101604052809291908181526020018280546110f490613326565b80156111415780601f1061111657610100808354040283529160200191611141565b820191906000526020600020905b81548152906001019060200180831161112457829003601f168201915b5050509183525050600882015460ff161515602082015260099091015460409091015291505b50919050565b6007546001600160a01b03163314806111905750600d546001600160a01b031633145b806111a55750600e546001600160a01b031633145b806111ba5750600f546001600160a01b031633145b6111d65760405162461bcd60e51b8152600401610706906133a7565b806111e081612202565b6111fc5760405162461bcd60e51b8152600401610706906133cf565b60008281526009602052604090206001600282015460ff16600481111561122557611225612e9f565b146112725760405162461bcd60e51b815260206004820152601b60248201527f4f7267616e206d757374206265206d61746368656420666972737400000000006044820152606401610706565b6002818101805460ff1916909117905560058101546040516001600160a01b039091169084907ffd0ac0ae9d50f0f4c0d8c0d0aaa95064fac8b83336c32338be5ae0e0ae094bf090600090a3505050565b6112cb61221f565b600d80546001600160a01b039485166001600160a01b031991821617909155600e805493851693821693909317909255600f8054919093169116179055565b6060600061131760085490565b905060008167ffffffffffffffff81111561133457611334612ce9565b60405190808252806020026020018201604052801561135d578160200160208202803683370190505b5090506000805b838110156116295761137581612202565b156116175760008181526009602090815260408083208151610160810190925280546001600160a01b03811683529192909190830190600160a01b900460ff1660028111156113c6576113c6612e9f565b60028111156113d7576113d7612e9f565b81526020016001820180546113eb90613326565b80601f016020809104026020016040519081016040528092919081815260200182805461141790613326565b80156114645780601f1061143957610100808354040283529160200191611464565b820191906000526020600020905b81548152906001019060200180831161144757829003601f168201915b5050509183525050600282015460209091019060ff16600481111561148b5761148b612e9f565b600481111561149c5761149c612e9f565b8152600382015460208201526004820154604082015260058201546001600160a01b039081166060830152600683015416608082015260078201805460a0909201916114e790613326565b80601f016020809104026020016040519081016040528092919081815260200182805461151390613326565b80156115605780601f1061153557610100808354040283529160200191611560565b820191906000526020600020905b81548152906001019060200180831161154357829003601f168201915b5050509183525050600882015460ff1615156020820152600990910154604090910152905087600281111561159757611597612e9f565b816020015160028111156115ad576115ad612e9f565b1480156115cf57506000816060015160048111156115cd576115cd612e9f565b145b80156115e457506115e48160400151886122cb565b1561161557818484815181106115fc576115fc613446565b6020908102919091010152826116118161345c565b9350505b505b806116218161345c565b915050611364565b5060008167ffffffffffffffff81111561164557611645612ce9565b60405190808252806020026020018201604052801561166e578160200160208202803683370190505b50905060005b828110156116c55783818151811061168e5761168e613446565b60200260200101518282815181106116a8576116a8613446565b6020908102919091010152806116bd8161345c565b915050611674565b509695505050505050565b6060600180546105e890613326565b6001600160a01b0381166000908152600b6020908152604091829020805483518184028101840190945280845260609392830182828015610c6e5760200282019190600052602060002090815481526020019060010190808311610c5a5750505050509050919050565b611754338383612395565b5050565b611762338361201f565b61177e5760405162461bcd60e51b81526004016107069061335a565b610ac184848484612463565b60606105d382612496565b6007546001600160a01b03163314806117b85750600d546001600160a01b031633145b806117cd5750600e546001600160a01b031633145b806117e25750600f546001600160a01b031633145b6117fe5760405162461bcd60e51b8152600401610706906133a7565b8261180881612202565b6118245760405162461bcd60e51b8152600401610706906133cf565b600084815260096020526040812090600282015460ff16600481111561184c5761184c612e9f565b1461188f5760405162461bcd60e51b81526020600482015260136024820152724f7267616e206e6f7420617661696c61626c6560681b6044820152606401610706565b60028101805460ff191660019081179091556005820180546001600160a01b038781166001600160a01b031992831681179093556006850180549188169190921681179091556000828152600b602090815260408083208054968701815583529082209094018990559251909288917f18e23d642935e0c7ded77573d7b9b82932efc23be00dd79b472bf9b718fcfb7d9190a45050505050565b6007546001600160a01b031633148061194c5750600d546001600160a01b031633145b806119615750600e546001600160a01b031633145b806119765750600f546001600160a01b031633145b6119925760405162461bcd60e51b8152600401610706906133a7565b8161199c81612202565b6119b85760405162461bcd60e51b8152600401610706906133cf565b5060009182526009602052604090912060040155565b600b60205281600052604060002081815481106107d857600080fd5b600960205260009081526040902080546001820180546001600160a01b03831693600160a01b90930460ff16929190611a2290613326565b80601f0160208091040260200160405190810160405280929190818152602001828054611a4e90613326565b8015611a9b5780601f10611a7057610100808354040283529160200191611a9b565b820191906000526020600020905b815481529060010190602001808311611a7e57829003601f168201915b50505060028401546003850154600486015460058701546006880154600789018054989960ff909616989497509295506001600160a01b0391821694911692909190611ae690613326565b80601f0160208091040260200160405190810160405280929190818152602001828054611b1290613326565b8015611b5f5780601f10611b3457610100808354040283529160200191611b5f565b820191906000526020600020905b815481529060010190602001808311611b4257829003601f168201915b505050506008830154600990930154919260ff169190508b565b611b8161221f565b6001600160a01b038116611be65760405162461bcd60e51b815260206004820152602660248201527f4f776e61626c653a206e6577206f776e657220697320746865207a65726f206160448201526564647265737360d01b6064820152608401610706565b611bef81612279565b50565b6000611c066007546001600160a01b031690565b6001600160a01b0316336001600160a01b03161480611c2f5750600d546001600160a01b031633145b80611c445750600e546001600160a01b031633145b80611c595750600f546001600160a01b031633145b611c755760405162461bcd60e51b8152600401610706906133a7565b6000611c8060085490565b9050611c90600880546001019055565b60008787604051602001611ca592919061340b565b60408051601f1981840301815291815281516020928301206000818152600c90935291205490915015611d115760405162461bcd60e51b81526020600482015260146024820152734f7267616e20616c72656164792065786973747360601b6044820152606401610706565b611d1b888361259e565b611d2582856125b8565b604051806101600160405280896001600160a01b03168152602001886002811115611d5257611d52612e9f565b815260208101889052604001600081524260208083019190915260006040808401829052606084018290526080840182905260a084018a905260c08401829052600160e0909401939093528581526009825291909120825181546001600160a01b03919091166001600160a01b031982168117835592840151919283916001600160a81b03191617600160a01b836002811115611df157611df1612e9f565b021790555060408201516001820190611e0a90826134d1565b50606082015160028201805460ff19166001836004811115611e2e57611e2e612e9f565b02179055506080820151600382015560a0820151600482015560c08201516005820180546001600160a01b039283166001600160a01b03199182161790915560e08401516006840180549190931691161790556101008201516007820190611e9690826134d1565b5061012082015160088201805460ff1916911515919091179055610140909101516009909101556001600160a01b0388166000818152600a60209081526040808320805460018101825590845282842001869055848352600c909152908190208490555183907f47b5e4dc424bff6bc9df3858d5aa4d2d3b5ef76a6dd4d4ea7ae116d2d0f65e9990611f29908b90613591565b60405180910390a3509695505050505050565b60006001600160e01b03198216632483248360e11b14806105d357506105d382612674565b611f6a81612202565b611bef5760405162461bcd60e51b8152602060048201526018602482015277115490cdcc8c4e881a5b9d985b1a59081d1bdad95b88125160421b6044820152606401610706565b600081815260046020526040902080546001600160a01b0319166001600160a01b0384169081179091558190611fe682610c7a565b6001600160a01b03167f8c5be1e5ebec7d5bd14f71427d1e84f3dd0314c0f7b2291e5b200ac8c7c3b92560405160405180910390a45050565b60008061202b83610c7a565b9050806001600160a01b0316846001600160a01b0316148061207257506001600160a01b0380821660009081526005602090815260408083209388168352929052205460ff165b806120965750836001600160a01b031661208b8461066b565b6001600160a01b0316145b949350505050565b826001600160a01b03166120b182610c7a565b6001600160a01b0316146120d75760405162461bcd60e51b81526004016107069061359f565b6001600160a01b0382166121395760405162461bcd60e51b8152602060048201526024808201527f4552433732313a207472616e7366657220746f20746865207a65726f206164646044820152637265737360e01b6064820152608401610706565b826001600160a01b031661214c82610c7a565b6001600160a01b0316146121725760405162461bcd60e51b81526004016107069061359f565b600081815260046020908152604080832080546001600160a01b03199081169091556001600160a01b0387811680865260038552838620805460001901905590871680865283862080546001019055868652600290945282852080549092168417909155905184937fddf252ad1be2c89b69c2b068fc378daa952ba7f163c4a11628f55a4df523b3ef91a4505050565b6000908152600260205260409020546001600160a01b0316151590565b6007546001600160a01b03163314610d725760405162461bcd60e51b815260206004820181905260248201527f4f776e61626c653a2063616c6c6572206973206e6f7420746865206f776e65726044820152606401610706565b600780546001600160a01b038381166001600160a01b0319831681179093556040519116919082907f8be0079c531659141344cd1fd0a4f28419497f9722a3daafe3b4186f6b6457e090600090a35050565b81516020808401919091208251838301206040805180820190915260028152614f2d60f01b9301929092526000917f24ee4dfd51ea61da0c7e24c25c8c8d13195e7f61972e3f3ce41c702aef172bdd820161232b576001925050506105d3565b60408051808201909152600381526241422b60e81b6020909101527fe069aaba111c183a1fde677842e779bedeab6cff9e204992bbb1c54a2a1da06f8101612378576001925050506105d3565b80820361238a576001925050506105d3565b506000949350505050565b816001600160a01b0316836001600160a01b0316036123f65760405162461bcd60e51b815260206004820152601960248201527f4552433732313a20617070726f766520746f2063616c6c6572000000000000006044820152606401610706565b6001600160a01b03838116600081815260056020908152604080832094871680845294825291829020805460ff191686151590811790915591519182527f17307eab39ab6107e8899845ad3d59bd9653f200f220920489ca2b5937696c31910160405180910390a3505050565b61246e84848461209e565b61247a848484846126c4565b610ac15760405162461bcd60e51b8152600401610706906135e4565b60606124a182611f61565b600082815260066020526040812080546124ba90613326565b80601f01602080910402602001604051908101604052809291908181526020018280546124e690613326565b80156125335780601f1061250857610100808354040283529160200191612533565b820191906000526020600020905b81548152906001019060200180831161251657829003601f168201915b50505050509050600061255160408051602081019091526000815290565b90508051600003612563575092915050565b81511561259557808260405160200161257d929190613636565b60405160208183030381529060405292505050919050565b612096846127c5565b611754828260405180602001604052806000815250612839565b6125c182612202565b6126245760405162461bcd60e51b815260206004820152602e60248201527f45524337323155524953746f726167653a2055524920736574206f66206e6f6e60448201526d32bc34b9ba32b73a103a37b5b2b760911b6064820152608401610706565b600082815260066020526040902061263c82826134d1565b506040518281527ff8e1a15aba9398e019f0b49df1a4fde98ee17ae345cb5f6b5e2c27f5033e8ce79060200160405180910390a15050565b60006001600160e01b031982166380ac58cd60e01b14806126a557506001600160e01b03198216635b5e139f60e01b145b806105d357506301ffc9a760e01b6001600160e01b03198316146105d3565b60006001600160a01b0384163b156127ba57604051630a85bd0160e11b81526001600160a01b0385169063150b7a0290612708903390899088908890600401613665565b6020604051808303816000875af1925050508015612743575060408051601f3d908101601f19168201909252612740918101906136a2565b60015b6127a0573d808015612771576040519150601f19603f3d011682016040523d82523d6000602084013e612776565b606091505b5080516000036127985760405162461bcd60e51b8152600401610706906135e4565b805181602001fd5b6001600160e01b031916630a85bd0160e11b149050612096565b506001949350505050565b60606127d082611f61565b60006127e760408051602081019091526000815290565b905060008151116128075760405180602001604052806000815250612832565b806128118461286c565b604051602001612822929190613636565b6040516020818303038152906040525b9392505050565b61284383836128ff565b61285060008484846126c4565b6107a75760405162461bcd60e51b8152600401610706906135e4565b6060600061287983612a6c565b600101905060008167ffffffffffffffff81111561289957612899612ce9565b6040519080825280601f01601f1916602001820160405280156128c3576020820181803683370190505b5090508181016020015b600019016f181899199a1a9b1b9c1cb0b131b232b360811b600a86061a8153600a85049450846128cd57509392505050565b6001600160a01b0382166129555760405162461bcd60e51b815260206004820181905260248201527f4552433732313a206d696e7420746f20746865207a65726f20616464726573736044820152606401610706565b61295e81612202565b156129ab5760405162461bcd60e51b815260206004820152601c60248201527f4552433732313a20746f6b656e20616c7265616479206d696e746564000000006044820152606401610706565b6129b481612202565b15612a015760405162461bcd60e51b815260206004820152601c60248201527f4552433732313a20746f6b656e20616c7265616479206d696e746564000000006044820152606401610706565b6001600160a01b038216600081815260036020908152604080832080546001019055848352600290915280822080546001600160a01b0319168417905551839291907fddf252ad1be2c89b69c2b068fc378daa952ba7f163c4a11628f55a4df523b3ef908290a45050565b60008072184f03e93ff9f4daa797ed6e38ed64bf6a1f0160401b8310612aab5772184f03e93ff9f4daa797ed6e38ed64bf6a1f0160401b830492506040015b6d04ee2d6d415b85acef81000000008310612ad7576d04ee2d6d415b85acef8100000000830492506020015b662386f26fc100008310612af557662386f26fc10000830492506010015b6305f5e1008310612b0d576305f5e100830492506008015b6127108310612b2157612710830492506004015b60648310612b33576064830492506002015b600a83106105d35760010192915050565b6001600160e01b031981168114611bef57600080fd5b600060208284031215612b6c57600080fd5b813561283281612b44565b60005b83811015612b92578181015183820152602001612b7a565b50506000910152565b60008151808452612bb3816020860160208601612b77565b601f01601f19169290920160200192915050565b6020815260006128326020830184612b9b565b600060208284031215612bec57600080fd5b5035919050565b80356001600160a01b0381168114612c0a57600080fd5b919050565b60008060408385031215612c2257600080fd5b612c2b83612bf3565b946020939093013593505050565b600080600060608486031215612c4e57600080fd5b612c5784612bf3565b9250612c6560208501612bf3565b9150604084013590509250925092565b803560058110612c0a57600080fd5b60008060408385031215612c9757600080fd5b82359150612ca760208401612c75565b90509250929050565b803560038110612c0a57600080fd5b60008060408385031215612cd257600080fd5b612cdb83612bf3565b9150612ca760208401612cb0565b634e487b7160e01b600052604160045260246000fd5b604051601f8201601f1916810167ffffffffffffffff81118282101715612d2857612d28612ce9565b604052919050565b60008060408385031215612d4357600080fd5b823567ffffffffffffffff80821115612d5b57600080fd5b818501915085601f830112612d6f57600080fd5b8135602082821115612d8357612d83612ce9565b8160051b9250612d94818401612cff565b8281529284018101928181019089851115612dae57600080fd5b948201945b84861015612dcc57853582529482019490820190612db3565b9650612ddb9050878201612c75565b9450505050509250929050565b60008060408385031215612dfb57600080fd5b82359150612ca760208401612bf3565b80358015158114612c0a57600080fd5b600080600060608486031215612e3057600080fd5b83359250612c6560208501612e0b565b600060208284031215612e5257600080fd5b61283282612bf3565b6020808252825182820181905260009190848201906040850190845b81811015612e9357835183529284019291840191600101612e77565b50909695505050505050565b634e487b7160e01b600052602160045260246000fd5b60038110612ec557612ec5612e9f565b9052565b60058110612ec557612ec5612e9f565b60208152612ef36020820183516001600160a01b03169052565b60006020830151612f076040840182612eb5565b506040830151610160806060850152612f24610180850183612b9b565b91506060850151612f386080860182612ec9565b50608085015160a085015260a085015160c085015260c0850151612f6760e08601826001600160a01b03169052565b5060e0850151610100612f84818701836001600160a01b03169052565b80870151915050610120601f198685030181870152612fa38483612b9b565b935080870151915050610140612fbc8187018315159052565b959095015193019290925250919050565b600080600060608486031215612fe257600080fd5b612feb84612bf3565b9250612ff960208501612bf3565b915061300760408501612bf3565b90509250925092565b600067ffffffffffffffff83111561302a5761302a612ce9565b61303d601f8401601f1916602001612cff565b905082815283838301111561305157600080fd5b828260208301376000602084830101529392505050565b600082601f83011261307957600080fd5b61283283833560208501613010565b6000806040838503121561309b57600080fd5b6130a483612cb0565b9150602083013567ffffffffffffffff8111156130c057600080fd5b6130cc85828601613068565b9150509250929050565b600080604083850312156130e957600080fd5b6130f283612bf3565b9150612ca760208401612e0b565b6000806000806080858703121561311657600080fd5b61311f85612bf3565b935061312d60208601612bf3565b925060408501359150606085013567ffffffffffffffff81111561315057600080fd5b8501601f8101871361316157600080fd5b61317087823560208401613010565b91505092959194509250565b60008060006060848603121561319157600080fd5b83359250612ff960208501612bf3565b600080604083850312156131b457600080fd5b50508035926020909101359150565b600080604083850312156131d657600080fd5b6131df83612bf3565b9150612ca760208401612bf3565b6001600160a01b038c811682526000906101609061320e602085018f612eb5565b8160408501526132208285018e612b9b565b915061322f606085018d612ec9565b8a60808501528960a085015280891660c085015280881660e08501525082810361010084015261325f8187612b9b565b941515610120840152505061014001529998505050505050505050565b600080600080600060a0868803121561329457600080fd5b61329d86612bf3565b94506132ab60208701612cb0565b9350604086013567ffffffffffffffff808211156132c857600080fd5b6132d489838a01613068565b945060608801359150808211156132ea57600080fd5b6132f689838a01613068565b9350608088013591508082111561330c57600080fd5b5061331988828901613068565b9150509295509295909350565b600181811c9082168061333a57607f821691505b60208210810361116757634e487b7160e01b600052602260045260246000fd5b6020808252602d908201527f4552433732313a2063616c6c6572206973206e6f7420746f6b656e206f776e6560408201526c1c881bdc88185c1c1c9bdd9959609a1b606082015260800190565b6020808252600e908201526d139bdd08185d5d1a1bdc9a5e995960921b604082015260600190565b602080825260149082015273151bdad95b88191bd95cc81b9bdd08195e1a5cdd60621b604082015260600190565b602081016105d38284612ec9565b6bffffffffffffffffffffffff198360601b16815260006003831061343257613432612e9f565b5060f89190911b6014820152601501919050565b634e487b7160e01b600052603260045260246000fd5b60006001820161347c57634e487b7160e01b600052601160045260246000fd5b5060010190565b601f8211156107a757600081815260208120601f850160051c810160208610156134aa5750805b601f850160051c820191505b818110156134c9578281556001016134b6565b505050505050565b815167ffffffffffffffff8111156134eb576134eb612ce9565b6134ff816134f98454613326565b84613483565b602080601f831160018114613534576000841561351c5750858301515b600019600386901b1c1916600185901b1785556134c9565b600085815260208120601f198616915b8281101561356357888601518255948401946001909101908401613544565b50858210156135815787850151600019600388901b60f8161c191681555b5050505050600190811b01905550565b602081016105d38284612eb5565b60208082526025908201527f4552433732313a207472616e736665722066726f6d20696e636f72726563742060408201526437bbb732b960d91b606082015260800190565b60208082526032908201527f4552433732313a207472616e7366657220746f206e6f6e20455243373231526560408201527131b2b4bb32b91034b6b83632b6b2b73a32b960711b606082015260800190565b60008351613648818460208801612b77565b83519083019061365c818360208801612b77565b01949350505050565b6001600160a01b038581168252841660208201526040810183905260806060820181905260009061369890830184612b9b565b9695505050505050565b6000602082840312156136b457600080fd5b815161283281612b4456fea26469706673582212202168fb0d25a130017da979dd1a6f9da033a5164164efad8b7a131e3878b4adde64736f6c63430008140033",
  "immutableReferences": {},
  "source": "// SPDX-License-Identifier: MIT\r\npragma solidity ^0.8.20;\r\n\r\nimport \"@openzeppelin/contracts/token/ERC721/ERC721.sol\";\r\nimport \"@openzeppelin/contracts/token/ERC721/extensions/ERC721URIStorage.sol\";\r\nimport \"@openzeppelin/contracts/access/Ownable.sol\";\r\nimport \"@openzeppelin/contracts/utils/Counters.sol\";\r\n\r\ncontract OrganNFT is ERC721, ERC721URIStorage, Ownable {\r\n    using Counters for Counters.Counter;\r\n\r\n    Counters.Counter private _tokenIdCounter;\r\n\r\n    enum OrganType { Heart, Liver, Kidneys }\r\n    enum OrganStatus { Available, Matched, Transplanted, Expired, Rejected }\r\n\r\n    struct OrganMetadata {\r\n        address donorAddress;\r\n        OrganType organType;\r\n        string bloodType;\r\n        OrganStatus status;\r\n        uint256 donationTimestamp;\r\n        uint256 expiryTimestamp;\r\n        address assignedRecipient;\r\n        address assignedHospital;\r\n        string medicalDataHash;\r\n        bool isEmergency;\r\n        uint256 urgencyLevel;\r\n    }\r\n\r\n    mapping(uint256 => OrganMetadata) public organMetadata;\r\n    mapping(address => uint256[]) public donorOrgans;\r\n    mapping(address => uint256[]) public recipientAssignedOrgans;\r\n    mapping(bytes32 => uint256) public organHash;\r\n\r\n    address public donorContract;\r\n    address public recipientContract;\r\n    address public hospitalContract;\r\n\r\n    event OrganMinted(uint256 indexed tokenId, address indexed donor, OrganType organType);\r\n    event OrganMatched(uint256 indexed tokenId, address indexed recipient, address indexed hospital);\r\n    event OrganTransplanted(uint256 indexed tokenId, address indexed recipient);\r\n    event OrganExpired(uint256 indexed tokenId);\r\n    event OrganStatusUpdated(uint256 indexed tokenId, OrganStatus status);\r\n    event EmergencyStatusUpdated(uint256 indexed tokenId, bool isEmergency);\r\n\r\n    modifier onlyAuthorized() {\r\n        require(\r\n            msg.sender == owner() || \r\n            msg.sender == donorContract || \r\n            msg.sender == recipientContract || \r\n            msg.sender == hospitalContract,\r\n            \"Not authorized\"\r\n        );\r\n        _;\r\n    }\r\n\r\n    modifier validTokenId(uint256 tokenId) {\r\n        require(_exists(tokenId), \"Token does not exist\");\r\n        _;\r\n    }\r\n\r\n    constructor() ERC721(\"OrganDonationNFT\", \"ORGAN\") {}\r\n\r\n    function setContractAddresses(\r\n        address _donorContract,\r\n        address _recipientContract,\r\n        address _hospitalContract\r\n    ) external onlyOwner {\r\n        donorContract = _donorContract;\r\n        recipientContract = _recipientContract;\r\n        hospitalContract = _hospitalContract;\r\n    }\r\n\r\n    function mintOrganNFT(\r\n        address donorAddress,\r\n        OrganType organType,\r\n        string memory bloodType,\r\n        string memory medicalDataHash,\r\n        string memory uri\r\n    ) external onlyAuthorized returns (uint256) {\r\n        uint256 tokenId = _tokenIdCounter.current();\r\n        _tokenIdCounter.increment();\r\n\r\n        bytes32 hash = keccak256(abi.encodePacked(donorAddress, organType));\r\n        require(organHash[hash] == 0, \"Organ already exists\");\r\n\r\n        _safeMint(donorAddress, tokenId);\r\n        _setTokenURI(tokenId, uri);\r\n\r\n        organMetadata[tokenId] = OrganMetadata({\r\n            donorAddress: donorAddress,\r\n            organType: organType,\r\n            bloodType: bloodType,\r\n            status: OrganStatus.Available,\r\n            donationTimestamp: block.timestamp,\r\n            expiryTimestamp: 0,\r\n            assignedRecipient: address(0),\r\n            assignedHospital: address(0),\r\n            medicalDataHash: medicalDataHash,\r\n            isEmergency: false,\r\n            urgencyLevel: 1\r\n        });\r\n\r\n        donorOrgans[donorAddress].push(tokenId);\r\n        organHash[hash] = tokenId;\r\n\r\n        emit OrganMinted(tokenId, donorAddress, organType);\r\n        return tokenId;\r\n    }\r\n\r\n    function matchOrgan(\r\n        uint256 tokenId,\r\n        address recipient,\r\n        address hospital\r\n    ) external onlyAuthorized validTokenId(tokenId) {\r\n        OrganMetadata storage organ = organMetadata[tokenId];\r\n        require(organ.status == OrganStatus.Available, \"Organ not available\");\r\n\r\n        organ.status = OrganStatus.Matched;\r\n        organ.assignedRecipient = recipient;\r\n        organ.assignedHospital = hospital;\r\n\r\n        recipientAssignedOrgans[recipient].push(tokenId);\r\n        emit OrganMatched(tokenId, recipient, hospital);\r\n    }\r\n\r\n    function markTransplanted(uint256 tokenId) \r\n        external \r\n        onlyAuthorized \r\n        validTokenId(tokenId) \r\n    {\r\n        OrganMetadata storage organ = organMetadata[tokenId];\r\n        require(organ.status == OrganStatus.Matched, \"Organ must be matched first\");\r\n        organ.status = OrganStatus.Transplanted;\r\n        emit OrganTransplanted(tokenId, organ.assignedRecipient);\r\n    }\r\n\r\n    function markExpired(uint256 tokenId) \r\n        external \r\n        onlyAuthorized \r\n        validTokenId(tokenId) \r\n    {\r\n        OrganMetadata storage organ = organMetadata[tokenId];\r\n        require(\r\n            organ.status == OrganStatus.Available || organ.status == OrganStatus.Matched, \r\n            \"Cannot expire transplanted organ\"\r\n        );\r\n        organ.status = OrganStatus.Expired;\r\n        emit OrganExpired(tokenId);\r\n    }\r\n\r\n    function setExpiryTimestamp(uint256 tokenId, uint256 expiryTime) \r\n        external \r\n        onlyAuthorized \r\n        validTokenId(tokenId) \r\n    {\r\n        organMetadata[tokenId].expiryTimestamp = expiryTime;\r\n    }\r\n\r\n    function setEmergencyStatus(uint256 tokenId, bool isEmergency, uint256 urgencyLevel) \r\n        external \r\n        onlyAuthorized \r\n        validTokenId(tokenId) \r\n    {\r\n        require(urgencyLevel >= 1 && urgencyLevel <= 10, \"Invalid urgency level\");\r\n        organMetadata[tokenId].isEmergency = isEmergency;\r\n        organMetadata[tokenId].urgencyLevel = urgencyLevel;\r\n        emit EmergencyStatusUpdated(tokenId, isEmergency);\r\n    }\r\n\r\n    function updateOrganStatus(uint256 tokenId, OrganStatus newStatus) \r\n        external \r\n        onlyAuthorized \r\n        validTokenId(tokenId) \r\n    {\r\n        organMetadata[tokenId].status = newStatus;\r\n        emit OrganStatusUpdated(tokenId, newStatus);\r\n    }\r\n\r\n    function getOrganMetadata(uint256 tokenId) \r\n        external \r\n        view \r\n        validTokenId(tokenId) \r\n        returns (OrganMetadata memory) \r\n    {\r\n        return organMetadata[tokenId];\r\n    }\r\n\r\n    function getDonorOrgans(address donor) external view returns (uint256[] memory) {\r\n        return donorOrgans[donor];\r\n    }\r\n\r\n    function getRecipientOrgans(address recipient) external view returns (uint256[] memory) {\r\n        return recipientAssignedOrgans[recipient];\r\n    }\r\n\r\n    function getOrganByDonorAndType(address donor, OrganType organType) \r\n        external \r\n        view \r\n        returns (uint256) \r\n    {\r\n        bytes32 hash = keccak256(abi.encodePacked(donor, organType));\r\n        return organHash[hash];\r\n    }\r\n\r\n    function getAvailableOrgans(OrganType organType, string memory bloodType) \r\n        external \r\n        view \r\n        returns (uint256[] memory) \r\n    {\r\n        uint256 totalSupply = _tokenIdCounter.current();\r\n        uint256[] memory tempTokens = new uint256[](totalSupply);\r\n        uint256 count = 0;\r\n\r\n        for (uint256 i = 0; i < totalSupply; i++) {\r\n            if (_exists(i)) {\r\n                OrganMetadata memory organ = organMetadata[i];\r\n                if (\r\n                    organ.organType == organType && \r\n                    organ.status == OrganStatus.Available &&\r\n                    _isBloodCompatible(organ.bloodType, bloodType)\r\n                ) {\r\n                    tempTokens[count] = i;\r\n                    count++;\r\n                }\r\n            }\r\n        }\r\n\r\n        uint256[] memory availableTokens = new uint256[](count);\r\n        for (uint256 i = 0; i < count; i++) {\r\n            availableTokens[i] = tempTokens[i];\r\n        }\r\n        return availableTokens;\r\n    }\r\n\r\n    function getTotalOrgans() external view returns (uint256) {\r\n        return _tokenIdCounter.current();\r\n    }\r\n\r\n    function _isBloodCompatible(string memory donorBlood, string memory recipientBlood) \r\n        internal \r\n        pure \r\n        returns (bool) \r\n    {\r\n        bytes32 donorHash = keccak256(bytes(donorBlood));\r\n        bytes32 recipientHash = keccak256(bytes(recipientBlood));\r\n        \r\n        if (donorHash == keccak256(bytes(\"O-\"))) return true;\r\n        if (recipientHash == keccak256(bytes(\"AB+\"))) return true;\r\n        if (donorHash == recipientHash) return true;\r\n        \r\n        return false;\r\n    }\r\n\r\n    function _burn(uint256 tokenId) internal override(ERC721, ERC721URIStorage) {\r\n        super._burn(tokenId);\r\n    }\r\n\r\n    function tokenURI(uint256 tokenId) \r\n        public \r\n        view \r\n        override(ERC721, ERC721URIStorage) \r\n        returns (string memory) \r\n    {\r\n        return super.tokenURI(tokenId);\r\n    }\r\n\r\n    function supportsInterface(bytes4 interfaceId) \r\n        public \r\n        view \r\n        override(ERC721, ERC721URIStorage) \r\n        returns (bool) \r\n    {\r\n        return super.supportsInterface(interfaceId);\r\n    }\r\n\r\n    function emergencyTransfer(uint256 tokenId, address to) \r\n        external \r\n        onlyOwner \r\n        validTokenId(tokenId) \r\n    {\r\n        address from = ownerOf(tokenId);\r\n        _transfer(from, to, tokenId);\r\n    }\r\n\r\n    function batchUpdateStatus(uint256[] memory tokenIds, OrganStatus newStatus) \r\n        external \r\n        onlyOwner \r\n    {\r\n        for (uint256 i = 0; i < tokenIds.length; i++) {\r\n            if (_exists(tokenIds[i])) {\r\n                organMetadata[tokenIds[i]].status = newStatus;\r\n                emit OrganStatusUpdated(tokenIds[i], newStatus);\r\n            }\r\n        }\r\n    }\r\n\r\n    function exists(uint256 tokenId) external view returns (bool) {\r\n    return _exists(tokenId);\r\n}\r\n\r\n}",
  "sourcePath": "D:\\Summers\\Final year Project\\OrganDonationSystem\\contracts\\OrganNFT.sol",
  "compiler": {
    "name": "solc",
    "version": "0.8.20+commit.a1b79de6.Linux.g++"
  },
  "schemaVersion": "3.4.16",
  "updatedAt": "2025-11-03T20:11:49.294Z",
  "networkType": "ethereum",
  "devdoc": {
    "events": {
      "Approval(address,address,uint256)": {
        "details": "Emitted when `owner` enables `approved` to manage the `tokenId` token."
      },
      "ApprovalForAll(address,address,bool)": {
        "details": "Emitted when `owner` enables or disables (`approved`) `operator` to manage all of its assets."
      },
      "BatchMetadataUpdate(uint256,uint256)": {
        "details": "This event emits when the metadata of a range of tokens is changed. So that the third-party platforms such as NFT market could timely update the images and related attributes of the NFTs."
      },
      "MetadataUpdate(uint256)": {
        "details": "This event emits when the metadata of a token is changed. So that the third-party platforms such as NFT market could timely update the images and related attributes of the NFT."
      },
      "Transfer(address,address,uint256)": {
        "details": "Emitted when `tokenId` token is transferred from `from` to `to`."
      }
    },
    "kind": "dev",
    "methods": {
      "approve(address,uint256)": {
        "details": "See {IERC721-approve}."
      },
      "balanceOf(address)": {
        "details": "See {IERC721-balanceOf}."
      },
      "getApproved(uint256)": {
        "details": "See {IERC721-getApproved}."
      },
      "isApprovedForAll(address,address)": {
        "details": "See {IERC721-isApprovedForAll}."
      },
      "name()": {
        "details": "See {IERC721Metadata-name}."
      },
      "owner()": {
        "details": "Returns the address of the current owner."
      },
      "ownerOf(uint256)": {
        "details": "See {IERC721-ownerOf}."
      },
      "renounceOwnership()": {
        "details": "Leaves the contract without owner. It will not be possible to call `onlyOwner` functions. Can only be called by the current owner. NOTE: Renouncing ownership will leave the contract without an owner, thereby disabling any functionality that is only available to the owner."
      },
      "safeTransferFrom(address,address,uint256)": {
        "details": "See {IERC721-safeTransferFrom}."
      },
      "safeTransferFrom(address,address,uint256,bytes)": {
        "details": "See {IERC721-safeTransferFrom}."
      },
      "setApprovalForAll(address,bool)": {
        "details": "See {IERC721-setApprovalForAll}."
      },
      "symbol()": {
        "details": "See {IERC721Metadata-symbol}."
      },
      "transferFrom(address,address,uint256)": {
        "details": "See {IERC721-transferFrom}."
      },
      "transferOwnership(address)": {
        "details": "Transfers ownership of the contract to a new account (`newOwner`). Can only be called by the current owner."
      }
    },
    "version": 1
  },
  "userdoc": {
    "kind": "user",
    "methods": {},
    "version": 1
  }
}