{
  "contractName": "OrganMatching",
  "abi": [
    {
      "inputs": [
        {
          "internalType": "address",
          "name": "_organNFTContract",
          "type": "address"
        },
        {
          "internalType": "address",
          "name": "_recipientContract",
          "type": "address"
        },
        {
          "internalType": "address",
          "name": "_donorContract",
          "type": "address"
        },
        {
          "internalType": "address",
          "name": "_hospitalContract",
          "type": "address"
        },
        {
          "internalType": "address",
          "name": "_organQualityContract",
          "type": "address"
        }
      ],
      "stateMutability": "nonpayable",
      "type": "constructor"
    },
    {
      "inputs": [],
      "name": "AlreadyMatched",
      "type": "error"
    },
    {
      "inputs": [],
      "name": "EmptyWaitingList",
      "type": "error"
    },
    {
      "inputs": [],
      "name": "InsufficientMatchScore",
      "type": "error"
    },
    {
      "inputs": [],
      "name": "InvalidTokenId",
      "type": "error"
    },
    {
      "inputs": [],
      "name": "InvalidUrgencyLevel",
      "type": "error"
    },
    {
      "inputs": [],
      "name": "NotAuthorized",
      "type": "error"
    },
    {
      "inputs": [],
      "name": "NotOwner",
      "type": "error"
    },
    {
      "inputs": [],
      "name": "OrganNotAvailable",
      "type": "error"
    },
    {
      "inputs": [],
      "name": "RecipientNotEligible",
      "type": "error"
    },
    {
      "inputs": [],
      "name": "ZeroAddress",
      "type": "error"
    },
    {
      "anonymous": false,
      "inputs": [
        {
          "indexed": true,
          "internalType": "uint256",
          "name": "organTokenId",
          "type": "uint256"
        },
        {
          "indexed": true,
          "internalType": "address",
          "name": "recipient",
          "type": "address"
        }
      ],
      "name": "EmergencyMatchTriggered",
      "type": "event"
    },
    {
      "anonymous": false,
      "inputs": [
        {
          "indexed": true,
          "internalType": "uint256",
          "name": "organTokenId",
          "type": "uint256"
        },
        {
          "indexed": true,
          "internalType": "address",
          "name": "recipient",
          "type": "address"
        },
        {
          "indexed": false,
          "internalType": "uint256",
          "name": "score",
          "type": "uint256"
        }
      ],
      "name": "MatchProposalCreated",
      "type": "event"
    },
    {
      "anonymous": false,
      "inputs": [
        {
          "indexed": true,
          "internalType": "uint256",
          "name": "organTokenId",
          "type": "uint256"
        },
        {
          "indexed": true,
          "internalType": "address",
          "name": "recipient",
          "type": "address"
        }
      ],
      "name": "MatchProposalExpired",
      "type": "event"
    },
    {
      "anonymous": false,
      "inputs": [
        {
          "indexed": true,
          "internalType": "uint256",
          "name": "organTokenId",
          "type": "uint256"
        },
        {
          "indexed": true,
          "internalType": "address",
          "name": "recipient",
          "type": "address"
        },
        {
          "indexed": false,
          "internalType": "uint256",
          "name": "totalScore",
          "type": "uint256"
        }
      ],
      "name": "MatchScoreCalculated",
      "type": "event"
    },
    {
      "anonymous": false,
      "inputs": [
        {
          "indexed": true,
          "internalType": "uint256",
          "name": "organTokenId",
          "type": "uint256"
        },
        {
          "indexed": true,
          "internalType": "address",
          "name": "recipient",
          "type": "address"
        },
        {
          "indexed": true,
          "internalType": "address",
          "name": "hospital",
          "type": "address"
        }
      ],
      "name": "OrganAllocated",
      "type": "event"
    },
    {
      "anonymous": false,
      "inputs": [
        {
          "indexed": false,
          "internalType": "string",
          "name": "parameter",
          "type": "string"
        },
        {
          "indexed": false,
          "internalType": "uint256",
          "name": "newWeight",
          "type": "uint256"
        }
      ],
      "name": "ScoringParametersUpdated",
      "type": "event"
    },
    {
      "anonymous": false,
      "inputs": [
        {
          "indexed": true,
          "internalType": "address",
          "name": "recipient",
          "type": "address"
        },
        {
          "indexed": false,
          "internalType": "enum OrganMatching.OrganType",
          "name": "organType",
          "type": "uint8"
        },
        {
          "indexed": false,
          "internalType": "string",
          "name": "region",
          "type": "string"
        }
      ],
      "name": "WaitingListUpdated",
      "type": "event"
    },
    {
      "inputs": [],
      "name": "donorContract",
      "outputs": [
        {
          "internalType": "address",
          "name": "",
          "type": "address"
        }
      ],
      "stateMutability": "view",
      "type": "function",
      "constant": true
    },
    {
      "inputs": [
        {
          "internalType": "uint256",
          "name": "",
          "type": "uint256"
        }
      ],
      "name": "emergencyOrgans",
      "outputs": [
        {
          "internalType": "bool",
          "name": "",
          "type": "bool"
        }
      ],
      "stateMutability": "view",
      "type": "function",
      "constant": true
    },
    {
      "inputs": [],
      "name": "hospitalContract",
      "outputs": [
        {
          "internalType": "address",
          "name": "",
          "type": "address"
        }
      ],
      "stateMutability": "view",
      "type": "function",
      "constant": true
    },
    {
      "inputs": [
        {
          "internalType": "uint256",
          "name": "",
          "type": "uint256"
        },
        {
          "internalType": "uint256",
          "name": "",
          "type": "uint256"
        }
      ],
      "name": "organMatchHistory",
      "outputs": [
        {
          "internalType": "address",
          "name": "",
          "type": "address"
        }
      ],
      "stateMutability": "view",
      "type": "function",
      "constant": true
    },
    {
      "inputs": [
        {
          "internalType": "uint256",
          "name": "",
          "type": "uint256"
        },
        {
          "internalType": "uint256",
          "name": "",
          "type": "uint256"
        }
      ],
      "name": "organMatchProposals",
      "outputs": [
        {
          "internalType": "uint256",
          "name": "organTokenId",
          "type": "uint256"
        },
        {
          "internalType": "address",
          "name": "recipientAddress",
          "type": "address"
        },
        {
          "internalType": "address",
          "name": "proposingHospital",
          "type": "address"
        },
        {
          "components": [
            {
              "internalType": "uint256",
              "name": "totalScore",
              "type": "uint256"
            },
            {
              "internalType": "uint256",
              "name": "bloodCompatibility",
              "type": "uint256"
            },
            {
              "internalType": "uint256",
              "name": "urgencyScore",
              "type": "uint256"
            },
            {
              "internalType": "uint256",
              "name": "waitingTimeScore",
              "type": "uint256"
            },
            {
              "internalType": "uint256",
              "name": "geographicScore",
              "type": "uint256"
            },
            {
              "internalType": "uint256",
              "name": "medicalScore",
              "type": "uint256"
            },
            {
              "internalType": "bool",
              "name": "isCompatible",
              "type": "bool"
            }
          ],
          "internalType": "struct OrganMatching.MatchScore",
          "name": "score",
          "type": "tuple"
        },
        {
          "internalType": "enum OrganMatching.MatchStatus",
          "name": "status",
          "type": "uint8"
        },
        {
          "internalType": "uint256",
          "name": "proposalTimestamp",
          "type": "uint256"
        },
        {
          "internalType": "uint256",
          "name": "expiryTimestamp",
          "type": "uint256"
        },
        {
          "internalType": "string",
          "name": "notes",
          "type": "string"
        }
      ],
      "stateMutability": "view",
      "type": "function",
      "constant": true
    },
    {
      "inputs": [],
      "name": "organNFTContract",
      "outputs": [
        {
          "internalType": "address",
          "name": "",
          "type": "address"
        }
      ],
      "stateMutability": "view",
      "type": "function",
      "constant": true
    },
    {
      "inputs": [],
      "name": "organQualityContract",
      "outputs": [
        {
          "internalType": "address",
          "name": "",
          "type": "address"
        }
      ],
      "stateMutability": "view",
      "type": "function",
      "constant": true
    },
    {
      "inputs": [],
      "name": "owner",
      "outputs": [
        {
          "internalType": "address",
          "name": "",
          "type": "address"
        }
      ],
      "stateMutability": "view",
      "type": "function",
      "constant": true
    },
    {
      "inputs": [],
      "name": "recipientContract",
      "outputs": [
        {
          "internalType": "address",
          "name": "",
          "type": "address"
        }
      ],
      "stateMutability": "view",
      "type": "function",
      "constant": true
    },
    {
      "inputs": [
        {
          "internalType": "address",
          "name": "",
          "type": "address"
        }
      ],
      "name": "recipientMatchCount",
      "outputs": [
        {
          "internalType": "uint256",
          "name": "",
          "type": "uint256"
        }
      ],
      "stateMutability": "view",
      "type": "function",
      "constant": true
    },
    {
      "inputs": [
        {
          "internalType": "address",
          "name": "",
          "type": "address"
        },
        {
          "internalType": "uint256",
          "name": "",
          "type": "uint256"
        }
      ],
      "name": "recipientMatches",
      "outputs": [
        {
          "internalType": "uint256",
          "name": "",
          "type": "uint256"
        }
      ],
      "stateMutability": "view",
      "type": "function",
      "constant": true
    },
    {
      "inputs": [
        {
          "internalType": "address",
          "name": "",
          "type": "address"
        }
      ],
      "name": "recipientPriority",
      "outputs": [
        {
          "internalType": "enum OrganMatching.Priority",
          "name": "",
          "type": "uint8"
        }
      ],
      "stateMutability": "view",
      "type": "function",
      "constant": true
    },
    {
      "inputs": [
        {
          "internalType": "address",
          "name": "",
          "type": "address"
        },
        {
          "internalType": "enum OrganMatching.OrganType",
          "name": "",
          "type": "uint8"
        }
      ],
      "name": "recipientWaitingIndex",
      "outputs": [
        {
          "internalType": "uint256",
          "name": "",
          "type": "uint256"
        }
      ],
      "stateMutability": "view",
      "type": "function",
      "constant": true
    },
    {
      "inputs": [
        {
          "internalType": "string",
          "name": "",
          "type": "string"
        }
      ],
      "name": "scoringWeights",
      "outputs": [
        {
          "internalType": "uint256",
          "name": "",
          "type": "uint256"
        }
      ],
      "stateMutability": "view",
      "type": "function",
      "constant": true
    },
    {
      "inputs": [
        {
          "internalType": "enum OrganMatching.OrganType",
          "name": "",
          "type": "uint8"
        },
        {
          "internalType": "string",
          "name": "",
          "type": "string"
        },
        {
          "internalType": "uint256",
          "name": "",
          "type": "uint256"
        }
      ],
      "name": "waitingLists",
      "outputs": [
        {
          "internalType": "address",
          "name": "recipientAddress",
          "type": "address"
        },
        {
          "internalType": "uint256",
          "name": "urgencyLevel",
          "type": "uint256"
        },
        {
          "internalType": "uint256",
          "name": "addedTimestamp",
          "type": "uint256"
        },
        {
          "internalType": "string",
          "name": "region",
          "type": "string"
        },
        {
          "internalType": "enum OrganMatching.Priority",
          "name": "priority",
          "type": "uint8"
        },
        {
          "internalType": "bool",
          "name": "isActive",
          "type": "bool"
        },
        {
          "internalType": "uint256",
          "name": "lastUpdated",
          "type": "uint256"
        }
      ],
      "stateMutability": "view",
      "type": "function",
      "constant": true
    },
    {
      "inputs": [
        {
          "internalType": "uint256",
          "name": "organTokenId",
          "type": "uint256"
        }
      ],
      "name": "findCompatibleRecipients",
      "outputs": [
        {
          "internalType": "address[]",
          "name": "compatibleRecipients",
          "type": "address[]"
        }
      ],
      "stateMutability": "view",
      "type": "function",
      "constant": true
    },
    {
      "inputs": [
        {
          "internalType": "uint256",
          "name": "organTokenId",
          "type": "uint256"
        },
        {
          "internalType": "address",
          "name": "recipientAddress",
          "type": "address"
        }
      ],
      "name": "calculateMatchScore",
      "outputs": [
        {
          "components": [
            {
              "internalType": "uint256",
              "name": "totalScore",
              "type": "uint256"
            },
            {
              "internalType": "uint256",
              "name": "bloodCompatibility",
              "type": "uint256"
            },
            {
              "internalType": "uint256",
              "name": "urgencyScore",
              "type": "uint256"
            },
            {
              "internalType": "uint256",
              "name": "waitingTimeScore",
              "type": "uint256"
            },
            {
              "internalType": "uint256",
              "name": "geographicScore",
              "type": "uint256"
            },
            {
              "internalType": "uint256",
              "name": "medicalScore",
              "type": "uint256"
            },
            {
              "internalType": "bool",
              "name": "isCompatible",
              "type": "bool"
            }
          ],
          "internalType": "struct OrganMatching.MatchScore",
          "name": "score",
          "type": "tuple"
        }
      ],
      "stateMutability": "view",
      "type": "function",
      "constant": true
    },
    {
      "inputs": [
        {
          "internalType": "uint256",
          "name": "organTokenId",
          "type": "uint256"
        },
        {
          "internalType": "address",
          "name": "recipientAddress",
          "type": "address"
        }
      ],
      "name": "allocateOrgan",
      "outputs": [],
      "stateMutability": "nonpayable",
      "type": "function"
    },
    {
      "inputs": [
        {
          "internalType": "enum OrganMatching.OrganType",
          "name": "organType",
          "type": "uint8"
        },
        {
          "internalType": "string",
          "name": "region",
          "type": "string"
        }
      ],
      "name": "getWaitingListByOrgan",
      "outputs": [
        {
          "components": [
            {
              "internalType": "address",
              "name": "recipientAddress",
              "type": "address"
            },
            {
              "internalType": "uint256",
              "name": "urgencyLevel",
              "type": "uint256"
            },
            {
              "internalType": "uint256",
              "name": "addedTimestamp",
              "type": "uint256"
            },
            {
              "internalType": "string",
              "name": "region",
              "type": "string"
            },
            {
              "internalType": "enum OrganMatching.Priority",
              "name": "priority",
              "type": "uint8"
            },
            {
              "internalType": "bool",
              "name": "isActive",
              "type": "bool"
            },
            {
              "internalType": "uint256",
              "name": "lastUpdated",
              "type": "uint256"
            }
          ],
          "internalType": "struct OrganMatching.WaitingListEntry[]",
          "name": "waitingList",
          "type": "tuple[]"
        }
      ],
      "stateMutability": "view",
      "type": "function",
      "constant": true
    },
    {
      "inputs": [
        {
          "internalType": "enum OrganMatching.OrganType",
          "name": "organType",
          "type": "uint8"
        },
        {
          "internalType": "string",
          "name": "region",
          "type": "string"
        }
      ],
      "name": "prioritizeByUrgency",
      "outputs": [
        {
          "components": [
            {
              "internalType": "address",
              "name": "recipientAddress",
              "type": "address"
            },
            {
              "internalType": "uint256",
              "name": "urgencyLevel",
              "type": "uint256"
            },
            {
              "internalType": "uint256",
              "name": "addedTimestamp",
              "type": "uint256"
            },
            {
              "internalType": "string",
              "name": "region",
              "type": "string"
            },
            {
              "internalType": "enum OrganMatching.Priority",
              "name": "priority",
              "type": "uint8"
            },
            {
              "internalType": "bool",
              "name": "isActive",
              "type": "bool"
            },
            {
              "internalType": "uint256",
              "name": "lastUpdated",
              "type": "uint256"
            }
          ],
          "internalType": "struct OrganMatching.WaitingListEntry[]",
          "name": "prioritizedList",
          "type": "tuple[]"
        }
      ],
      "stateMutability": "view",
      "type": "function",
      "constant": true
    },
    {
      "inputs": [
        {
          "internalType": "address",
          "name": "recipientAddress",
          "type": "address"
        },
        {
          "internalType": "enum OrganMatching.OrganType",
          "name": "organType",
          "type": "uint8"
        },
        {
          "internalType": "uint256",
          "name": "urgencyLevel",
          "type": "uint256"
        },
        {
          "internalType": "string",
          "name": "region",
          "type": "string"
        },
        {
          "internalType": "enum OrganMatching.Priority",
          "name": "priority",
          "type": "uint8"
        }
      ],
      "name": "addToWaitingList",
      "outputs": [],
      "stateMutability": "nonpayable",
      "type": "function"
    },
    {
      "inputs": [
        {
          "internalType": "address",
          "name": "recipientAddress",
          "type": "address"
        },
        {
          "internalType": "enum OrganMatching.OrganType",
          "name": "organType",
          "type": "uint8"
        },
        {
          "internalType": "uint256",
          "name": "newUrgencyLevel",
          "type": "uint256"
        },
        {
          "internalType": "enum OrganMatching.Priority",
          "name": "newPriority",
          "type": "uint8"
        },
        {
          "internalType": "string",
          "name": "region",
          "type": "string"
        }
      ],
      "name": "updateWaitingListPriority",
      "outputs": [],
      "stateMutability": "nonpayable",
      "type": "function"
    },
    {
      "inputs": [
        {
          "internalType": "uint256",
          "name": "organTokenId",
          "type": "uint256"
        },
        {
          "internalType": "uint256",
          "name": "maxDistance",
          "type": "uint256"
        }
      ],
      "name": "triggerEmergencyMatch",
      "outputs": [],
      "stateMutability": "nonpayable",
      "type": "function"
    },
    {
      "inputs": [
        {
          "internalType": "string",
          "name": "parameter",
          "type": "string"
        },
        {
          "internalType": "uint256",
          "name": "weight",
          "type": "uint256"
        }
      ],
      "name": "updateScoringWeight",
      "outputs": [],
      "stateMutability": "nonpayable",
      "type": "function"
    },
    {
      "inputs": [
        {
          "internalType": "address",
          "name": "_organNFT",
          "type": "address"
        },
        {
          "internalType": "address",
          "name": "_recipient",
          "type": "address"
        },
        {
          "internalType": "address",
          "name": "_donor",
          "type": "address"
        },
        {
          "internalType": "address",
          "name": "_hospital",
          "type": "address"
        },
        {
          "internalType": "address",
          "name": "_organQuality",
          "type": "address"
        }
      ],
      "name": "updateContractAddresses",
      "outputs": [],
      "stateMutability": "nonpayable",
      "type": "function"
    },
    {
      "inputs": [
        {
          "internalType": "uint256",
          "name": "organTokenId",
          "type": "uint256"
        }
      ],
      "name": "getOrganMatchProposals",
      "outputs": [
        {
          "components": [
            {
              "internalType": "uint256",
              "name": "organTokenId",
              "type": "uint256"
            },
            {
              "internalType": "address",
              "name": "recipientAddress",
              "type": "address"
            },
            {
              "internalType": "address",
              "name": "proposingHospital",
              "type": "address"
            },
            {
              "components": [
                {
                  "internalType": "uint256",
                  "name": "totalScore",
                  "type": "uint256"
                },
                {
                  "internalType": "uint256",
                  "name": "bloodCompatibility",
                  "type": "uint256"
                },
                {
                  "internalType": "uint256",
                  "name": "urgencyScore",
                  "type": "uint256"
                },
                {
                  "internalType": "uint256",
                  "name": "waitingTimeScore",
                  "type": "uint256"
                },
                {
                  "internalType": "uint256",
                  "name": "geographicScore",
                  "type": "uint256"
                },
                {
                  "internalType": "uint256",
                  "name": "medicalScore",
                  "type": "uint256"
                },
                {
                  "internalType": "bool",
                  "name": "isCompatible",
                  "type": "bool"
                }
              ],
              "internalType": "struct OrganMatching.MatchScore",
              "name": "score",
              "type": "tuple"
            },
            {
              "internalType": "enum OrganMatching.MatchStatus",
              "name": "status",
              "type": "uint8"
            },
            {
              "internalType": "uint256",
              "name": "proposalTimestamp",
              "type": "uint256"
            },
            {
              "internalType": "uint256",
              "name": "expiryTimestamp",
              "type": "uint256"
            },
            {
              "internalType": "string",
              "name": "notes",
              "type": "string"
            }
          ],
          "internalType": "struct OrganMatching.MatchProposal[]",
          "name": "",
          "type": "tuple[]"
        }
      ],
      "stateMutability": "view",
      "type": "function",
      "constant": true
    },
    {
      "inputs": [
        {
          "internalType": "address",
          "name": "recipientAddress",
          "type": "address"
        }
      ],
      "name": "getRecipientMatches",
      "outputs": [
        {
          "internalType": "uint256[]",
          "name": "",
          "type": "uint256[]"
        }
      ],
      "stateMutability": "view",
      "type": "function",
      "constant": true
    },
    {
      "inputs": [
        {
          "internalType": "string",
          "name": "parameter",
          "type": "string"
        }
      ],
      "name": "getScoringWeight",
      "outputs": [
        {
          "internalType": "uint256",
          "name": "",
          "type": "uint256"
        }
      ],
      "stateMutability": "view",
      "type": "function",
      "constant": true
    }
  ],
  "bytecode": "0x60806040523480156200001157600080fd5b5060405162003e0a38038062003e0a833981016040819052620000349162000241565b6001600160a01b03851615806200005257506001600160a01b038416155b806200006557506001600160a01b038316155b806200007857506001600160a01b038216155b806200008b57506001600160a01b038116155b15620000aa5760405163d92e233d60e01b815260040160405180910390fd5b60008054336001600160a01b0319918216179091556001805482166001600160a01b038881169190911790915560028054831687831617905560038054831686831617905560048054831685831617905560058054909216908316179055620001126200011d565b5050505050620002b1565b6028600a60405162000141906b6d696e696d756d53636f726560a01b8152600c0190565b90815260408051918290036020018220929092556a189b1bdbd915d95a59da1d60aa1b8152600a600b8201819052825191829003602b018220601e90556c1d5c99d95b98de55d95a59da1d609a1b8252600d808301829052835192839003602d9081018420601990556c1dd85a5d1a5b99d5d95a59da1d609a1b845283820183905284519384900381018420601490556f19d95bd9dc985c1a1a58d5d95a59da1d60821b8452601084018390528451938490036030018420600f90556c1b59591a58d85b15d95a59da1d609a1b8452908301829052925191829003909201902055565b80516001600160a01b03811681146200023c57600080fd5b919050565b600080600080600060a086880312156200025a57600080fd5b620002658662000224565b9450620002756020870162000224565b9350620002856040870162000224565b9250620002956060870162000224565b9150620002a56080870162000224565b90509295509295909350565b613b4980620002c16000396000f3fe608060405234801561001057600080fd5b50600436106101c45760003560e01c80639aaa6576116100f9578063c373d5ff11610097578063e3ca6c0b11610071578063e3ca6c0b14610480578063e5f1f4e614610493578063f4c87157146104c6578063f79384a3146104d957600080fd5b8063c373d5ff1461043a578063cb183d2e1461045a578063e02e80091461046d57600080fd5b8063a30278fd116100d3578063a30278fd146103b6578063ad753bf2146103c9578063b3e5b82c146103e9578063ba48018d1461041457600080fd5b80639aaa6576146103705780639d3730c7146103905780639ee517b9146103a357600080fd5b80634adbaf8711610166578063717641051161014057806371764105146103155780638cb687a51461032a5780638da5cb5b1461034a578063949e0b5b1461035d57600080fd5b80634adbaf87146102c85780634aeb0ee6146102ef5780634f52babe1461030257600080fd5b80631fd145f8116101a25780631fd145f81461023c578063323e0a3814610275578063472ae3941461029557806347dbb71a146102b557600080fd5b80630a666e5a146101c95780630d57c0e9146101f957806311e1c24a14610229575b600080fd5b6002546101dc906001600160a01b031681565b6040516001600160a01b0390911681526020015b60405180910390f35b61021c610207366004612d00565b600c6020526000908152604090205460ff1681565b6040516101f09190612d4a565b6003546101dc906001600160a01b031681565b61026761024a366004612e6b565b8051602081830181018051600a8252928201919093012091525481565b6040519081526020016101f0565b610288610283366004612e9f565b6104ec565b6040516101f09190612f5b565b6102a86102a3366004613034565b6106c1565b6040516101f09190613064565b6004546101dc906001600160a01b031681565b6102db6102d6366004613072565b6107a1565b6040516101f0989796959493929190613094565b6001546101dc906001600160a01b031681565b6101dc610310366004613072565b6108f0565b610328610323366004613100565b610928565b005b61033d61033836600461317e565b610a31565b6040516101f091906131cd565b6000546101dc906001600160a01b031681565b6005546101dc906001600160a01b031681565b61038361037e366004612e9f565b610bf8565b6040516101f0919061327e565b61032861039e3660046132cb565b6111b8565b6102676103b136600461330f565b611243565b6103286103c4366004613034565b611274565b6103dc6103d7366004612d00565b61185d565b6040516101f0919061333b565b6102676103f7366004613373565b600960209081526000928352604080842090915290825290205481565b6104276104223660046133a1565b6118c9565b6040516101f097969594939291906133f9565b610267610448366004612d00565b600e6020526000908152604090205481565b61032861046836600461345c565b6119da565b61026761047b366004612e6b565b611c13565b61032861048e366004613072565b611c3b565b6104b66104a1366004612e9f565b600b6020526000908152604090205460ff1681565b60405190151581526020016101f0565b61033d6104d436600461317e565b611de6565b6103286104e73660046134da565b6121db565b606060066000838152602001908152602001600020805480602002602001604051908101604052809291908181526020016000905b828210156106b65760008481526020908190206040805161010081018252600e86029092018054835260018101546001600160a01b039081168486015260028201541683830152815160e081018352600382015481526004808301549582019590955260058201549281019290925260068101546060838101919091526007820154608080850191909152600883015460a0850152600983015460ff908116151560c086015291850193909352600a820154939491939285019216908111156105ec576105ec612d24565b60048111156105fd576105fd612d24565b8152602001600b8201548152602001600c8201548152602001600d820180546106259061354c565b80601f01602080910402602001604051908101604052809291908181526020018280546106519061354c565b801561069e5780601f106106735761010080835404028352916020019161069e565b820191906000526020600020905b81548152906001019060200180831161068157829003601f168201915b50505050508152505081526020019060010190610521565b505050509050919050565b6107036040518060e001604052806000815260200160008152602001600081526020016000815260200160008152602001600081526020016000151581525090565b600154604051634f558e7960e01b81526004810185905284916001600160a01b031690634f558e7990602401602060405180830381865afa15801561074c573d6000803e3d6000fd5b505050506040513d601f19601f82011682018060405250810190610770919061359b565b61078d576040516307ed98ed60e31b815260040160405180910390fd5b61079784846124f6565b91505b5092915050565b600660205281600052604060002081815481106107bd57600080fd5b6000918252602091829020600e909102018054600182015460028301546040805160e081018252600386015481526004860154968101969096526005850154908601526006840154606086015260078401546080860152600884015460a0860152600984015460ff908116151560c0870152600a850154600b860154600c870154600d88018054979b506001600160a01b039687169a509490951697969190921694919392909161086d9061354c565b80601f01602080910402602001604051908101604052809291908181526020018280546108999061354c565b80156108e65780601f106108bb576101008083540402835291602001916108e6565b820191906000526020600020905b8154815290600101906020018083116108c957829003601f168201915b5050505050905088565b600d602052816000526040600020818154811061090c57600080fd5b6000918252602090912001546001600160a01b03169150829050565b6000546001600160a01b03163314610953576040516330cd747160e01b815260040160405180910390fd5b6001600160a01b0385161561097e57600180546001600160a01b0319166001600160a01b0387161790555b6001600160a01b038416156109a957600280546001600160a01b0319166001600160a01b0386161790555b6001600160a01b038316156109d457600380546001600160a01b0319166001600160a01b0385161790555b6001600160a01b038216156109ff57600480546001600160a01b0319166001600160a01b0384161790555b6001600160a01b03811615610a2a57600580546001600160a01b0319166001600160a01b0383161790555b5050505050565b606060086000846002811115610a4957610a49612d24565b6002811115610a5a57610a5a612d24565b815260200190815260200160002082604051610a7691906135b6565b9081526020016040518091039020805480602002602001604051908101604052809291908181526020016000905b82821015610beb5760008481526020908190206040805160e0810182526006860290920180546001600160a01b03168352600181015493830193909352600283015490820152600382018054919291606084019190610b029061354c565b80601f0160208091040260200160405190810160405280929190818152602001828054610b2e9061354c565b8015610b7b5780601f10610b5057610100808354040283529160200191610b7b565b820191906000526020600020905b815481529060010190602001808311610b5e57829003601f168201915b505050918352505060048281015460209092019160ff1690811115610ba257610ba2612d24565b6004811115610bb357610bb3612d24565b81526020016004820160019054906101000a900460ff1615151515815260200160058201548152505081526020019060010190610aa4565b5050505090505b92915050565b600154604051634f558e7960e01b81526004810183905260609183916001600160a01b0390911690634f558e7990602401602060405180830381865afa158015610c46573d6000803e3d6000fd5b505050506040513d601f19601f82011682018060405250810190610c6a919061359b565b610c87576040516307ed98ed60e31b815260040160405180910390fd5b600154604051633ea6e5f160e11b81526004810185905284916000916001600160a01b0390911690637d4dcbe290602401600060405180830381865afa158015610cd5573d6000803e3d6000fd5b505050506040513d6000823e601f3d908101601f19168201604052610cfd9190810190613640565b9050600081606001516004811115610d1757610d17612d24565b14610d35576040516357d65a2960e01b815260040160405180910390fd5b600154604051633ea6e5f160e11b8152600481018790526000916001600160a01b031690637d4dcbe290602401600060405180830381865afa158015610d7f573d6000803e3d6000fd5b505050506040513d6000823e601f3d908101601f19168201604052610da79190810190613640565b9050600081602001516002811115610dc157610dc1612d24565b60ff166002811115610dd557610dd5612d24565b604080518082019091526007815266191959985d5b1d60ca1b6020820152909150600060086000846002811115610e0e57610e0e612d24565b6002811115610e1f57610e1f612d24565b815260200190815260200160002082604051610e3b91906135b6565b9081526020016040518091039020805480602002602001604051908101604052809291908181526020016000905b82821015610fb05760008481526020908190206040805160e0810182526006860290920180546001600160a01b03168352600181015493830193909352600283015490820152600382018054919291606084019190610ec79061354c565b80601f0160208091040260200160405190810160405280929190818152602001828054610ef39061354c565b8015610f405780601f10610f1557610100808354040283529160200191610f40565b820191906000526020600020905b815481529060010190602001808311610f2357829003601f168201915b505050918352505060048281015460209092019160ff1690811115610f6757610f67612d24565b6004811115610f7857610f78612d24565b81526020016004820160019054906101000a900460ff1615151515815260200160058201548152505081526020019060010190610e69565b505050509050600081516001600160401b03811115610fd157610fd1612d5d565b604051908082528060200260200182016040528015610ffa578160200160208202803683370190505b5090506000805b83518110156111035783818151811061101c5761101c61375f565b602002602001015160a00151156110f15760006110568d8684815181106110455761104561375f565b6020026020010151600001516124f6565b90508060c00151801561109457506040516b6d696e696d756d53636f726560a01b8152600a90600c0190815260405190819003602001902054815110155b156110ef578482815181106110ab576110ab61375f565b6020026020010151600001518484815181106110c9576110c961375f565b6001600160a01b0390921660209283029190910190910152826110eb8161378b565b9350505b505b806110fb8161378b565b915050611001565b50806001600160401b0381111561111c5761111c612d5d565b604051908082528060200260200182016040528015611145578160200160208202803683370190505b50995060005b818110156111a9578281815181106111655761116561375f565b60200260200101518b828151811061117f5761117f61375f565b6001600160a01b0390921660209283029190910190910152806111a18161378b565b91505061114b565b50505050505050505050919050565b6000546001600160a01b031633146111e3576040516330cd747160e01b815260040160405180910390fd5b80600a836040516111f491906135b6565b9081526020016040518091039020819055507fe22a6946a568990147aa0d58eee20c3db627ad0457ade93ea5320b841bc109ac82826040516112379291906137a4565b60405180910390a15050565b6007602052816000526040600020818154811061125f57600080fd5b90600052602060002001600091509150505481565b6000546001600160a01b0316331480159061129a57506004546001600160a01b03163314155b80156112b157506001546001600160a01b03163314155b156112cf5760405163ea8e4eb560e01b815260040160405180910390fd5b600154604051634f558e7960e01b81526004810184905283916001600160a01b031690634f558e7990602401602060405180830381865afa158015611318573d6000803e3d6000fd5b505050506040513d601f19601f8201168201806040525081019061133c919061359b565b611359576040516307ed98ed60e31b815260040160405180910390fd5b600154604051633ea6e5f160e11b81526004810185905284916000916001600160a01b0390911690637d4dcbe290602401600060405180830381865afa1580156113a7573d6000803e3d6000fd5b505050506040513d6000823e601f3d908101601f191682016040526113cf9190810190613640565b90506000816060015160048111156113e9576113e9612d24565b14611407576040516357d65a2960e01b815260040160405180910390fd5b600061141386866124f6565b90508060c00151158061145057506040516b6d696e696d756d53636f726560a01b8152600a90600c01908152604051908190036020019020548151105b1561146e576040516378f8683560e11b815260040160405180910390fd5b6004546000906001600160a01b0316331461148a57600061148c565b335b600154604051633ea6e5f160e11b8152600481018a90529192506000916001600160a01b0390911690637d4dcbe290602401600060405180830381865afa1580156114db573d6000803e3d6000fd5b505050506040513d6000823e601f3d908101601f191682016040526115039190810190613640565b90506001600160a01b03821661151b578060e0015191505b60006040518061010001604052808a8152602001896001600160a01b03168152602001846001600160a01b031681526020018581526020016001600481111561156657611566612d24565b8152602001428152602001426201518061158091906137c6565b8152604080518082018252601d81527f4175746f6d61746564206d61746368696e6720616c6c6f636174696f6e0000006020828101919091529283015260008c81526006808452828220805460018181018355918452928590208651600e909402019283558585015183820180546001600160a01b039283166001600160a01b03199182161790915587860151600286018054919093169116179055606080870151805160038601559586015160048086019190915594860151600585015585015191830191909155608080850151600784015560a0850151600884015560c09094015160098301805491151560ff1992831617905593850151600a830180549697508796939591949093909116919084908111156116a1576116a1612d24565b021790555060a0820151600b82015560c0820151600c82015560e0820151600d8201906116ce908261381f565b5050506001600160a01b038881166000818152600760209081526040808320805460018082018355918552929093209091018d90559054905163694feb5960e11b8152600481018d9052602481019290925285831660448301529091169063d29fd6b290606401600060405180830381600087803b15801561174f57600080fd5b505af1158015611763573d6000803e3d6000fd5b5050505060008260200151600281111561177f5761177f612d24565b60ff16600281111561179357611793612d24565b90506117ba896001600160a01b03166000908152600c60205260409020805460ff19169055565b60008a8152600d6020908152604080832080546001810182559084528284200180546001600160a01b0319166001600160a01b038e169081179091558352600e909152812080549161180b8361378b565b9190505550836001600160a01b0316896001600160a01b03168b7f5815827bc3cf0135dc2f17b5b845b2630cd01b05b7ce477f689e829c74d540f660405160405180910390a450505050505050505050565b6001600160a01b0381166000908152600760209081526040918290208054835181840281018401909452808452606093928301828280156118bd57602002820191906000526020600020905b8154815260200190600101908083116118a9575b50505050509050919050565b6008602090815260008481526040902083518085018301805192815290830192850192909220915280548290811061190057600080fd5b600091825260209091206006909102018054600182015460028301546003840180546001600160a01b03909416975091955093509061193e9061354c565b80601f016020809104026020016040519081016040528092919081815260200182805461196a9061354c565b80156119b75780601f1061198c576101008083540402835291602001916119b7565b820191906000526020600020905b81548152906001019060200180831161199a57829003601f168201915b505050506004830154600590930154919260ff8082169361010090920416915087565b6000546001600160a01b03163314801590611a0057506004546001600160a01b03163314155b8015611a1757506001546001600160a01b03163314155b15611a355760405163ea8e4eb560e01b815260040160405180910390fd5b6001831080611a445750600a83115b15611a6257604051635cfad17d60e11b815260040160405180910390fd5b6001600160a01b038516600090815260096020526040812081866002811115611a8d57611a8d612d24565b6002811115611a9e57611a9e612d24565b8152602001908152602001600020549050600060086000876002811115611ac757611ac7612d24565b6002811115611ad857611ad8612d24565b815260200190815260200160002083604051611af491906135b6565b90815260200160405180910390208281548110611b1357611b1361375f565b6000918252602090912060069091020180549091506001600160a01b03888116911614611b53576040516378f8683560e11b815260040160405180910390fd5b848160010181905550838160040160006101000a81548160ff02191690836004811115611b8257611b82612d24565b02179055504260058201556001600160a01b0387166000908152600c60205260409020805485919060ff19166001836004811115611bc257611bc2612d24565b0217905550866001600160a01b03167f9e1159bc1e137c4ce2fc7b1d285f07e4cc578066bd177b21eeea8190160d65e28785604051611c029291906138de565b60405180910390a250505050505050565b6000600a82604051611c2591906135b6565b9081526020016040518091039020549050919050565b6000546001600160a01b03163314801590611c6157506004546001600160a01b03163314155b8015611c7857506001546001600160a01b03163314155b15611c965760405163ea8e4eb560e01b815260040160405180910390fd5b600154604051634f558e7960e01b81526004810184905283916001600160a01b031690634f558e7990602401602060405180830381865afa158015611cdf573d6000803e3d6000fd5b505050506040513d601f19601f82011682018060405250810190611d03919061359b565b611d20576040516307ed98ed60e31b815260040160405180910390fd5b6000838152600b6020526040808220805460ff19166001908117909155549051633ea6e5f160e11b8152600481018690526001600160a01b0390911690637d4dcbe290602401600060405180830381865afa158015611d83573d6000803e3d6000fd5b505050506040513d6000823e601f3d908101601f19168201604052611dab9190810190613640565b9050600081602001516002811115611dc557611dc5612d24565b60ff166002811115611dd957611dd9612d24565b905060005b505050505050565b6060600060086000856002811115611e0057611e00612d24565b6002811115611e1157611e11612d24565b815260200190815260200160002083604051611e2d91906135b6565b9081526020016040518091039020805480602002602001604051908101604052809291908181526020016000905b82821015611fa25760008481526020908190206040805160e0810182526006860290920180546001600160a01b03168352600181015493830193909352600283015490820152600382018054919291606084019190611eb99061354c565b80601f0160208091040260200160405190810160405280929190818152602001828054611ee59061354c565b8015611f325780601f10611f0757610100808354040283529160200191611f32565b820191906000526020600020905b815481529060010190602001808311611f1557829003601f168201915b505050918352505060048281015460209092019160ff1690811115611f5957611f59612d24565b6004811115611f6a57611f6a612d24565b81526020016004820160019054906101000a900460ff1615151515815260200160058201548152505081526020019060010190611e5b565b5050505090508051600003611fca57604051639a17f5f160e01b815260040160405180910390fd5b80516001600160401b03811115611fe357611fe3612d5d565b60405190808252806020026020018201604052801561204957816020015b6040805160e081018252600080825260208083018290529282018190526060808301526080820181905260a0820181905260c082015282526000199092019101816120015790505b5091506000805b82518110156120d45782818151811061206b5761206b61375f565b602002602001015160a00151156120c25782818151811061208e5761208e61375f565b60200260200101518483815181106120a8576120a861375f565b602002602001018190525081806120be9061378b565b9250505b806120cc8161378b565b915050612050565b5081518110156121ba576000816001600160401b038111156120f8576120f8612d5d565b60405190808252806020026020018201604052801561215e57816020015b6040805160e081018252600080825260208083018290529282018190526060808301526080820181905260a0820181905260c082015282526000199092019101816121165790505b50905060005b828110156121b65784818151811061217e5761217e61375f565b60200260200101518282815181106121985761219861375f565b602002602001018190525080806121ae9061378b565b915050612164565b5092505b6121d3836000600186516121ce9190613907565b612757565b505092915050565b6000546001600160a01b0316331480159061220157506004546001600160a01b03163314155b801561221857506001546001600160a01b03163314155b156122365760405163ea8e4eb560e01b815260040160405180910390fd5b60018310806122455750600a83115b1561226357604051635cfad17d60e11b815260040160405180910390fd5b60006040518060e00160405280876001600160a01b031681526020018581526020014281526020018481526020018360048111156122a3576122a3612d24565b815260016020820152426040909101529050600860008660028111156122cb576122cb612d24565b60028111156122dc576122dc612d24565b8152602001908152602001600020836040516122f891906135b6565b9081526040805160209281900383019020805460018082018355600092835291849020855160069092020180546001600160a01b0319166001600160a01b039092169190911781559284015190830155820151600282015560608201518291906003820190612367908261381f565b5060808201518160040160006101000a81548160ff0219169083600481111561239257612392612d24565b021790555060a08201516004820180549115156101000261ff001990921691909117905560c0909101516005909101556001600860008760028111156123da576123da612d24565b60028111156123eb576123eb612d24565b81526020019081526020016000208460405161240791906135b6565b908152604051908190036020019020546124219190613907565b6001600160a01b03871660009081526009602052604081209087600281111561244c5761244c612d24565b600281111561245d5761245d612d24565b815260208082019290925260409081016000908120939093556001600160a01b0389168352600c9091529020805483919060ff191660018360048111156124a6576124a6612d24565b0217905550856001600160a01b03167f9e1159bc1e137c4ce2fc7b1d285f07e4cc578066bd177b21eeea8190160d65e286856040516124e69291906138de565b60405180910390a2505050505050565b6125386040518060e001604052806000815260200160008152602001600081526020016000815260200160008152602001600081526020016000151581525090565b600154604051633ea6e5f160e11b8152600481018590526000916001600160a01b031690637d4dcbe290602401600060405180830381865afa158015612582573d6000803e3d6000fd5b505050506040513d6000823e601f3d908101601f191682016040526125aa9190810190613640565b6002546040516358a3c3c160e01b81526001600160a01b0386811660048301529293509116906358a3c3c190602401600060405180830381865afa92505050801561261757506040513d6000823e601f3d908101601f1916820160405261261491908101906139c8565b60015b61262757600060c083015261079a565b6126398260400151826040015161279a565b836020018181525050612675848360200151600281111561265c5761265c612d24565b60ff16600281111561267057612670612d24565b612980565b604084015260208201516126af908590600281111561269657612696612d24565b60ff1660028111156126aa576126aa612d24565b612a32565b6060840152600a60808401526126c58585612a9e565b60a0840181905260808401516060850151604086015160208701516126ea91906137c6565b6126f491906137c6565b6126fe91906137c6565b61270891906137c6565b835260208301511580159061274857506040516b6d696e696d756d53636f726560a01b8152600a90600c0190815260405190819003602001902054835110155b151560c0840152505092915050565b8082121561279557600061276c848484612b32565b905061277e84846121ce600185613abb565b6127938461278d836001613adb565b84612757565b505b505050565b600080838051906020012090506000838051906020012090508082036127c557601e92505050610bf2565b6040805180820190915260028152614f2d60f01b6020909101527f24ee4dfd51ea61da0c7e24c25c8c8d13195e7f61972e3f3ce41c702aef172bdd820161281157601992505050610bf2565b60408051808201909152600381526241422b60e81b6020909101527fe069aaba111c183a1fde677842e779bedeab6cff9e204992bbb1c54a2a1da06f810161285e57601992505050610bf2565b6040805180820190915260028152614f2b60f01b6020909101527f68d9102d0ebbae68a1c3fc621b2fbfc6053186381a836dac1fc852ddc7fd9abd820161297557604080518082019091526002815261412b60f01b6020909101527fbc8ad4fa23449205da10b2a086888a16aae2ac121f166bdaf18384f01c5a19238114806129205750604080518082019091526002815261422b60f01b6020909101527f5c824a22c75ee3364219136d475a54e97a9ddcf1807f4545222958ac4dbabbbc81145b80612965575060408051808201909152600381526241422b60e81b6020909101527f1f965545eee3e7c5e0219887bd1886412154930061dfb66d444e3ab5d5e25f9181145b1561297557601492505050610bf2565b506000949350505050565b6001600160a01b0382166000908152600c602052604081205460ff1660048160048111156129b0576129b0612d24565b036129bf576019915050610bf2565b60038160048111156129d3576129d3612d24565b036129e2576014915050610bf2565b60028160048111156129f6576129f6612d24565b03612a0557600f915050610bf2565b6001816004811115612a1957612a19612d24565b03612a2857600a915050610bf2565b5060059392505050565b6001600160a01b0382166000908152600c602052604081205460ff166004816004811115612a6257612a62612d24565b03612a71576014915050610bf2565b6003816004811115612a8557612a85612d24565b03612a9457600f915050610bf2565b50600a9392505050565b60055460405163133dca7d60e01b8152600481018490526001600160a01b038381166024830152600092169063133dca7d90604401602060405180830381865afa925050508015612b0c575060408051601f3d908101601f19168201909252612b099181019061359b565b60015b612b1857506005610bf2565b80612b24576000612b27565b600a5b60ff16915050610bf2565b600080848381518110612b4757612b4761375f565b6020026020010151608001516004811115612b6457612b64612d24565b90506000612b73600186613abb565b9050845b84811215612c485782878281518110612b9257612b9261375f565b6020026020010151608001516004811115612baf57612baf612d24565b10612c365781612bbe81613afb565b9250506000878381518110612bd557612bd561375f565b60200260200101519050878281518110612bf157612bf161375f565b6020026020010151888481518110612c0b57612c0b61375f565b602002602001018190525080888381518110612c2957612c2961375f565b6020026020010181905250505b80612c4081613afb565b915050612b77565b50600086612c57836001613adb565b81518110612c6757612c6761375f565b60200260200101519050868581518110612c8357612c8361375f565b602002602001015187836001612c999190613adb565b81518110612ca957612ca961375f565b602002602001018190525080878681518110612cc757612cc761375f565b6020908102919091010152612cdd826001613adb565b979650505050505050565b6001600160a01b0381168114612cfd57600080fd5b50565b600060208284031215612d1257600080fd5b8135612d1d81612ce8565b9392505050565b634e487b7160e01b600052602160045260246000fd5b60058110612cfd57612cfd612d24565b60208101612d5783612d3a565b91905290565b634e487b7160e01b600052604160045260246000fd5b60405161016081016001600160401b0381118282101715612d9657612d96612d5d565b60405290565b60405160c081016001600160401b0381118282101715612d9657612d96612d5d565b604051601f8201601f191681016001600160401b0381118282101715612de657612de6612d5d565b604052919050565b60006001600160401b03821115612e0757612e07612d5d565b50601f01601f191660200190565b600082601f830112612e2657600080fd5b8135612e39612e3482612dee565b612dbe565b818152846020838601011115612e4e57600080fd5b816020850160208301376000918101602001919091529392505050565b600060208284031215612e7d57600080fd5b81356001600160401b03811115612e9357600080fd5b61079784828501612e15565b600060208284031215612eb157600080fd5b5035919050565b805182526020810151602083015260408101516040830152606081015160608301526080810151608083015260a081015160a083015260c0810151151560c08301525050565b612f0781612d3a565b9052565b60005b83811015612f26578181015183820152602001612f0e565b50506000910152565b60008151808452612f47816020860160208601612f0b565b601f01601f19169290920160200192915050565b60006020808301818452808551808352604092508286019150828160051b87010184880160005b8381101561302657603f19898403018552815180518452878101516001600160a01b03908116898601528782015116878501526060808201516101c09190612fcc82880182612eb8565b50506080820151612fe1610140870182612efe565b5060a082015161016086015260c082015161018086015260e08201519150806101a086015261301281860183612f2f565b968901969450505090860190600101612f82565b509098975050505050505050565b6000806040838503121561304757600080fd5b82359150602083013561305981612ce8565b809150509250929050565b60e08101610bf28284612eb8565b6000806040838503121561308557600080fd5b50508035926020909101359150565b8881526001600160a01b0388811660208301528716604082015260006101c06130c06060840189612eb8565b6130c987612d3a565b866101408401528561016084015284610180840152806101a08401526130f181840185612f2f565b9b9a5050505050505050505050565b600080600080600060a0868803121561311857600080fd5b853561312381612ce8565b9450602086013561313381612ce8565b9350604086013561314381612ce8565b9250606086013561315381612ce8565b9150608086013561316381612ce8565b809150509295509295909350565b60038110612cfd57600080fd5b6000806040838503121561319157600080fd5b823561319c81613171565b915060208301356001600160401b038111156131b757600080fd5b6131c385828601612e15565b9150509250929050565b60006020808301818452808551808352604092508286019150828160051b87010184880160005b8381101561302657888303603f19018552815180516001600160a01b031684528781015188850152868101518785015260608082015160e0828701819052919061324083880182612f2f565b9250505060808083015161325381612d3a565b9086015260a08281015115159086015260c091820151919094015293860193908601906001016131f4565b6020808252825182820181905260009190848201906040850190845b818110156132bf5783516001600160a01b03168352928401929184019160010161329a565b50909695505050505050565b600080604083850312156132de57600080fd5b82356001600160401b038111156132f457600080fd5b61330085828601612e15565b95602094909401359450505050565b6000806040838503121561332257600080fd5b823561332d81612ce8565b946020939093013593505050565b6020808252825182820181905260009190848201906040850190845b818110156132bf57835183529284019291840191600101613357565b6000806040838503121561338657600080fd5b823561339181612ce8565b9150602083013561305981613171565b6000806000606084860312156133b657600080fd5b83356133c181613171565b925060208401356001600160401b038111156133dc57600080fd5b6133e886828701612e15565b925050604084013590509250925092565b60018060a01b038816815286602082015285604082015260e06060820152600061342660e0830187612f2f565b905061343185612d3a565b608082019490945291151560a083015260c090910152949350505050565b60058110612cfd57600080fd5b600080600080600060a0868803121561347457600080fd5b853561347f81612ce8565b9450602086013561348f81613171565b93506040860135925060608601356134a68161344f565b915060808601356001600160401b038111156134c157600080fd5b6134cd88828901612e15565b9150509295509295909350565b600080600080600060a086880312156134f257600080fd5b85356134fd81612ce8565b9450602086013561350d81613171565b93506040860135925060608601356001600160401b0381111561352f57600080fd5b61353b88828901612e15565b92505060808601356131638161344f565b600181811c9082168061356057607f821691505b60208210810361358057634e487b7160e01b600052602260045260246000fd5b50919050565b8051801515811461359657600080fd5b919050565b6000602082840312156135ad57600080fd5b612d1d82613586565b600082516135c8818460208701612f0b565b9190910192915050565b805161359681612ce8565b805161359681613171565b600082601f8301126135f957600080fd5b8151613607612e3482612dee565b81815284602083860101111561361c57600080fd5b61362d826020830160208701612f0b565b949350505050565b80516135968161344f565b60006020828403121561365257600080fd5b81516001600160401b038082111561366957600080fd5b90830190610160828603121561367e57600080fd5b613686612d73565b61368f836135d2565b815261369d602084016135dd565b60208201526040830151828111156136b457600080fd5b6136c0878286016135e8565b6040830152506136d260608401613635565b60608201526080830151608082015260a083015160a08201526136f760c084016135d2565b60c082015261370860e084016135d2565b60e0820152610100808401518381111561372157600080fd5b61372d888287016135e8565b8284015250506101209150613743828401613586565b9181019190915261014091820151918101919091529392505050565b634e487b7160e01b600052603260045260246000fd5b634e487b7160e01b600052601160045260246000fd5b60006001820161379d5761379d613775565b5060010190565b6040815260006137b76040830185612f2f565b90508260208301529392505050565b80820180821115610bf257610bf2613775565b601f82111561279557600081815260208120601f850160051c810160208610156138005750805b601f850160051c820191505b81811015611dde5782815560010161380c565b81516001600160401b0381111561383857613838612d5d565b61384c81613846845461354c565b846137d9565b602080601f83116001811461388157600084156138695750858301515b600019600386901b1c1916600185901b178555611dde565b600085815260208120601f198616915b828110156138b057888601518255948401946001909101908401613891565b50858210156138ce5787850151600019600388901b60f8161c191681555b5050505050600190811b01905550565b6000600384106138f0576138f0612d24565b8382526040602083015261362d6040830184612f2f565b81810381811115610bf257610bf2613775565b60006060828403121561392c57600080fd5b604051606081016001600160401b03828210818311171561394f5761394f612d5d565b81604052829350845191508082111561396757600080fd5b613973868387016135e8565b8352602085015191508082111561398957600080fd5b613995868387016135e8565b602084015260408501519150808211156139ae57600080fd5b506139bb858286016135e8565b6040830152505092915050565b6000602082840312156139da57600080fd5b81516001600160401b03808211156139f157600080fd5b9083019060c08286031215613a0557600080fd5b613a0d612d9c565b825182811115613a1c57600080fd5b613a28878286016135e8565b82525060208301516020820152604083015182811115613a4757600080fd5b613a53878286016135e8565b604083015250606083015182811115613a6b57600080fd5b613a77878286016135e8565b606083015250613a8960808401613635565b608082015260a083015182811115613aa057600080fd5b613aac8782860161391a565b60a08301525095945050505050565b818103600083128015838313168383128216171561079a5761079a613775565b80820182811260008312801582168215821617156121d3576121d3613775565b60006001600160ff1b01820161379d5761379d61377556fea2646970667358221220057baec4d186a8ed1ede074fbf6d040611ad9e8801254d3c47838922e1859df364736f6c63430008140033",
  "immutableReferences": {},
  "source": "// SPDX-License-Identifier: MIT\r\npragma solidity ^0.8.20;\r\n\r\nimport \"./OrganNFT.sol\";\r\nimport \"./Recipient.sol\";\r\nimport \"./Donor.sol\";\r\nimport \"./Hospital.sol\";\r\nimport \"./OrganQuality.sol\";\r\n\r\n/// @title Smart Matching Algorithm for Global NFT-Based Organ Donation System\r\n/// @notice Implements intelligent organ-recipient matching with scoring and prioritization\r\n/// @dev Integrates with existing Donor, Recipient, Hospital, OrganNFT, and OrganQuality contracts\r\ncontract OrganMatching {\r\n    /*//////////////////////////////////////////////////////////////\r\n                              OWNER & CONTRACTS\r\n    //////////////////////////////////////////////////////////////*/\r\n\r\n    address public owner;\r\n    address public organNFTContract;\r\n    address public recipientContract;\r\n    address public donorContract;\r\n    address public hospitalContract;\r\n    address public organQualityContract;\r\n\r\n    /*//////////////////////////////////////////////////////////////\r\n                              ERRORS\r\n    //////////////////////////////////////////////////////////////*/\r\n\r\n    error NotOwner();\r\n    error NotAuthorized();\r\n    error ZeroAddress();\r\n    error InvalidTokenId();\r\n    error OrganNotAvailable();\r\n    error RecipientNotEligible();\r\n    error InsufficientMatchScore();\r\n    error AlreadyMatched();\r\n    error InvalidUrgencyLevel();\r\n    error EmptyWaitingList();\r\n\r\n    /*//////////////////////////////////////////////////////////////\r\n                                  ENUMS\r\n    //////////////////////////////////////////////////////////////*/\r\n\r\n    enum OrganType { Heart, Liver, Kidneys }\r\n    enum MatchStatus { Pending, Matched, Confirmed, Rejected, Expired }\r\n    enum Priority { Low, Medium, High, Critical, Emergency }\r\n\r\n    /*//////////////////////////////////////////////////////////////\r\n                                 STRUCTS\r\n    //////////////////////////////////////////////////////////////*/\r\n\r\n    /// @notice Comprehensive match score breakdown\r\n    struct MatchScore {\r\n        uint256 totalScore;           // Overall compatibility score (0-100)\r\n        uint256 bloodCompatibility;   // Blood type compatibility (0-30)\r\n        uint256 urgencyScore;         // Medical urgency (0-25)\r\n        uint256 waitingTimeScore;     // Time on waiting list (0-20)\r\n        uint256 geographicScore;      // Geographic proximity (0-15)\r\n        uint256 medicalScore;         // Medical compatibility (0-10)\r\n        bool isCompatible;            // Final compatibility decision\r\n    }\r\n\r\n    /// @notice Match proposal between organ and recipient\r\n    struct MatchProposal {\r\n        uint256 organTokenId;\r\n        address recipientAddress;\r\n        address proposingHospital;\r\n        MatchScore score;\r\n        MatchStatus status;\r\n        uint256 proposalTimestamp;\r\n        uint256 expiryTimestamp;\r\n        string notes;\r\n    }\r\n\r\n    /// @notice Waiting list entry with enhanced data\r\n    struct WaitingListEntry {\r\n        address recipientAddress;\r\n        uint256 urgencyLevel;         // 1-10 scale\r\n        uint256 addedTimestamp;\r\n        string region;\r\n        Priority priority;\r\n        bool isActive;\r\n        uint256 lastUpdated;\r\n    }\r\n\r\n    /*//////////////////////////////////////////////////////////////\r\n                                STORAGE\r\n    //////////////////////////////////////////////////////////////*/\r\n\r\n    // Core matching data\r\n    mapping(uint256 => MatchProposal[]) public organMatchProposals;     // organTokenId => proposals\r\n    mapping(address => uint256[]) public recipientMatches;              // recipient => organTokenIds\r\n    \r\n    // Waiting lists by organ type and region\r\n    mapping(OrganType => mapping(string => WaitingListEntry[])) public waitingLists;\r\n    mapping(address => mapping(OrganType => uint256)) public recipientWaitingIndex; // recipient => organType => index\r\n    \r\n    // Match scoring parameters (adjustable)\r\n    mapping(string => uint256) public scoringWeights;                   // parameter => weight\r\n    \r\n    // Emergency matching\r\n    mapping(uint256 => bool) public emergencyOrgans;                    // organTokenId => isEmergency\r\n    mapping(address => Priority) public recipientPriority;              // recipient => priority level\r\n\r\n    // Match history and analytics\r\n    mapping(uint256 => address[]) public organMatchHistory;             // organTokenId => matched recipients\r\n    mapping(address => uint256) public recipientMatchCount;             // recipient => total matches\r\n\r\n    /*//////////////////////////////////////////////////////////////\r\n                                  EVENTS\r\n    //////////////////////////////////////////////////////////////*/\r\n\r\n    event MatchProposalCreated(uint256 indexed organTokenId, address indexed recipient, uint256 score);\r\n    event OrganAllocated(uint256 indexed organTokenId, address indexed recipient, address indexed hospital);\r\n    event MatchScoreCalculated(uint256 indexed organTokenId, address indexed recipient, uint256 totalScore);\r\n    event WaitingListUpdated(address indexed recipient, OrganType organType, string region);\r\n    event EmergencyMatchTriggered(uint256 indexed organTokenId, address indexed recipient);\r\n    event MatchProposalExpired(uint256 indexed organTokenId, address indexed recipient);\r\n    event ScoringParametersUpdated(string parameter, uint256 newWeight);\r\n\r\n    /*//////////////////////////////////////////////////////////////\r\n                                MODIFIERS\r\n    //////////////////////////////////////////////////////////////*/\r\n\r\n    modifier onlyOwner() {\r\n        if (msg.sender != owner) revert NotOwner();\r\n        _;\r\n    }\r\n\r\n    modifier onlyAuthorized() {\r\n        if (msg.sender != owner && \r\n            msg.sender != hospitalContract && \r\n            msg.sender != organNFTContract) revert NotAuthorized();\r\n        _;\r\n    }\r\n\r\n    modifier validOrganToken(uint256 tokenId) {\r\n        if (!OrganNFT(organNFTContract).exists(tokenId)) revert InvalidTokenId();\r\n        _;\r\n    }\r\n\r\n    modifier onlyAvailableOrgan(uint256 tokenId) {\r\n        OrganNFT.OrganMetadata memory organ = OrganNFT(organNFTContract).getOrganMetadata(tokenId);\r\n        if (organ.status != OrganNFT.OrganStatus.Available) revert OrganNotAvailable();\r\n        _;\r\n    }\r\n\r\n    /*//////////////////////////////////////////////////////////////\r\n                                CONSTRUCTOR\r\n    //////////////////////////////////////////////////////////////*/\r\n\r\n    constructor(\r\n        address _organNFTContract,\r\n        address _recipientContract,\r\n        address _donorContract,\r\n        address _hospitalContract,\r\n        address _organQualityContract\r\n    ) {\r\n        if (_organNFTContract == address(0) || \r\n            _recipientContract == address(0) || \r\n            _donorContract == address(0) || \r\n            _hospitalContract == address(0) || \r\n            _organQualityContract == address(0)) revert ZeroAddress();\r\n\r\n        owner = msg.sender;\r\n        organNFTContract = _organNFTContract;\r\n        recipientContract = _recipientContract;\r\n        donorContract = _donorContract;\r\n        hospitalContract = _hospitalContract;\r\n        organQualityContract = _organQualityContract;\r\n\r\n        // Initialize default scoring weights\r\n        _initializeScoringWeights();\r\n    }\r\n\r\n    /*//////////////////////////////////////////////////////////////\r\n                        CORE MATCHING FUNCTIONS\r\n    //////////////////////////////////////////////////////////////*/\r\n\r\n    /// @notice Find all compatible recipients for a given organ\r\n    /// @param organTokenId The NFT token ID of the organ\r\n    /// @return compatibleRecipients Array of recipient addresses with match scores\r\n    function findCompatibleRecipients(uint256 organTokenId) \r\n        external \r\n        view \r\n        validOrganToken(organTokenId) \r\n        onlyAvailableOrgan(organTokenId)\r\n        returns (address[] memory compatibleRecipients) \r\n    {\r\n        OrganNFT.OrganMetadata memory organ = OrganNFT(organNFTContract).getOrganMetadata(organTokenId);\r\n        OrganType organType = OrganType(uint8(organ.organType));\r\n        \r\n        // Get donor location for geographic matching\r\n        string memory donorRegion = _getDonorRegion(organ.donorAddress);\r\n        \r\n        // Get waiting list for this organ type and region\r\n        WaitingListEntry[] memory waitingList = waitingLists[organType][donorRegion];\r\n        \r\n        // Dynamic array to store compatible recipients\r\n        address[] memory tempRecipients = new address[](waitingList.length);\r\n        uint256 compatibleCount = 0;\r\n        \r\n        for (uint256 i = 0; i < waitingList.length; i++) {\r\n            if (!waitingList[i].isActive) continue;\r\n            \r\n            MatchScore memory score = _calculateDetailedMatchScore(organTokenId, waitingList[i].recipientAddress);\r\n            \r\n            if (score.isCompatible && score.totalScore >= scoringWeights[\"minimumScore\"]) {\r\n                tempRecipients[compatibleCount] = waitingList[i].recipientAddress;\r\n                compatibleCount++;\r\n            }\r\n        }\r\n        \r\n        // Resize array to actual compatible count\r\n        compatibleRecipients = new address[](compatibleCount);\r\n        for (uint256 i = 0; i < compatibleCount; i++) {\r\n            compatibleRecipients[i] = tempRecipients[i];\r\n        }\r\n        \r\n        return compatibleRecipients;\r\n    }\r\n\r\n    /// @notice Calculate comprehensive match score between organ and recipient\r\n    /// @param organTokenId The NFT token ID of the organ\r\n    /// @param recipientAddress Address of the potential recipient\r\n    /// @return score Detailed match score breakdown\r\n    function calculateMatchScore(uint256 organTokenId, address recipientAddress)\r\n        external\r\n        view\r\n        validOrganToken(organTokenId)\r\n        returns (MatchScore memory score)\r\n    {\r\n        return _calculateDetailedMatchScore(organTokenId, recipientAddress);\r\n    }\r\n\r\n    /// @notice Allocate organ to the best matching recipient\r\n    /// @param organTokenId The NFT token ID of the organ\r\n    /// @param recipientAddress Address of the chosen recipient\r\n    function allocateOrgan(uint256 organTokenId, address recipientAddress)\r\n        external\r\n        onlyAuthorized\r\n        validOrganToken(organTokenId)\r\n        onlyAvailableOrgan(organTokenId)\r\n    {\r\n        // Verify recipient eligibility\r\n        MatchScore memory score = _calculateDetailedMatchScore(organTokenId, recipientAddress);\r\n        if (!score.isCompatible || score.totalScore < scoringWeights[\"minimumScore\"]) {\r\n            revert RecipientNotEligible();\r\n        }\r\n\r\n        // Get hospital from the caller or organ metadata\r\n        address assignedHospital = msg.sender == hospitalContract ? msg.sender : address(0);\r\n        OrganNFT.OrganMetadata memory organ = OrganNFT(organNFTContract).getOrganMetadata(organTokenId);\r\n        \r\n        if (assignedHospital == address(0)) {\r\n            assignedHospital = organ.assignedHospital;\r\n        }\r\n\r\n        // Create match proposal\r\n        MatchProposal memory proposal = MatchProposal({\r\n            organTokenId: organTokenId,\r\n            recipientAddress: recipientAddress,\r\n            proposingHospital: assignedHospital,\r\n            score: score,\r\n            status: MatchStatus.Matched,\r\n            proposalTimestamp: block.timestamp,\r\n            expiryTimestamp: block.timestamp + 24 hours, // 24-hour confirmation window\r\n            notes: \"Automated matching allocation\"\r\n        });\r\n\r\n        organMatchProposals[organTokenId].push(proposal);\r\n        recipientMatches[recipientAddress].push(organTokenId);\r\n\r\n        // Update organ status in NFT contract\r\n        OrganNFT(organNFTContract).matchOrgan(organTokenId, recipientAddress, assignedHospital);\r\n\r\n        // Remove recipient from waiting list\r\n        OrganType matchingOrganType = OrganType(uint8(organ.organType));\r\n        _removeFromWaitingList(recipientAddress, matchingOrganType);\r\n\r\n        // Update match history\r\n        organMatchHistory[organTokenId].push(recipientAddress);\r\n        recipientMatchCount[recipientAddress]++;\r\n\r\n        emit OrganAllocated(organTokenId, recipientAddress, assignedHospital);\r\n    }\r\n\r\n    /// @notice Get waiting list for specific organ type and region\r\n    /// @param organType Type of organ (Heart, Liver, Kidneys)\r\n    /// @param region Geographic region\r\n    /// @return waitingList Array of waiting list entries\r\n    function getWaitingListByOrgan(OrganType organType, string memory region)\r\n        external\r\n        view\r\n        returns (WaitingListEntry[] memory waitingList)\r\n    {\r\n        return waitingLists[organType][region];\r\n    }\r\n\r\n    /// @notice Get prioritized waiting list sorted by urgency and waiting time\r\n    /// @param organType Type of organ (Heart, Liver, Kidneys)\r\n    /// @param region Geographic region\r\n    /// @return prioritizedList Sorted array of waiting list entries\r\n    function prioritizeByUrgency(OrganType organType, string memory region)\r\n        external\r\n        view\r\n        returns (WaitingListEntry[] memory prioritizedList)\r\n    {\r\n        WaitingListEntry[] memory originalList = waitingLists[organType][region];\r\n        if (originalList.length == 0) revert EmptyWaitingList();\r\n\r\n        // Create a copy for sorting\r\n        prioritizedList = new WaitingListEntry[](originalList.length);\r\n        uint256 activeCount = 0;\r\n\r\n        // Filter active entries\r\n        for (uint256 i = 0; i < originalList.length; i++) {\r\n            if (originalList[i].isActive) {\r\n                prioritizedList[activeCount] = originalList[i];\r\n                activeCount++;\r\n            }\r\n        }\r\n\r\n        // Resize to active count\r\n        if (activeCount < originalList.length) {\r\n            WaitingListEntry[] memory filteredList = new WaitingListEntry[](activeCount);\r\n            for (uint256 i = 0; i < activeCount; i++) {\r\n                filteredList[i] = prioritizedList[i];\r\n            }\r\n            prioritizedList = filteredList;\r\n        }\r\n\r\n        // Sort by priority (emergency > critical > high > medium > low)\r\n        // Then by urgency level (10 > 9 > ... > 1)\r\n        // Then by waiting time (longer wait = higher priority)\r\n        _quickSortWaitingList(prioritizedList, 0, int256(prioritizedList.length - 1));\r\n\r\n        return prioritizedList;\r\n    }\r\n\r\n    /*//////////////////////////////////////////////////////////////\r\n                        WAITING LIST MANAGEMENT\r\n    //////////////////////////////////////////////////////////////*/\r\n\r\n    /// @notice Add recipient to waiting list\r\n    /// @param recipientAddress Address of the recipient\r\n    /// @param organType Type of organ needed\r\n    /// @param urgencyLevel Urgency level (1-10)\r\n    /// @param region Geographic region\r\n    /// @param priority Priority level\r\n    function addToWaitingList(\r\n        address recipientAddress,\r\n        OrganType organType,\r\n        uint256 urgencyLevel,\r\n        string memory region,\r\n        Priority priority\r\n    ) external onlyAuthorized {\r\n        if (urgencyLevel < 1 || urgencyLevel > 10) revert InvalidUrgencyLevel();\r\n        \r\n        WaitingListEntry memory entry = WaitingListEntry({\r\n            recipientAddress: recipientAddress,\r\n            urgencyLevel: urgencyLevel,\r\n            addedTimestamp: block.timestamp,\r\n            region: region,\r\n            priority: priority,\r\n            isActive: true,\r\n            lastUpdated: block.timestamp\r\n        });\r\n\r\n        waitingLists[organType][region].push(entry);\r\n        recipientWaitingIndex[recipientAddress][organType] = waitingLists[organType][region].length - 1;\r\n        recipientPriority[recipientAddress] = priority;\r\n\r\n        emit WaitingListUpdated(recipientAddress, organType, region);\r\n    }\r\n\r\n    /// @notice Update recipient priority on waiting list\r\n    /// @param recipientAddress Address of the recipient\r\n    /// @param organType Type of organ\r\n    /// @param newUrgencyLevel New urgency level (1-10)\r\n    /// @param newPriority New priority level\r\n    function updateWaitingListPriority(\r\n        address recipientAddress,\r\n        OrganType organType,\r\n        uint256 newUrgencyLevel,\r\n        Priority newPriority,\r\n        string memory region\r\n    ) external onlyAuthorized {\r\n        if (newUrgencyLevel < 1 || newUrgencyLevel > 10) revert InvalidUrgencyLevel();\r\n\r\n        uint256 index = recipientWaitingIndex[recipientAddress][organType];\r\n        WaitingListEntry storage entry = waitingLists[organType][region][index];\r\n        \r\n        if (entry.recipientAddress != recipientAddress) revert RecipientNotEligible();\r\n\r\n        entry.urgencyLevel = newUrgencyLevel;\r\n        entry.priority = newPriority;\r\n        entry.lastUpdated = block.timestamp;\r\n        \r\n        recipientPriority[recipientAddress] = newPriority;\r\n\r\n        emit WaitingListUpdated(recipientAddress, organType, region);\r\n    }\r\n\r\n    /*//////////////////////////////////////////////////////////////\r\n                        EMERGENCY MATCHING\r\n    //////////////////////////////////////////////////////////////*/\r\n\r\n    /// @notice Trigger emergency matching for critical organs\r\n    /// @param organTokenId The NFT token ID of the organ\r\n    /// @param maxDistance Maximum geographic distance for matching\r\n    function triggerEmergencyMatch(uint256 organTokenId, uint256 maxDistance)\r\n        external\r\n        onlyAuthorized\r\n        validOrganToken(organTokenId)\r\n    {\r\n        emergencyOrgans[organTokenId] = true;\r\n        \r\n        OrganNFT.OrganMetadata memory organ = OrganNFT(organNFTContract).getOrganMetadata(organTokenId);\r\n        OrganType organType = OrganType(uint8(organ.organType));\r\n        \r\n        // Find best emergency match across all regions\r\n        address bestRecipient = _findEmergencyMatch(organTokenId, organType, maxDistance);\r\n        \r\n        if (bestRecipient != address(0)) {\r\n            emit EmergencyMatchTriggered(organTokenId, bestRecipient);\r\n        }\r\n    }\r\n\r\n    /*//////////////////////////////////////////////////////////////\r\n                        CONFIGURATION & ADMIN\r\n    //////////////////////////////////////////////////////////////*/\r\n\r\n    /// @notice Update scoring parameters\r\n    /// @param parameter Name of the parameter\r\n    /// @param weight New weight value\r\n    function updateScoringWeight(string memory parameter, uint256 weight) \r\n        external \r\n        onlyOwner \r\n    {\r\n        scoringWeights[parameter] = weight;\r\n        emit ScoringParametersUpdated(parameter, weight);\r\n    }\r\n\r\n    /// @notice Update contract addresses\r\n    function updateContractAddresses(\r\n        address _organNFT,\r\n        address _recipient,\r\n        address _donor,\r\n        address _hospital,\r\n        address _organQuality\r\n    ) external onlyOwner {\r\n        if (_organNFT != address(0)) organNFTContract = _organNFT;\r\n        if (_recipient != address(0)) recipientContract = _recipient;\r\n        if (_donor != address(0)) donorContract = _donor;\r\n        if (_hospital != address(0)) hospitalContract = _hospital;\r\n        if (_organQuality != address(0)) organQualityContract = _organQuality;\r\n    }\r\n\r\n    /*//////////////////////////////////////////////////////////////\r\n                        INTERNAL HELPER FUNCTIONS\r\n    //////////////////////////////////////////////////////////////*/\r\n\r\n    /// @notice Calculate detailed match score with all parameters\r\n    function _calculateDetailedMatchScore(uint256 organTokenId, address recipientAddress)\r\n        internal\r\n        view\r\n        returns (MatchScore memory score)\r\n    {\r\n        OrganNFT.OrganMetadata memory organ = OrganNFT(organNFTContract).getOrganMetadata(organTokenId);\r\n        \r\n        // Try to get recipient data\r\n        try Recipient(recipientContract).getRecipientInfo(recipientAddress) returns (Recipient.RecipientData memory recipient) {\r\n            // Blood compatibility (0-30 points)\r\n            score.bloodCompatibility = _calculateBloodCompatibility(organ.bloodType, recipient.bloodType);\r\n            \r\n            // Medical urgency (0-25 points)\r\n            score.urgencyScore = _calculateUrgencyScore(recipientAddress, OrganType(uint8(organ.organType)));\r\n            \r\n            // Waiting time (0-20 points)\r\n            score.waitingTimeScore = _calculateWaitingTimeScore(recipientAddress, OrganType(uint8(organ.organType)));\r\n            \r\n            // Geographic proximity (0-15 points)\r\n            score.geographicScore = _calculateGeographicScore(organ.donorAddress, recipient.location.city);\r\n            \r\n            // Medical compatibility (0-10 points)\r\n            score.medicalScore = _calculateMedicalCompatibility(organTokenId, recipientAddress);\r\n            \r\n            // Calculate total score\r\n            score.totalScore = score.bloodCompatibility + score.urgencyScore + \r\n                             score.waitingTimeScore + score.geographicScore + score.medicalScore;\r\n            \r\n            // Determine compatibility\r\n            score.isCompatible = score.bloodCompatibility > 0 && \r\n                               score.totalScore >= scoringWeights[\"minimumScore\"];\r\n            \r\n        } catch {\r\n            // If recipient data cannot be retrieved, return zero score\r\n            score.isCompatible = false;\r\n        }\r\n\r\n        return score;\r\n    }\r\n\r\n    /// @notice Calculate blood type compatibility score\r\n    function _calculateBloodCompatibility(string memory donorBlood, string memory recipientBlood)\r\n        internal\r\n        pure\r\n        returns (uint256)\r\n    {\r\n        bytes32 donorHash = keccak256(bytes(donorBlood));\r\n        bytes32 recipientHash = keccak256(bytes(recipientBlood));\r\n        \r\n        // Perfect match\r\n        if (donorHash == recipientHash) return 30;\r\n        \r\n        // Universal donor O-\r\n        if (donorHash == keccak256(bytes(\"O-\"))) return 25;\r\n        \r\n        // Universal recipient AB+\r\n        if (recipientHash == keccak256(bytes(\"AB+\"))) return 25;\r\n        \r\n        // Partial compatibility rules\r\n        if (donorHash == keccak256(bytes(\"O+\"))) {\r\n            if (recipientHash == keccak256(bytes(\"A+\")) || \r\n                recipientHash == keccak256(bytes(\"B+\")) || \r\n                recipientHash == keccak256(bytes(\"AB+\"))) return 20;\r\n        }\r\n        \r\n        return 0; // Incompatible\r\n    }\r\n\r\n    /// @notice Calculate urgency score based on recipient priority\r\n    function _calculateUrgencyScore(address recipientAddress, OrganType /* organType */)\r\n        internal\r\n        view\r\n        returns (uint256)\r\n    {\r\n        Priority priority = recipientPriority[recipientAddress];\r\n        \r\n        if (priority == Priority.Emergency) return 25;\r\n        if (priority == Priority.Critical) return 20;\r\n        if (priority == Priority.High) return 15;\r\n        if (priority == Priority.Medium) return 10;\r\n        return 5; // Low priority\r\n    }\r\n\r\n    /// @notice Calculate waiting time score based on recipient's time on waiting list\r\n    function _calculateWaitingTimeScore(address recipientAddress, OrganType /* organType */)\r\n        internal\r\n        view\r\n        returns (uint256)\r\n    {\r\n        // Simplified waiting time calculation\r\n        // In reality, you'd get the actual timestamp from waiting list\r\n        Priority priority = recipientPriority[recipientAddress];\r\n        \r\n        // Higher priority gets higher base score\r\n        if (priority == Priority.Emergency) return 20;\r\n        if (priority == Priority.Critical) return 15;\r\n        return 10; // Default score\r\n    }\r\n\r\n    /// @notice Calculate geographic proximity score\r\n    function _calculateGeographicScore(address /* donorAddress */, string memory /* recipientCity */)\r\n        internal\r\n        pure\r\n        returns (uint256)\r\n    {\r\n        // Simplified geographic scoring\r\n        // In reality, you'd use actual geographic data\r\n        return 10; // Placeholder - same region assumed\r\n    }\r\n\r\n    /// @notice Calculate medical compatibility score\r\n    function _calculateMedicalCompatibility(uint256 organTokenId, address recipientAddress)\r\n        internal\r\n        view\r\n        returns (uint256)\r\n    {\r\n        // Try to use OrganQuality contract for compatibility check\r\n        try OrganQuality(organQualityContract).getOrganCompatibility(organTokenId, recipientAddress) returns (bool isCompatible) {\r\n            return isCompatible ? 10 : 0;\r\n        } catch {\r\n            return 5; // Default score if quality check fails\r\n        }\r\n    }\r\n\r\n    /// @notice Remove recipient from waiting list\r\n    function _removeFromWaitingList(address recipientAddress, OrganType /* organType */)\r\n        internal\r\n    {\r\n        // Mark recipient as inactive by resetting their priority\r\n        recipientPriority[recipientAddress] = Priority.Low;\r\n    }\r\n\r\n    /// @notice Get donor's region\r\n    function _getDonorRegion(address /* donorAddress */)\r\n        internal\r\n        pure\r\n        returns (string memory)\r\n    {\r\n        // Simplified - return default region\r\n        return \"default\";\r\n    }\r\n\r\n    /// @notice Find best emergency match\r\n    function _findEmergencyMatch(uint256 /* organTokenId */, OrganType /* organType */, uint256 /* maxDistance */)\r\n        internal\r\n        pure\r\n        returns (address)\r\n    {\r\n        // Simplified emergency matching logic\r\n        return address(0); // Placeholder\r\n    }\r\n\r\n    /// @notice Quick sort implementation for waiting list\r\n    function _quickSortWaitingList(WaitingListEntry[] memory arr, int256 left, int256 right)\r\n        internal\r\n        pure\r\n    {\r\n        if (left < right) {\r\n            int256 pivotIndex = _partition(arr, left, right);\r\n            _quickSortWaitingList(arr, left, pivotIndex - 1);\r\n            _quickSortWaitingList(arr, pivotIndex + 1, right);\r\n        }\r\n    }\r\n\r\n    /// @notice Partition function for quick sort\r\n    function _partition(WaitingListEntry[] memory arr, int256 left, int256 right)\r\n        internal\r\n        pure\r\n        returns (int256)\r\n    {\r\n        uint256 pivotPriority = uint256(arr[uint256(right)].priority);\r\n        int256 i = left - 1;\r\n\r\n        for (int256 j = left; j < right; j++) {\r\n            if (uint256(arr[uint256(j)].priority) >= pivotPriority) {\r\n                i++;\r\n                // Swap elements\r\n                WaitingListEntry memory tempElement = arr[uint256(i)];\r\n                arr[uint256(i)] = arr[uint256(j)];\r\n                arr[uint256(j)] = tempElement;\r\n            }\r\n        }\r\n\r\n        // Swap pivot\r\n        WaitingListEntry memory pivotTemp = arr[uint256(i + 1)];\r\n        arr[uint256(i + 1)] = arr[uint256(right)];\r\n        arr[uint256(right)] = pivotTemp;\r\n\r\n        return i + 1;\r\n    }\r\n\r\n    /// @notice Initialize default scoring weights\r\n    function _initializeScoringWeights() internal {\r\n        scoringWeights[\"minimumScore\"] = 40;\r\n        scoringWeights[\"bloodWeight\"] = 30;\r\n        scoringWeights[\"urgencyWeight\"] = 25;\r\n        scoringWeights[\"waitingWeight\"] = 20;\r\n        scoringWeights[\"geographicWeight\"] = 15;\r\n        scoringWeights[\"medicalWeight\"] = 10;\r\n    }\r\n\r\n    /*//////////////////////////////////////////////////////////////\r\n                        VIEW FUNCTIONS\r\n    //////////////////////////////////////////////////////////////*/\r\n\r\n    /// @notice Get match proposals for an organ\r\n    function getOrganMatchProposals(uint256 organTokenId)\r\n        external\r\n        view\r\n        returns (MatchProposal[] memory)\r\n    {\r\n        return organMatchProposals[organTokenId];\r\n    }\r\n\r\n    /// @notice Get recipient's matched organs\r\n    function getRecipientMatches(address recipientAddress)\r\n        external\r\n        view\r\n        returns (uint256[] memory)\r\n    {\r\n        return recipientMatches[recipientAddress];\r\n    }\r\n\r\n    /// @notice Get scoring weight for a parameter\r\n    function getScoringWeight(string memory parameter)\r\n        external\r\n        view\r\n        returns (uint256)\r\n    {\r\n        return scoringWeights[parameter];\r\n    }\r\n}",
  "sourcePath": "D:\\Summers\\Final year Project\\OrganDonationSystem\\contracts\\OrganMatching.sol",
  "compiler": {
    "name": "solc",
    "version": "0.8.20+commit.a1b79de6.Linux.g++"
  },
  "schemaVersion": "3.4.16",
  "updatedAt": "2025-11-03T20:11:49.373Z",
  "networkType": "ethereum",
  "devdoc": {
    "details": "Integrates with existing Donor, Recipient, Hospital, OrganNFT, and OrganQuality contracts",
    "kind": "dev",
    "methods": {
      "addToWaitingList(address,uint8,uint256,string,uint8)": {
        "params": {
          "organType": "Type of organ needed",
          "priority": "Priority level",
          "recipientAddress": "Address of the recipient",
          "region": "Geographic region",
          "urgencyLevel": "Urgency level (1-10)"
        }
      },
      "allocateOrgan(uint256,address)": {
        "params": {
          "organTokenId": "The NFT token ID of the organ",
          "recipientAddress": "Address of the chosen recipient"
        }
      },
      "calculateMatchScore(uint256,address)": {
        "params": {
          "organTokenId": "The NFT token ID of the organ",
          "recipientAddress": "Address of the potential recipient"
        },
        "returns": {
          "score": "Detailed match score breakdown"
        }
      },
      "findCompatibleRecipients(uint256)": {
        "params": {
          "organTokenId": "The NFT token ID of the organ"
        },
        "returns": {
          "compatibleRecipients": "Array of recipient addresses with match scores"
        }
      },
      "getWaitingListByOrgan(uint8,string)": {
        "params": {
          "organType": "Type of organ (Heart, Liver, Kidneys)",
          "region": "Geographic region"
        },
        "returns": {
          "waitingList": "Array of waiting list entries"
        }
      },
      "prioritizeByUrgency(uint8,string)": {
        "params": {
          "organType": "Type of organ (Heart, Liver, Kidneys)",
          "region": "Geographic region"
        },
        "returns": {
          "prioritizedList": "Sorted array of waiting list entries"
        }
      },
      "triggerEmergencyMatch(uint256,uint256)": {
        "params": {
          "maxDistance": "Maximum geographic distance for matching",
          "organTokenId": "The NFT token ID of the organ"
        }
      },
      "updateScoringWeight(string,uint256)": {
        "params": {
          "parameter": "Name of the parameter",
          "weight": "New weight value"
        }
      },
      "updateWaitingListPriority(address,uint8,uint256,uint8,string)": {
        "params": {
          "newPriority": "New priority level",
          "newUrgencyLevel": "New urgency level (1-10)",
          "organType": "Type of organ",
          "recipientAddress": "Address of the recipient"
        }
      }
    },
    "title": "Smart Matching Algorithm for Global NFT-Based Organ Donation System",
    "version": 1
  },
  "userdoc": {
    "kind": "user",
    "methods": {
      "addToWaitingList(address,uint8,uint256,string,uint8)": {
        "notice": "Add recipient to waiting list"
      },
      "allocateOrgan(uint256,address)": {
        "notice": "Allocate organ to the best matching recipient"
      },
      "calculateMatchScore(uint256,address)": {
        "notice": "Calculate comprehensive match score between organ and recipient"
      },
      "findCompatibleRecipients(uint256)": {
        "notice": "Find all compatible recipients for a given organ"
      },
      "getOrganMatchProposals(uint256)": {
        "notice": "Get match proposals for an organ"
      },
      "getRecipientMatches(address)": {
        "notice": "Get recipient's matched organs"
      },
      "getScoringWeight(string)": {
        "notice": "Get scoring weight for a parameter"
      },
      "getWaitingListByOrgan(uint8,string)": {
        "notice": "Get waiting list for specific organ type and region"
      },
      "prioritizeByUrgency(uint8,string)": {
        "notice": "Get prioritized waiting list sorted by urgency and waiting time"
      },
      "triggerEmergencyMatch(uint256,uint256)": {
        "notice": "Trigger emergency matching for critical organs"
      },
      "updateContractAddresses(address,address,address,address,address)": {
        "notice": "Update contract addresses"
      },
      "updateScoringWeight(string,uint256)": {
        "notice": "Update scoring parameters"
      },
      "updateWaitingListPriority(address,uint8,uint256,uint8,string)": {
        "notice": "Update recipient priority on waiting list"
      }
    },
    "notice": "Implements intelligent organ-recipient matching with scoring and prioritization",
    "version": 1
  }
}