{
  "contractName": "OrganQuality",
  "abi": [
    {
      "inputs": [
        {
          "internalType": "address",
          "name": "_organNFTContract",
          "type": "address"
        }
      ],
      "stateMutability": "nonpayable",
      "type": "constructor"
    },
    {
      "inputs": [],
      "name": "InvalidRecipient",
      "type": "error"
    },
    {
      "inputs": [],
      "name": "InvalidTokenId",
      "type": "error"
    },
    {
      "inputs": [],
      "name": "NotAuthorized",
      "type": "error"
    },
    {
      "inputs": [],
      "name": "OrganNotAvailable",
      "type": "error"
    },
    {
      "anonymous": false,
      "inputs": [
        {
          "indexed": true,
          "internalType": "uint256",
          "name": "tokenId",
          "type": "uint256"
        },
        {
          "indexed": true,
          "internalType": "address",
          "name": "recipient",
          "type": "address"
        },
        {
          "indexed": false,
          "internalType": "bool",
          "name": "isCompatible",
          "type": "bool"
        }
      ],
      "name": "CompatibilityChecked",
      "type": "event"
    },
    {
      "anonymous": false,
      "inputs": [
        {
          "indexed": true,
          "internalType": "uint256",
          "name": "tokenId",
          "type": "uint256"
        },
        {
          "indexed": false,
          "internalType": "string",
          "name": "ipfsHash",
          "type": "string"
        }
      ],
      "name": "MedicalDataUpdated",
      "type": "event"
    },
    {
      "anonymous": false,
      "inputs": [
        {
          "indexed": true,
          "internalType": "uint256",
          "name": "tokenId",
          "type": "uint256"
        },
        {
          "indexed": false,
          "internalType": "bool",
          "name": "isValid",
          "type": "bool"
        }
      ],
      "name": "OrganQualityValidated",
      "type": "event"
    },
    {
      "anonymous": false,
      "inputs": [
        {
          "indexed": true,
          "internalType": "uint256",
          "name": "tokenId",
          "type": "uint256"
        },
        {
          "indexed": false,
          "internalType": "uint256",
          "name": "resultCount",
          "type": "uint256"
        }
      ],
      "name": "TestResultsAdded",
      "type": "event"
    },
    {
      "inputs": [
        {
          "internalType": "uint256",
          "name": "",
          "type": "uint256"
        }
      ],
      "name": "organMedicalData",
      "outputs": [
        {
          "internalType": "string",
          "name": "ipfsHash",
          "type": "string"
        },
        {
          "internalType": "uint256",
          "name": "lastUpdated",
          "type": "uint256"
        },
        {
          "internalType": "bool",
          "name": "isValid",
          "type": "bool"
        }
      ],
      "stateMutability": "view",
      "type": "function",
      "constant": true
    },
    {
      "inputs": [],
      "name": "organNFTContract",
      "outputs": [
        {
          "internalType": "address",
          "name": "",
          "type": "address"
        }
      ],
      "stateMutability": "view",
      "type": "function",
      "constant": true
    },
    {
      "inputs": [
        {
          "internalType": "uint256",
          "name": "",
          "type": "uint256"
        },
        {
          "internalType": "uint256",
          "name": "",
          "type": "uint256"
        }
      ],
      "name": "organTestResults",
      "outputs": [
        {
          "internalType": "string",
          "name": "testType",
          "type": "string"
        },
        {
          "internalType": "string",
          "name": "resultHash",
          "type": "string"
        },
        {
          "internalType": "uint256",
          "name": "timestamp",
          "type": "uint256"
        },
        {
          "internalType": "bool",
          "name": "isApproved",
          "type": "bool"
        }
      ],
      "stateMutability": "view",
      "type": "function",
      "constant": true
    },
    {
      "inputs": [],
      "name": "owner",
      "outputs": [
        {
          "internalType": "address",
          "name": "",
          "type": "address"
        }
      ],
      "stateMutability": "view",
      "type": "function",
      "constant": true
    },
    {
      "inputs": [
        {
          "internalType": "uint256",
          "name": "tokenId",
          "type": "uint256"
        },
        {
          "components": [
            {
              "internalType": "string",
              "name": "ipfsHash",
              "type": "string"
            },
            {
              "internalType": "uint256",
              "name": "lastUpdated",
              "type": "uint256"
            },
            {
              "internalType": "bool",
              "name": "isValid",
              "type": "bool"
            }
          ],
          "internalType": "struct OrganQuality.MedicalData",
          "name": "data",
          "type": "tuple"
        }
      ],
      "name": "updateMedicalData",
      "outputs": [],
      "stateMutability": "nonpayable",
      "type": "function"
    },
    {
      "inputs": [
        {
          "internalType": "uint256",
          "name": "tokenId",
          "type": "uint256"
        },
        {
          "components": [
            {
              "internalType": "string",
              "name": "testType",
              "type": "string"
            },
            {
              "internalType": "string",
              "name": "resultHash",
              "type": "string"
            },
            {
              "internalType": "uint256",
              "name": "timestamp",
              "type": "uint256"
            },
            {
              "internalType": "bool",
              "name": "isApproved",
              "type": "bool"
            }
          ],
          "internalType": "struct OrganQuality.TestResult[]",
          "name": "results",
          "type": "tuple[]"
        }
      ],
      "name": "addTestResults",
      "outputs": [],
      "stateMutability": "nonpayable",
      "type": "function"
    },
    {
      "inputs": [
        {
          "internalType": "uint256",
          "name": "tokenId",
          "type": "uint256"
        }
      ],
      "name": "validateOrganQuality",
      "outputs": [],
      "stateMutability": "nonpayable",
      "type": "function"
    },
    {
      "inputs": [
        {
          "internalType": "uint256",
          "name": "tokenId",
          "type": "uint256"
        },
        {
          "internalType": "address",
          "name": "recipientAddress",
          "type": "address"
        }
      ],
      "name": "getOrganCompatibility",
      "outputs": [
        {
          "internalType": "bool",
          "name": "",
          "type": "bool"
        }
      ],
      "stateMutability": "view",
      "type": "function",
      "constant": true
    },
    {
      "inputs": [
        {
          "internalType": "uint256",
          "name": "tokenId",
          "type": "uint256"
        }
      ],
      "name": "getTestResultsCount",
      "outputs": [
        {
          "internalType": "uint256",
          "name": "",
          "type": "uint256"
        }
      ],
      "stateMutability": "view",
      "type": "function",
      "constant": true
    },
    {
      "inputs": [
        {
          "internalType": "uint256",
          "name": "tokenId",
          "type": "uint256"
        },
        {
          "internalType": "uint256",
          "name": "index",
          "type": "uint256"
        }
      ],
      "name": "getTestResult",
      "outputs": [
        {
          "components": [
            {
              "internalType": "string",
              "name": "testType",
              "type": "string"
            },
            {
              "internalType": "string",
              "name": "resultHash",
              "type": "string"
            },
            {
              "internalType": "uint256",
              "name": "timestamp",
              "type": "uint256"
            },
            {
              "internalType": "bool",
              "name": "isApproved",
              "type": "bool"
            }
          ],
          "internalType": "struct OrganQuality.TestResult",
          "name": "",
          "type": "tuple"
        }
      ],
      "stateMutability": "view",
      "type": "function",
      "constant": true
    },
    {
      "inputs": [
        {
          "internalType": "address",
          "name": "_newContract",
          "type": "address"
        }
      ],
      "name": "updateOrganNFTContract",
      "outputs": [],
      "stateMutability": "nonpayable",
      "type": "function"
    }
  ],
  "bytecode": "0x608060405234801561001057600080fd5b50604051620021e3380380620021e383398101604081905261003191610064565b60008054336001600160a01b031991821617909155600180549091166001600160a01b0392909216919091179055610094565b60006020828403121561007657600080fd5b81516001600160a01b038116811461008d57600080fd5b9392505050565b61213f80620000a46000396000f3fe608060405234801561001057600080fd5b50600436106100a95760003560e01c8063801ad7a911610071578063801ad7a91461015c5780638da5cb5b1461017d578063b2c1616914610190578063c09cda53146101b3578063dafb0e69146101c6578063f26ed075146101d957600080fd5b806308e8c827146100ae578063133dca7d146100d95780632dc7e593146100fc5780634aeb0ee61461011c57806362507f5d14610147575b600080fd5b6100c16100bc366004611695565b6101ec565b6040516100d0939291906116fe565b60405180910390f35b6100ec6100e7366004611740565b61029a565b60405190151581526020016100d0565b61010f61010a366004611770565b6106f1565b6040516100d09190611792565b60015461012f906001600160a01b031681565b6040516001600160a01b0390911681526020016100d0565b61015a610155366004611695565b61097e565b005b61016f61016a366004611695565b610cc8565b6040519081526020016100d0565b60005461012f906001600160a01b031681565b6101a361019e366004611770565b610d6f565b6040516100d094939291906117ee565b61015a6101c136600461182c565b610ed0565b61015a6101d43660046119b6565b610f1d565b61015a6101e7366004611a4f565b61122b565b60026020526000908152604090208054819061020790611b98565b80601f016020809104026020016040519081016040528092919081815260200182805461023390611b98565b80156102805780601f1061025557610100808354040283529160200191610280565b820191906000526020600020905b81548152906001019060200180831161026357829003601f168201915b50505050600183015460029093015491929160ff16905083565b600080546001600160a01b0316331461048e57600160009054906101000a90046001600160a01b03166001600160a01b03166311e1c24a6040518163ffffffff1660e01b8152600401602060405180830381865afa92505050801561031c575060408051601f3d908101601f1916820190925261031991810190611bdc565b60015b6103395760405163ea8e4eb560e01b815260040160405180910390fd5b336001600160a01b038216148015906103da5750600160009054906101000a90046001600160a01b03166001600160a01b0316630a666e5a6040518163ffffffff1660e01b8152600401602060405180830381865afa1580156103a0573d6000803e3d6000fd5b505050506040513d601f19601f820116820180604052508101906103c49190611bdc565b6001600160a01b0316336001600160a01b031614155b801561046e5750600160009054906101000a90046001600160a01b03166001600160a01b03166347dbb71a6040518163ffffffff1660e01b8152600401602060405180830381865afa158015610434573d6000803e3d6000fd5b505050506040513d601f19601f820116820180604052508101906104589190611bdc565b6001600160a01b0316336001600160a01b031614155b1561048c5760405163ea8e4eb560e01b815260040160405180910390fd5b505b600154604051634f558e7960e01b81526004810185905284916001600160a01b031690634f558e7990602401602060405180830381865afa1580156104d7573d6000803e3d6000fd5b505050506040513d601f19601f820116820180604052508101906104fb9190611c04565b610518576040516307ed98ed60e31b815260040160405180910390fd5b600154604051633ea6e5f160e11b8152600481018690526001600160a01b03909116906000908290637d4dcbe290602401600060405180830381865afa158015610566573d6000803e3d6000fd5b505050506040513d6000823e601f3d908101601f1916820160405261058e9190810190611c8c565b9050816001600160a01b0316630a666e5a6040518163ffffffff1660e01b8152600401602060405180830381865afa9250505080156105ea575060408051601f3d908101601f191682019092526105e791810190611bdc565b60015b61060d5750506000848152600260208190526040909120015460ff1691506106ea565b6040516358a3c3c160e01b81526001600160a01b03878116600483015282916000918316906358a3c3c190602401600060405180830381865afa158015610658573d6000803e3d6000fd5b505050506040513d6000823e601f3d908101601f191682016040526106809190810190611e40565b905080602001516000036106a757604051634e46966960e11b815260040160405180910390fd5b60006106bb856040015183604001516115c9565b90508080156106dc575060008a8152600260208190526040909120015460ff165b97506106ea95505050505050565b5092915050565b61071e60405180608001604052806060815260200160608152602001600081526020016000151581525090565b600154604051634f558e7960e01b81526004810185905284916001600160a01b031690634f558e7990602401602060405180830381865afa158015610767573d6000803e3d6000fd5b505050506040513d601f19601f8201168201806040525081019061078b9190611c04565b6107a8576040516307ed98ed60e31b815260040160405180910390fd5b60008481526003602052604090205483106107ff5760405162461bcd60e51b8152602060048201526013602482015272496e646578206f7574206f6620626f756e647360681b604482015260640160405180910390fd5b600084815260036020526040902080548490811061081f5761081f611f34565b906000526020600020906004020160405180608001604052908160008201805461084890611b98565b80601f016020809104026020016040519081016040528092919081815260200182805461087490611b98565b80156108c15780601f10610896576101008083540402835291602001916108c1565b820191906000526020600020905b8154815290600101906020018083116108a457829003601f168201915b505050505081526020016001820180546108da90611b98565b80601f016020809104026020016040519081016040528092919081815260200182805461090690611b98565b80156109535780601f1061092857610100808354040283529160200191610953565b820191906000526020600020905b81548152906001019060200180831161093657829003601f168201915b50505091835250506002820154602082015260039091015460ff161515604090910152949350505050565b6000546001600160a01b03163314610b7157600160009054906101000a90046001600160a01b03166001600160a01b03166311e1c24a6040518163ffffffff1660e01b8152600401602060405180830381865afa9250505080156109ff575060408051601f3d908101601f191682019092526109fc91810190611bdc565b60015b610a1c5760405163ea8e4eb560e01b815260040160405180910390fd5b336001600160a01b03821614801590610abd5750600160009054906101000a90046001600160a01b03166001600160a01b0316630a666e5a6040518163ffffffff1660e01b8152600401602060405180830381865afa158015610a83573d6000803e3d6000fd5b505050506040513d601f19601f82011682018060405250810190610aa79190611bdc565b6001600160a01b0316336001600160a01b031614155b8015610b515750600160009054906101000a90046001600160a01b03166001600160a01b03166347dbb71a6040518163ffffffff1660e01b8152600401602060405180830381865afa158015610b17573d6000803e3d6000fd5b505050506040513d601f19601f82011682018060405250810190610b3b9190611bdc565b6001600160a01b0316336001600160a01b031614155b15610b6f5760405163ea8e4eb560e01b815260040160405180910390fd5b505b600154604051634f558e7960e01b81526004810183905282916001600160a01b031690634f558e7990602401602060405180830381865afa158015610bba573d6000803e3d6000fd5b505050506040513d601f19601f82011682018060405250810190610bde9190611c04565b610bfb576040516307ed98ed60e31b815260040160405180910390fd5b604080516020808201835260009182905284825260029052818120915190917fc5d2460186f7233c927e7db2dcc703c0e500b653ca82273b7bfad8045d85a47091610c469190611f4a565b604051809103902014158015610c69575060008381526003602052604090205415155b600084815260026020818152604092839020909101805460ff1916841515908117909155915191825291925084917f19a197c63a92b4a76bb6aa251d1525a3c514bb9a31e9643990e58dc16421e74b91015b60405180910390a2505050565b600154604051634f558e7960e01b81526004810183905260009183916001600160a01b0390911690634f558e7990602401602060405180830381865afa158015610d16573d6000803e3d6000fd5b505050506040513d601f19601f82011682018060405250810190610d3a9190611c04565b610d57576040516307ed98ed60e31b815260040160405180910390fd5b60008381526003602052604090205491505b50919050565b60036020528160005260406000208181548110610d8b57600080fd5b906000526020600020906004020160009150915050806000018054610daf90611b98565b80601f0160208091040260200160405190810160405280929190818152602001828054610ddb90611b98565b8015610e285780601f10610dfd57610100808354040283529160200191610e28565b820191906000526020600020905b815481529060010190602001808311610e0b57829003601f168201915b505050505090806001018054610e3d90611b98565b80601f0160208091040260200160405190810160405280929190818152602001828054610e6990611b98565b8015610eb65780601f10610e8b57610100808354040283529160200191610eb6565b820191906000526020600020905b815481529060010190602001808311610e9957829003601f168201915b50505050600283015460039093015491929160ff16905084565b6000546001600160a01b03163314610efb5760405163ea8e4eb560e01b815260040160405180910390fd5b600180546001600160a01b0319166001600160a01b0392909216919091179055565b6000546001600160a01b0316331461111057600160009054906101000a90046001600160a01b03166001600160a01b03166311e1c24a6040518163ffffffff1660e01b8152600401602060405180830381865afa925050508015610f9e575060408051601f3d908101601f19168201909252610f9b91810190611bdc565b60015b610fbb5760405163ea8e4eb560e01b815260040160405180910390fd5b336001600160a01b0382161480159061105c5750600160009054906101000a90046001600160a01b03166001600160a01b0316630a666e5a6040518163ffffffff1660e01b8152600401602060405180830381865afa158015611022573d6000803e3d6000fd5b505050506040513d601f19601f820116820180604052508101906110469190611bdc565b6001600160a01b0316336001600160a01b031614155b80156110f05750600160009054906101000a90046001600160a01b03166001600160a01b03166347dbb71a6040518163ffffffff1660e01b8152600401602060405180830381865afa1580156110b6573d6000803e3d6000fd5b505050506040513d601f19601f820116820180604052508101906110da9190611bdc565b6001600160a01b0316336001600160a01b031614155b1561110e5760405163ea8e4eb560e01b815260040160405180910390fd5b505b600154604051634f558e7960e01b81526004810184905283916001600160a01b031690634f558e7990602401602060405180830381865afa158015611159573d6000803e3d6000fd5b505050506040513d601f19601f8201168201806040525081019061117d9190611c04565b61119a576040516307ed98ed60e31b815260040160405180910390fd5b6040805160608101825283518152426020808301919091526000828401819052868152600290915291909120815181906111d4908261200f565b50602082015160018201556040918201516002909101805460ff19169115159190911790558251905184917f0ca71f097905a3f139c32696cfe0136745fc42d4a6dbfb1f4005f25734bcc12f91610cbb91906120cf565b6000546001600160a01b0316331461141e57600160009054906101000a90046001600160a01b03166001600160a01b03166311e1c24a6040518163ffffffff1660e01b8152600401602060405180830381865afa9250505080156112ac575060408051601f3d908101601f191682019092526112a991810190611bdc565b60015b6112c95760405163ea8e4eb560e01b815260040160405180910390fd5b336001600160a01b0382161480159061136a5750600160009054906101000a90046001600160a01b03166001600160a01b0316630a666e5a6040518163ffffffff1660e01b8152600401602060405180830381865afa158015611330573d6000803e3d6000fd5b505050506040513d601f19601f820116820180604052508101906113549190611bdc565b6001600160a01b0316336001600160a01b031614155b80156113fe5750600160009054906101000a90046001600160a01b03166001600160a01b03166347dbb71a6040518163ffffffff1660e01b8152600401602060405180830381865afa1580156113c4573d6000803e3d6000fd5b505050506040513d601f19601f820116820180604052508101906113e89190611bdc565b6001600160a01b0316336001600160a01b031614155b1561141c5760405163ea8e4eb560e01b815260040160405180910390fd5b505b600154604051634f558e7960e01b81526004810184905283916001600160a01b031690634f558e7990602401602060405180830381865afa158015611467573d6000803e3d6000fd5b505050506040513d601f19601f8201168201806040525081019061148b9190611c04565b6114a8576040516307ed98ed60e31b815260040160405180910390fd5b60005b8251811015611595576003600085815260200190815260200160002060405180608001604052808584815181106114e4576114e4611f34565b602002602001015160000151815260200185848151811061150757611507611f34565b6020908102919091018101518101518252428282015260006040909201829052835460018101855593825290208151919260040201908190611549908261200f565b506020820151600182019061155e908261200f565b50604082015160028201556060909101516003909101805460ff19169115159190911790558061158d816120e2565b9150506114ab565b50827f8c221c8dbdd1615083f351f215a540789a307270d6d90a485179ab1917ce08998351604051610cbb91815260200190565b81516020808401919091208251838301206040805180820190915260028152614f2d60f01b9301929092526000917f24ee4dfd51ea61da0c7e24c25c8c8d13195e7f61972e3f3ce41c702aef172bdd82016116295760019250505061168f565b60408051808201909152600381526241422b60e81b6020909101527fe069aaba111c183a1fde677842e779bedeab6cff9e204992bbb1c54a2a1da06f81016116765760019250505061168f565b8082036116885760019250505061168f565b6000925050505b92915050565b6000602082840312156116a757600080fd5b5035919050565b60005b838110156116c95781810151838201526020016116b1565b50506000910152565b600081518084526116ea8160208601602086016116ae565b601f01601f19169290920160200192915050565b60608152600061171160608301866116d2565b602083019490945250901515604090910152919050565b6001600160a01b038116811461173d57600080fd5b50565b6000806040838503121561175357600080fd5b82359150602083013561176581611728565b809150509250929050565b6000806040838503121561178357600080fd5b50508035926020909101359150565b6020815260008251608060208401526117ae60a08401826116d2565b90506020840151601f198483030160408501526117cb82826116d2565b915050604084015160608401526060840151151560808401528091505092915050565b60808152600061180160808301876116d2565b828103602084015261181381876116d2565b6040840195909552505090151560609091015292915050565b60006020828403121561183e57600080fd5b813561184981611728565b9392505050565b634e487b7160e01b600052604160045260246000fd5b6040516060810167ffffffffffffffff8111828210171561188957611889611850565b60405290565b6040516080810167ffffffffffffffff8111828210171561188957611889611850565b604051610160810167ffffffffffffffff8111828210171561188957611889611850565b60405160c0810167ffffffffffffffff8111828210171561188957611889611850565b604051601f8201601f1916810167ffffffffffffffff8111828210171561192257611922611850565b604052919050565b600067ffffffffffffffff82111561194457611944611850565b50601f01601f191660200190565b600082601f83011261196357600080fd5b81356119766119718261192a565b6118f9565b81815284602083860101111561198b57600080fd5b816020850160208301376000918101602001919091529392505050565b801515811461173d57600080fd5b600080604083850312156119c957600080fd5b82359150602083013567ffffffffffffffff808211156119e857600080fd5b90840190606082870312156119fc57600080fd5b611a04611866565b823582811115611a1357600080fd5b611a1f88828601611952565b8252506020830135602082015260408301359250611a3c836119a8565b8260408201528093505050509250929050565b60008060408385031215611a6257600080fd5b8235915060208084013567ffffffffffffffff80821115611a8257600080fd5b818601915086601f830112611a9657600080fd5b813581811115611aa857611aa8611850565b8060051b611ab78582016118f9565b918252838101850191858101908a841115611ad157600080fd5b86860192505b83831015611b8757823585811115611aef5760008081fd5b86016080818d03601f1901811315611b075760008081fd5b611b0f61188f565b8983013588811115611b215760008081fd5b611b2f8f8c83870101611952565b825250604083013588811115611b455760008081fd5b611b538f8c83870101611952565b828c01525060608381013560408301529282013592611b71846119a8565b8101929092525082529186019190860190611ad7565b809750505050505050509250929050565b600181811c90821680611bac57607f821691505b602082108103610d6957634e487b7160e01b600052602260045260246000fd5b8051611bd781611728565b919050565b600060208284031215611bee57600080fd5b815161184981611728565b8051611bd7816119a8565b600060208284031215611c1657600080fd5b8151611849816119a8565b805160038110611bd757600080fd5b600082601f830112611c4157600080fd5b8151611c4f6119718261192a565b818152846020838601011115611c6457600080fd5b611c758260208301602087016116ae565b949350505050565b805160058110611bd757600080fd5b600060208284031215611c9e57600080fd5b815167ffffffffffffffff80821115611cb657600080fd5b908301906101608286031215611ccb57600080fd5b611cd36118b2565b611cdc83611bcc565b8152611cea60208401611c21565b6020820152604083015182811115611d0157600080fd5b611d0d87828601611c30565b604083015250611d1f60608401611c7d565b60608201526080830151608082015260a083015160a0820152611d4460c08401611bcc565b60c0820152611d5560e08401611bcc565b60e08201526101008084015183811115611d6e57600080fd5b611d7a88828701611c30565b8284015250506101209150611d90828401611bf9565b9181019190915261014091820151918101919091529392505050565b600060608284031215611dbe57600080fd5b611dc6611866565b9050815167ffffffffffffffff80821115611de057600080fd5b611dec85838601611c30565b83526020840151915080821115611e0257600080fd5b611e0e85838601611c30565b60208401526040840151915080821115611e2757600080fd5b50611e3484828501611c30565b60408301525092915050565b600060208284031215611e5257600080fd5b815167ffffffffffffffff80821115611e6a57600080fd5b9083019060c08286031215611e7e57600080fd5b611e866118d6565b825182811115611e9557600080fd5b611ea187828601611c30565b82525060208301516020820152604083015182811115611ec057600080fd5b611ecc87828601611c30565b604083015250606083015182811115611ee457600080fd5b611ef087828601611c30565b606083015250611f0260808401611c7d565b608082015260a083015182811115611f1957600080fd5b611f2587828601611dac565b60a08301525095945050505050565b634e487b7160e01b600052603260045260246000fd5b6000808354611f5881611b98565b60018281168015611f705760018114611f8557611fb4565b60ff1984168752821515830287019450611fb4565b8760005260208060002060005b85811015611fab5781548a820152908401908201611f92565b50505082870194505b50929695505050505050565b601f82111561200a57600081815260208120601f850160051c81016020861015611fe75750805b601f850160051c820191505b8181101561200657828155600101611ff3565b5050505b505050565b815167ffffffffffffffff81111561202957612029611850565b61203d816120378454611b98565b84611fc0565b602080601f831160018114612072576000841561205a5750858301515b600019600386901b1c1916600185901b178555612006565b600085815260208120601f198616915b828110156120a157888601518255948401946001909101908401612082565b50858210156120bf5787850151600019600388901b60f8161c191681555b5050505050600190811b01905550565b60208152600061184960208301846116d2565b60006001820161210257634e487b7160e01b600052601160045260246000fd5b506001019056fea26469706673582212207ee3ab86d277589e1326eda4d8fe46fa01b20784255cd547adc01960d8020caa64736f6c63430008140033",
  "immutableReferences": {},
  "source": "// SPDX-License-Identifier: MIT\r\npragma solidity ^0.8.20;\r\n\r\nimport \"./OrganNFT.sol\";\r\nimport \"./Recipient.sol\";\r\n\r\ncontract OrganQuality {\r\n    address public owner;\r\n    address public organNFTContract;\r\n\r\n    // Struct for medical data\r\n    struct MedicalData {\r\n        string ipfsHash; // Hash of detailed medical data stored on IPFS\r\n        uint256 lastUpdated; // Timestamp of last update\r\n        bool isValid; // Indicates if data has been validated\r\n    }\r\n\r\n    // Struct for test results\r\n    struct TestResult {\r\n        string testType; // e.g., \"HLA Typing\", \"Viral Screening\"\r\n        string resultHash; // IPFS hash of test result details\r\n        uint256 timestamp; // When the test was conducted\r\n        bool isApproved; // Approval status by hospital\r\n    }\r\n\r\n    // Mapping for organ medical data\r\n    mapping(uint256 => MedicalData) public organMedicalData;\r\n\r\n    // Mapping for organ test results\r\n    mapping(uint256 => TestResult[]) public organTestResults;\r\n\r\n    // Events for tracking updates\r\n    event MedicalDataUpdated(uint256 indexed tokenId, string ipfsHash);\r\n    event TestResultsAdded(uint256 indexed tokenId, uint256 resultCount);\r\n    event OrganQualityValidated(uint256 indexed tokenId, bool isValid);\r\n    event CompatibilityChecked(uint256 indexed tokenId, address indexed recipient, bool isCompatible);\r\n\r\n    // Errors\r\n    error NotAuthorized();\r\n    error InvalidTokenId();\r\n    error InvalidRecipient();\r\n    error OrganNotAvailable();\r\n\r\n    // Modifiers\r\n    modifier onlyOwner() {\r\n        if (msg.sender != owner) revert NotAuthorized();\r\n        _;\r\n    }\r\n\r\n    modifier onlyAuthorized() {\r\n        // Simplified authorization - owner can always call\r\n        if (msg.sender != owner) {\r\n            // Try to get contract addresses, but don't fail if not set\r\n            try OrganNFT(organNFTContract).donorContract() returns (address donorAddr) {\r\n                if (msg.sender != donorAddr && \r\n                    msg.sender != OrganNFT(organNFTContract).recipientContract() && \r\n                    msg.sender != OrganNFT(organNFTContract).hospitalContract()) {\r\n                    revert NotAuthorized();\r\n                }\r\n            } catch {\r\n                // If getting contract addresses fails, only allow owner\r\n                revert NotAuthorized();\r\n            }\r\n        }\r\n        _;\r\n    }\r\n\r\n    modifier validTokenId(uint256 tokenId) {\r\n        if (!OrganNFT(organNFTContract).exists(tokenId)) revert InvalidTokenId();\r\n        _;\r\n    }\r\n\r\n    constructor(address _organNFTContract) {\r\n        owner = msg.sender;\r\n        organNFTContract = _organNFTContract;\r\n    }\r\n\r\n    // Update medical data for an organ\r\n    function updateMedicalData(uint256 tokenId, MedicalData memory data)\r\n        external\r\n        onlyAuthorized\r\n        validTokenId(tokenId)\r\n    {\r\n        // Remove the organ status check for now to avoid complexity\r\n        organMedicalData[tokenId] = MedicalData({\r\n            ipfsHash: data.ipfsHash,\r\n            lastUpdated: block.timestamp,\r\n            isValid: false // Requires validation\r\n        });\r\n\r\n        emit MedicalDataUpdated(tokenId, data.ipfsHash);\r\n    }\r\n\r\n    // Add test results for an organ\r\n    function addTestResults(uint256 tokenId, TestResult[] memory results)\r\n        external\r\n        onlyAuthorized\r\n        validTokenId(tokenId)\r\n    {\r\n        for (uint256 i = 0; i < results.length; i++) {\r\n            organTestResults[tokenId].push(TestResult({\r\n                testType: results[i].testType,\r\n                resultHash: results[i].resultHash,\r\n                timestamp: block.timestamp,\r\n                isApproved: false // Requires hospital approval\r\n            }));\r\n        }\r\n\r\n        emit TestResultsAdded(tokenId, results.length);\r\n    }\r\n\r\n    // Validate organ quality\r\n    function validateOrganQuality(uint256 tokenId)\r\n        external\r\n        onlyAuthorized\r\n        validTokenId(tokenId)\r\n    {\r\n        // Simplified validation logic\r\n        bool isValid = (keccak256(bytes(organMedicalData[tokenId].ipfsHash)) != keccak256(bytes(\"\"))) &&\r\n               organTestResults[tokenId].length > 0;\r\n\r\n        organMedicalData[tokenId].isValid = isValid;\r\n\r\n        emit OrganQualityValidated(tokenId, isValid);\r\n    }\r\n\r\n    // Check organ compatibility with recipient\r\n    function getOrganCompatibility(uint256 tokenId, address recipientAddress)\r\n        external\r\n        view\r\n        onlyAuthorized\r\n        validTokenId(tokenId)\r\n        returns (bool)\r\n    {\r\n        OrganNFT nft = OrganNFT(organNFTContract);\r\n        OrganNFT.OrganMetadata memory organ = nft.getOrganMetadata(tokenId);\r\n\r\n        // Try to get recipient contract address\r\n        try nft.recipientContract() returns (address recipientContractAddr) {\r\n            Recipient recipientContract = Recipient(recipientContractAddr);\r\n            Recipient.RecipientData memory recipient = recipientContract.getRecipientInfo(recipientAddress);\r\n            \r\n            if (recipient.age == 0) revert InvalidRecipient();\r\n            \r\n            // Simplified blood type compatibility check\r\n            bool isCompatible = _isBloodCompatible(organ.bloodType, recipient.bloodType);\r\n            \r\n            // Additional checks with medical data\r\n            isCompatible = isCompatible && organMedicalData[tokenId].isValid;\r\n            \r\n            return isCompatible;\r\n        } catch {\r\n            // If can't access recipient contract, just do basic compatibility\r\n            return organMedicalData[tokenId].isValid;\r\n        }\r\n    }\r\n\r\n    // Get test results count for a token\r\n    function getTestResultsCount(uint256 tokenId) \r\n        external \r\n        view \r\n        validTokenId(tokenId) \r\n        returns (uint256) \r\n    {\r\n        return organTestResults[tokenId].length;\r\n    }\r\n\r\n    // Get specific test result\r\n    function getTestResult(uint256 tokenId, uint256 index) \r\n        external \r\n        view \r\n        validTokenId(tokenId) \r\n        returns (TestResult memory) \r\n    {\r\n        require(index < organTestResults[tokenId].length, \"Index out of bounds\");\r\n        return organTestResults[tokenId][index];\r\n    }\r\n\r\n    // Internal function for blood type compatibility\r\n    function _isBloodCompatible(string memory donorBlood, string memory recipientBlood)\r\n        internal\r\n        pure\r\n        returns (bool)\r\n    {\r\n        bytes32 donorHash = keccak256(bytes(donorBlood));\r\n        bytes32 recipientHash = keccak256(bytes(recipientBlood));\r\n        \r\n        if (donorHash == keccak256(bytes(\"O-\"))) return true;\r\n        if (recipientHash == keccak256(bytes(\"AB+\"))) return true;\r\n        if (donorHash == recipientHash) return true;\r\n        \r\n        return false;\r\n    }\r\n\r\n    // Emergency function to update organ NFT contract address\r\n    function updateOrganNFTContract(address _newContract) external onlyOwner {\r\n        organNFTContract = _newContract;\r\n    }\r\n}",
  "sourcePath": "D:\\Summers\\Final year Project\\OrganDonationSystem\\contracts\\OrganQuality.sol",
  "compiler": {
    "name": "solc",
    "version": "0.8.20+commit.a1b79de6.Linux.g++"
  },
  "schemaVersion": "3.4.16",
  "updatedAt": "2025-11-03T20:11:45.981Z",
  "networkType": "ethereum",
  "devdoc": {
    "kind": "dev",
    "methods": {},
    "version": 1
  },
  "userdoc": {
    "kind": "user",
    "methods": {},
    "version": 1
  }
}