{
  "contractName": "Recipient",
  "abi": [
    {
      "inputs": [],
      "stateMutability": "nonpayable",
      "type": "constructor"
    },
    {
      "anonymous": false,
      "inputs": [
        {
          "indexed": true,
          "internalType": "address",
          "name": "recipient",
          "type": "address"
        },
        {
          "indexed": false,
          "internalType": "enum Recipient.OrganType",
          "name": "organType",
          "type": "uint8"
        },
        {
          "indexed": false,
          "internalType": "uint256",
          "name": "urgencyLevel",
          "type": "uint256"
        }
      ],
      "name": "AddedToWaitingList",
      "type": "event"
    },
    {
      "anonymous": false,
      "inputs": [
        {
          "indexed": true,
          "internalType": "address",
          "name": "recipient",
          "type": "address"
        }
      ],
      "name": "RecipientLocationUpdated",
      "type": "event"
    },
    {
      "anonymous": false,
      "inputs": [
        {
          "indexed": true,
          "internalType": "address",
          "name": "recipient",
          "type": "address"
        },
        {
          "indexed": false,
          "internalType": "enum Recipient.MedicalStatus",
          "name": "status",
          "type": "uint8"
        }
      ],
      "name": "RecipientMedicalStatusUpdated",
      "type": "event"
    },
    {
      "anonymous": false,
      "inputs": [
        {
          "indexed": true,
          "internalType": "address",
          "name": "recipient",
          "type": "address"
        },
        {
          "indexed": false,
          "internalType": "string",
          "name": "name",
          "type": "string"
        },
        {
          "indexed": false,
          "internalType": "string",
          "name": "bloodType",
          "type": "string"
        }
      ],
      "name": "RecipientRegistered",
      "type": "event"
    },
    {
      "anonymous": false,
      "inputs": [
        {
          "indexed": true,
          "internalType": "address",
          "name": "recipient",
          "type": "address"
        },
        {
          "indexed": false,
          "internalType": "enum Recipient.OrganType",
          "name": "organType",
          "type": "uint8"
        }
      ],
      "name": "RemovedFromWaitingList",
      "type": "event"
    },
    {
      "inputs": [],
      "name": "owner",
      "outputs": [
        {
          "internalType": "address",
          "name": "",
          "type": "address"
        }
      ],
      "stateMutability": "view",
      "type": "function",
      "constant": true
    },
    {
      "inputs": [
        {
          "internalType": "address",
          "name": "",
          "type": "address"
        }
      ],
      "name": "recipients",
      "outputs": [
        {
          "internalType": "string",
          "name": "name",
          "type": "string"
        },
        {
          "internalType": "uint256",
          "name": "age",
          "type": "uint256"
        },
        {
          "internalType": "string",
          "name": "bloodType",
          "type": "string"
        },
        {
          "internalType": "string",
          "name": "medicalHistoryHash",
          "type": "string"
        },
        {
          "internalType": "enum Recipient.MedicalStatus",
          "name": "medicalStatus",
          "type": "uint8"
        },
        {
          "components": [
            {
              "internalType": "string",
              "name": "city",
              "type": "string"
            },
            {
              "internalType": "string",
              "name": "country",
              "type": "string"
            },
            {
              "internalType": "string",
              "name": "additionalInfo",
              "type": "string"
            }
          ],
          "internalType": "struct Recipient.Location",
          "name": "location",
          "type": "tuple"
        }
      ],
      "stateMutability": "view",
      "type": "function",
      "constant": true
    },
    {
      "inputs": [
        {
          "internalType": "address",
          "name": "",
          "type": "address"
        },
        {
          "internalType": "enum Recipient.OrganType",
          "name": "",
          "type": "uint8"
        }
      ],
      "name": "waitingLists",
      "outputs": [
        {
          "internalType": "uint256",
          "name": "urgencyLevel",
          "type": "uint256"
        },
        {
          "internalType": "uint256",
          "name": "timestamp",
          "type": "uint256"
        }
      ],
      "stateMutability": "view",
      "type": "function",
      "constant": true
    },
    {
      "inputs": [
        {
          "internalType": "address",
          "name": "recipientAddress",
          "type": "address"
        },
        {
          "internalType": "string",
          "name": "name",
          "type": "string"
        },
        {
          "internalType": "uint256",
          "name": "age",
          "type": "uint256"
        },
        {
          "internalType": "string",
          "name": "bloodType",
          "type": "string"
        },
        {
          "internalType": "string",
          "name": "medicalHistoryHash",
          "type": "string"
        },
        {
          "components": [
            {
              "internalType": "string",
              "name": "city",
              "type": "string"
            },
            {
              "internalType": "string",
              "name": "country",
              "type": "string"
            },
            {
              "internalType": "string",
              "name": "additionalInfo",
              "type": "string"
            }
          ],
          "internalType": "struct Recipient.Location",
          "name": "location",
          "type": "tuple"
        }
      ],
      "name": "registerRecipient",
      "outputs": [],
      "stateMutability": "nonpayable",
      "type": "function"
    },
    {
      "inputs": [
        {
          "internalType": "address",
          "name": "recipientAddress",
          "type": "address"
        },
        {
          "internalType": "enum Recipient.MedicalStatus",
          "name": "status",
          "type": "uint8"
        }
      ],
      "name": "updateRecipientMedicalStatus",
      "outputs": [],
      "stateMutability": "nonpayable",
      "type": "function"
    },
    {
      "inputs": [
        {
          "internalType": "address",
          "name": "recipientAddress",
          "type": "address"
        }
      ],
      "name": "getRecipientInfo",
      "outputs": [
        {
          "components": [
            {
              "internalType": "string",
              "name": "name",
              "type": "string"
            },
            {
              "internalType": "uint256",
              "name": "age",
              "type": "uint256"
            },
            {
              "internalType": "string",
              "name": "bloodType",
              "type": "string"
            },
            {
              "internalType": "string",
              "name": "medicalHistoryHash",
              "type": "string"
            },
            {
              "internalType": "enum Recipient.MedicalStatus",
              "name": "medicalStatus",
              "type": "uint8"
            },
            {
              "components": [
                {
                  "internalType": "string",
                  "name": "city",
                  "type": "string"
                },
                {
                  "internalType": "string",
                  "name": "country",
                  "type": "string"
                },
                {
                  "internalType": "string",
                  "name": "additionalInfo",
                  "type": "string"
                }
              ],
              "internalType": "struct Recipient.Location",
              "name": "location",
              "type": "tuple"
            }
          ],
          "internalType": "struct Recipient.RecipientData",
          "name": "",
          "type": "tuple"
        }
      ],
      "stateMutability": "view",
      "type": "function",
      "constant": true
    },
    {
      "inputs": [
        {
          "internalType": "address",
          "name": "recipientAddress",
          "type": "address"
        },
        {
          "internalType": "enum Recipient.OrganType",
          "name": "organType",
          "type": "uint8"
        },
        {
          "internalType": "uint256",
          "name": "urgencyLevel",
          "type": "uint256"
        }
      ],
      "name": "addToWaitingList",
      "outputs": [],
      "stateMutability": "nonpayable",
      "type": "function"
    },
    {
      "inputs": [
        {
          "internalType": "address",
          "name": "recipientAddress",
          "type": "address"
        },
        {
          "internalType": "enum Recipient.OrganType",
          "name": "organType",
          "type": "uint8"
        }
      ],
      "name": "removeFromWaitingList",
      "outputs": [],
      "stateMutability": "nonpayable",
      "type": "function"
    },
    {
      "inputs": [
        {
          "internalType": "address",
          "name": "recipientAddress",
          "type": "address"
        },
        {
          "components": [
            {
              "internalType": "string",
              "name": "city",
              "type": "string"
            },
            {
              "internalType": "string",
              "name": "country",
              "type": "string"
            },
            {
              "internalType": "string",
              "name": "additionalInfo",
              "type": "string"
            }
          ],
          "internalType": "struct Recipient.Location",
          "name": "location",
          "type": "tuple"
        }
      ],
      "name": "updateRecipientLocation",
      "outputs": [],
      "stateMutability": "nonpayable",
      "type": "function"
    }
  ],
  "bytecode": "0x608060405234801561001057600080fd5b50600080546001600160a01b0319163317905561199e806100326000396000f3fe608060405234801561001057600080fd5b50600436106100935760003560e01c80638da5cb5b116100665780638da5cb5b1461012c578063a1c5fcf514610157578063c09ae3331461016a578063cc38d0061461017d578063eb8203121461019057600080fd5b80630bae3af8146100985780630c000e01146100ad5780631a7ae6d6146100c057806358a3c3c11461010c575b600080fd5b6100ab6100a6366004611252565b6101b5565b005b6100ab6100bb3660046113e0565b6103eb565b6100f26100ce3660046114a6565b60026020908152600092835260408084209091529082529020805460019091015482565b604080519283526020830191909152015b60405180910390f35b61011f61011a3660046114d9565b610638565b60405161010391906115bc565b60005461013f906001600160a01b031681565b6040516001600160a01b039091168152602001610103565b6100ab61016536600461164f565b610a63565b6100ab6101783660046114a6565b610b5d565b6100ab61018b36600461168a565b610cfd565b6101a361019e3660046114d9565b610e26565b604051610103969594939291906116d8565b6000546001600160a01b031633146101e85760405162461bcd60e51b81526004016101df90611745565b60405180910390fd5b6001600160a01b0383166000908152600160208190526040909120015483906102235760405162461bcd60e51b81526004016101df9061177c565b600082116102735760405162461bcd60e51b815260206004820152601e60248201527f557267656e6379206c6576656c206d75737420626520706f736974697665000060448201526064016101df565b6001600160a01b03841660009081526002602081905260408220919085908111156102a0576102a0611541565b60028111156102b1576102b1611541565b81526020810191909152604001600020541561031e5760405162461bcd60e51b815260206004820152602660248201527f416c7265616479206f6e2077616974696e67206c69737420666f7220746869736044820152651037b933b0b760d11b60648201526084016101df565b60405180604001604052808381526020014281525060026000866001600160a01b03166001600160a01b03168152602001908152602001600020600085600281111561036c5761036c611541565b600281111561037d5761037d611541565b81526020019081526020016000206000820151816000015560208201518160010155905050836001600160a01b03167f28e96774c7c560b4206b32bce0b7b656ad8e141c0e5e66582050e14267e0c09f84846040516103dd9291906117c3565b60405180910390a250505050565b6001600160a01b0386166104335760405162461bcd60e51b815260206004820152600f60248201526e496e76616c6964206164647265737360881b60448201526064016101df565b6001600160a01b038616600090815260016020819052604090912001541561049d5760405162461bcd60e51b815260206004820152601c60248201527f526563697069656e7420616c726561647920726567697374657265640000000060448201526064016101df565b600084116104db5760405162461bcd60e51b815260206004820152600b60248201526a496e76616c69642061676560a81b60448201526064016101df565b6040518060c001604052808681526020018581526020018481526020018381526020016000600481111561051157610511611541565b815260209081018390526001600160a01b0388166000908152600190915260409020815181906105419082611861565b5060208201516001820155604082015160028201906105609082611861565b50606082015160038201906105759082611861565b5060808201518160040160006101000a81548160ff021916908360048111156105a0576105a0611541565b021790555060a08201518051600583019081906105bd9082611861565b50602082015160018201906105d29082611861565b50604082015160028201906105e79082611861565b505050905050856001600160a01b03167f3d6c00385d301f1858baacd01dda41805dc22f9eab6b3c86afd92e8b57c8502b8685604051610628929190611921565b60405180910390a2505050505050565b6106406111bf565b6001600160a01b03821660009081526001602081905260409091200154829061067b5760405162461bcd60e51b81526004016101df9061177c565b6001600160a01b03831660009081526001602052604090819020815160c081019092528054829082906106ad906117de565b80601f01602080910402602001604051908101604052809291908181526020018280546106d9906117de565b80156107265780601f106106fb57610100808354040283529160200191610726565b820191906000526020600020905b81548152906001019060200180831161070957829003601f168201915b5050505050815260200160018201548152602001600282018054610749906117de565b80601f0160208091040260200160405190810160405280929190818152602001828054610775906117de565b80156107c25780601f10610797576101008083540402835291602001916107c2565b820191906000526020600020905b8154815290600101906020018083116107a557829003601f168201915b505050505081526020016003820180546107db906117de565b80601f0160208091040260200160405190810160405280929190818152602001828054610807906117de565b80156108545780601f1061082957610100808354040283529160200191610854565b820191906000526020600020905b81548152906001019060200180831161083757829003601f168201915b505050918352505060048281015460209092019160ff169081111561087b5761087b611541565b600481111561088c5761088c611541565b8152602001600582016040518060600160405290816000820180546108b0906117de565b80601f01602080910402602001604051908101604052809291908181526020018280546108dc906117de565b80156109295780601f106108fe57610100808354040283529160200191610929565b820191906000526020600020905b81548152906001019060200180831161090c57829003601f168201915b50505050508152602001600182018054610942906117de565b80601f016020809104026020016040519081016040528092919081815260200182805461096e906117de565b80156109bb5780601f10610990576101008083540402835291602001916109bb565b820191906000526020600020905b81548152906001019060200180831161099e57829003601f168201915b505050505081526020016002820180546109d4906117de565b80601f0160208091040260200160405190810160405280929190818152602001828054610a00906117de565b8015610a4d5780601f10610a2257610100808354040283529160200191610a4d565b820191906000526020600020905b815481529060010190602001808311610a3057829003601f168201915b5050505050815250508152505091505b50919050565b6000546001600160a01b03163314610a8d5760405162461bcd60e51b81526004016101df90611745565b6001600160a01b038216600090815260016020819052604090912001548290610ac85760405162461bcd60e51b81526004016101df9061177c565b8160016000856001600160a01b03166001600160a01b0316815260200190815260200160002060040160006101000a81548160ff02191690836004811115610b1257610b12611541565b0217905550826001600160a01b03167f704c545a75bc883dc22b2cb21d084c229e77ba9ee2141908ef6c2d03c4dcc0f683604051610b509190611946565b60405180910390a2505050565b6000546001600160a01b03163314610b875760405162461bcd60e51b81526004016101df90611745565b6001600160a01b038216600090815260016020819052604090912001548290610bc25760405162461bcd60e51b81526004016101df9061177c565b6001600160a01b038316600090815260026020819052604082209082908590811115610bf057610bf0611541565b6002811115610c0157610c01611541565b81526020019081526020016000206000015411610c6b5760405162461bcd60e51b815260206004820152602260248201527f4e6f74206f6e2077616974696e67206c69737420666f722074686973206f726760448201526130b760f11b60648201526084016101df565b6001600160a01b0383166000908152600260208190526040822091908490811115610c9857610c98611541565b6002811115610ca957610ca9611541565b815260208101919091526040908101600090812081815560010155516001600160a01b038416907f021a8a6fda402d2a9fb4c7737661fd3be23f8943f0623ed61c65210c2c0ad01d90610b5090859061195a565b6001600160a01b038216600090815260016020819052604090912001548290610d385760405162461bcd60e51b81526004016101df9061177c565b336001600160a01b0384161480610d5957506000546001600160a01b031633145b610d945760405162461bcd60e51b815260206004820152600c60248201526b155b985d5d1a1bdc9a5e995960a21b60448201526064016101df565b6001600160a01b038316600090815260016020526040902082518391600501908190610dc09082611861565b5060208201516001820190610dd59082611861565b5060408201516002820190610dea9082611861565b50506040516001600160a01b03851691507f5676e8de76448cdc129d492d3e0ab956609d9d95ae63b53ae701605a61a2829090600090a2505050565b600160205260009081526040902080548190610e41906117de565b80601f0160208091040260200160405190810160405280929190818152602001828054610e6d906117de565b8015610eba5780601f10610e8f57610100808354040283529160200191610eba565b820191906000526020600020905b815481529060010190602001808311610e9d57829003601f168201915b505050505090806001015490806002018054610ed5906117de565b80601f0160208091040260200160405190810160405280929190818152602001828054610f01906117de565b8015610f4e5780601f10610f2357610100808354040283529160200191610f4e565b820191906000526020600020905b815481529060010190602001808311610f3157829003601f168201915b505050505090806003018054610f63906117de565b80601f0160208091040260200160405190810160405280929190818152602001828054610f8f906117de565b8015610fdc5780601f10610fb157610100808354040283529160200191610fdc565b820191906000526020600020905b815481529060010190602001808311610fbf57829003601f168201915b5050505050908060040160009054906101000a900460ff169080600501604051806060016040529081600082018054611014906117de565b80601f0160208091040260200160405190810160405280929190818152602001828054611040906117de565b801561108d5780601f106110625761010080835404028352916020019161108d565b820191906000526020600020905b81548152906001019060200180831161107057829003601f168201915b505050505081526020016001820180546110a6906117de565b80601f01602080910402602001604051908101604052809291908181526020018280546110d2906117de565b801561111f5780601f106110f45761010080835404028352916020019161111f565b820191906000526020600020905b81548152906001019060200180831161110257829003601f168201915b50505050508152602001600282018054611138906117de565b80601f0160208091040260200160405190810160405280929190818152602001828054611164906117de565b80156111b15780601f10611186576101008083540402835291602001916111b1565b820191906000526020600020905b81548152906001019060200180831161119457829003601f168201915b505050505081525050905086565b6040518060c0016040528060608152602001600081526020016060815260200160608152602001600060048111156111f9576111f9611541565b815260200161122260405180606001604052806060815260200160608152602001606081525090565b905290565b80356001600160a01b038116811461123e57600080fd5b919050565b80356003811061123e57600080fd5b60008060006060848603121561126757600080fd5b61127084611227565b925061127e60208501611243565b9150604084013590509250925092565b634e487b7160e01b600052604160045260246000fd5b600082601f8301126112b557600080fd5b813567ffffffffffffffff808211156112d0576112d061128e565b604051601f8301601f19908116603f011681019082821181831017156112f8576112f861128e565b8160405283815286602085880101111561131157600080fd5b836020870160208301376000602085830101528094505050505092915050565b60006060828403121561134357600080fd5b6040516060810167ffffffffffffffff82821081831117156113675761136761128e565b81604052829350843591508082111561137f57600080fd5b61138b868387016112a4565b835260208501359150808211156113a157600080fd5b6113ad868387016112a4565b602084015260408501359150808211156113c657600080fd5b506113d3858286016112a4565b6040830152505092915050565b60008060008060008060c087890312156113f957600080fd5b61140287611227565b9550602087013567ffffffffffffffff8082111561141f57600080fd5b61142b8a838b016112a4565b965060408901359550606089013591508082111561144857600080fd5b6114548a838b016112a4565b9450608089013591508082111561146a57600080fd5b6114768a838b016112a4565b935060a089013591508082111561148c57600080fd5b5061149989828a01611331565b9150509295509295509295565b600080604083850312156114b957600080fd5b6114c283611227565b91506114d060208401611243565b90509250929050565b6000602082840312156114eb57600080fd5b6114f482611227565b9392505050565b6000815180845260005b8181101561152157602081850181015186830182015201611505565b506000602082860101526020601f19601f83011685010191505092915050565b634e487b7160e01b600052602160045260246000fd5b6005811061156757611567611541565b9052565b600081516060845261158060608501826114fb565b90506020830151848203602086015261159982826114fb565b915050604083015184820360408601526115b382826114fb565b95945050505050565b602081526000825160c060208401526115d860e08401826114fb565b9050602084015160408401526040840151601f198085840301606086015261160083836114fb565b9250606086015191508085840301608086015261161d83836114fb565b92506080860151915061163360a0860183611557565b60a08601519150808584030160c0860152506115b3828261156b565b6000806040838503121561166257600080fd5b61166b83611227565b915060208301356005811061167f57600080fd5b809150509250929050565b6000806040838503121561169d57600080fd5b6116a683611227565b9150602083013567ffffffffffffffff8111156116c257600080fd5b6116ce85828601611331565b9150509250929050565b60c0815260006116eb60c08301896114fb565b876020840152828103604084015261170381886114fb565b9050828103606084015261171781876114fb565b90506117266080840186611557565b82810360a0840152611738818561156b565b9998505050505050505050565b60208082526018908201527f4f6e6c79206f776e65722063616e2063616c6c20746869730000000000000000604082015260600190565b60208082526018908201527f526563697069656e74206e6f7420726567697374657265640000000000000000604082015260600190565b6003811061156757611567611541565b604081016117d182856117b3565b8260208301529392505050565b600181811c908216806117f257607f821691505b602082108103610a5d57634e487b7160e01b600052602260045260246000fd5b601f82111561185c57600081815260208120601f850160051c810160208610156118395750805b601f850160051c820191505b8181101561185857828155600101611845565b5050505b505050565b815167ffffffffffffffff81111561187b5761187b61128e565b61188f8161188984546117de565b84611812565b602080601f8311600181146118c457600084156118ac5750858301515b600019600386901b1c1916600185901b178555611858565b600085815260208120601f198616915b828110156118f3578886015182559484019460019091019084016118d4565b50858210156119115787850151600019600388901b60f8161c191681555b5050505050600190811b01905550565b60408152600061193460408301856114fb565b82810360208401526115b381856114fb565b602081016119548284611557565b92915050565b6020810161195482846117b356fea26469706673582212205382aa2a852e2ab72b019bfb2d557dc38f00a7e3555438240e82051e032b214e64736f6c63430008140033",
  "immutableReferences": {},
  "source": "// SPDX-License-Identifier: MIT\r\npragma solidity ^0.8.20;\r\n\r\ncontract Recipient {\r\n    address public owner;\r\n\r\n    // Enum for medical status\r\n    enum MedicalStatus { Waiting, Transplanted, Critical, Stable, Rejected }\r\n\r\n    // Enum for organ type\r\n    enum OrganType { Heart, Liver, Kidneys }\r\n\r\n    // Struct for location\r\n    struct Location {\r\n        string city;\r\n        string country;\r\n        string additionalInfo; // e.g., hospital name or coordinates\r\n    }\r\n\r\n    // Struct for recipient data\r\n    struct RecipientData {\r\n        string name;\r\n        uint256 age;\r\n        string bloodType;\r\n        string medicalHistoryHash; // Can store IPFS hash for privacy\r\n        MedicalStatus medicalStatus;\r\n        Location location;\r\n    }\r\n\r\n    // Struct for waiting list entry\r\n    struct WaitingEntry {\r\n        uint256 urgencyLevel; // Higher number means higher urgency\r\n        uint256 timestamp; // When added to the list\r\n    }\r\n\r\n    // Mapping recipient address  RecipientData\r\n    mapping(address => RecipientData) public recipients;\r\n\r\n    // Mapping recipient address  (OrganType  WaitingEntry)\r\n    mapping(address => mapping(OrganType => WaitingEntry)) public waitingLists;\r\n\r\n    // Events for frontend and logs\r\n    event RecipientRegistered(address indexed recipient, string name, string bloodType);\r\n    event RecipientMedicalStatusUpdated(address indexed recipient, MedicalStatus status);\r\n    event AddedToWaitingList(address indexed recipient, OrganType organType, uint256 urgencyLevel);\r\n    event RemovedFromWaitingList(address indexed recipient, OrganType organType);\r\n    event RecipientLocationUpdated(address indexed recipient);\r\n\r\n    // Constructor sets contract owner\r\n    constructor() {\r\n        owner = msg.sender;\r\n    }\r\n\r\n    // Modifiers\r\n    modifier onlyOwner() {\r\n        require(msg.sender == owner, \"Only owner can call this\");\r\n        _;\r\n    }\r\n\r\n    modifier onlyRegisteredRecipient(address recipientAddress) {\r\n        require(recipients[recipientAddress].age > 0, \"Recipient not registered\");\r\n        _;\r\n    }\r\n\r\n    // Register a new recipient\r\n    function registerRecipient(\r\n        address recipientAddress,\r\n        string memory name,\r\n        uint256 age,\r\n        string memory bloodType,\r\n        string memory medicalHistoryHash,\r\n        Location memory location\r\n    ) external {\r\n        require(recipientAddress != address(0), \"Invalid address\");\r\n        require(recipients[recipientAddress].age == 0, \"Recipient already registered\"); //  Fixed typo\r\n        require(age > 0, \"Invalid age\"); //  Added safety check\r\n\r\n        recipients[recipientAddress] = RecipientData({\r\n            name: name,\r\n            age: age,\r\n            bloodType: bloodType,\r\n            medicalHistoryHash: medicalHistoryHash,\r\n            medicalStatus: MedicalStatus.Waiting, // Default status\r\n            location: location\r\n        });\r\n\r\n        emit RecipientRegistered(recipientAddress, name, bloodType);\r\n    }\r\n\r\n    // Update recipient medical status (admin only)\r\n    function updateRecipientMedicalStatus(address recipientAddress, MedicalStatus status)\r\n        external\r\n        onlyOwner\r\n        onlyRegisteredRecipient(recipientAddress)\r\n    {\r\n        recipients[recipientAddress].medicalStatus = status;\r\n        emit RecipientMedicalStatusUpdated(recipientAddress, status);\r\n    }\r\n\r\n    // Get recipient information\r\n    function getRecipientInfo(address recipientAddress)\r\n        external\r\n        view\r\n        onlyRegisteredRecipient(recipientAddress)\r\n        returns (RecipientData memory)\r\n    {\r\n        return recipients[recipientAddress];\r\n    }\r\n\r\n    // Add recipient to waiting list for a specific organ\r\n    function addToWaitingList(address recipientAddress, OrganType organType, uint256 urgencyLevel)\r\n        external\r\n        onlyOwner\r\n        onlyRegisteredRecipient(recipientAddress)\r\n    {\r\n        require(urgencyLevel > 0, \"Urgency level must be positive\");\r\n        require(waitingLists[recipientAddress][organType].urgencyLevel == 0, \"Already on waiting list for this organ\");\r\n\r\n        waitingLists[recipientAddress][organType] = WaitingEntry({\r\n            urgencyLevel: urgencyLevel,\r\n            timestamp: block.timestamp\r\n        });\r\n\r\n        emit AddedToWaitingList(recipientAddress, organType, urgencyLevel);\r\n    }\r\n\r\n    // Remove recipient from waiting list for a specific organ\r\n    function removeFromWaitingList(address recipientAddress, OrganType organType)\r\n        external\r\n        onlyOwner\r\n        onlyRegisteredRecipient(recipientAddress)\r\n    {\r\n        require(waitingLists[recipientAddress][organType].urgencyLevel > 0, \"Not on waiting list for this organ\");\r\n\r\n        delete waitingLists[recipientAddress][organType];\r\n\r\n        emit RemovedFromWaitingList(recipientAddress, organType);\r\n    }\r\n\r\n    // Update recipient location (recipient or owner)\r\n    function updateRecipientLocation(address recipientAddress, Location memory location)\r\n        external\r\n        onlyRegisteredRecipient(recipientAddress)\r\n    {\r\n        require(msg.sender == recipientAddress || msg.sender == owner, \"Unauthorized\");\r\n        recipients[recipientAddress].location = location;\r\n        emit RecipientLocationUpdated(recipientAddress);\r\n    }\r\n}\r\n",
  "sourcePath": "D:\\Summers\\Final year Project\\OrganDonationSystem\\contracts\\Recipient.sol",
  "compiler": {
    "name": "solc",
    "version": "0.8.20+commit.a1b79de6.Linux.g++"
  },
  "schemaVersion": "3.4.16",
  "updatedAt": "2025-11-03T20:11:45.857Z",
  "networkType": "ethereum",
  "devdoc": {
    "kind": "dev",
    "methods": {},
    "version": 1
  },
  "userdoc": {
    "kind": "user",
    "methods": {},
    "version": 1
  }
}